:020000040800F2
:100000000000052029190008491800084B180008AD
:100010004D1800084F180008511800080000000093
:10002000000000000000000000000000117C00083B
:100030005318000800000000B17C0008157D00087E
:100040007919000879190008791900087919000848
:100050007919000879190008791900087919000838
:100060007919000879190008791900087919000828
:100070007919000879190008791900087919000818
:100080007919000879190008791900087919000808
:1000900079190008791900087919000879190008F8
:1000A00079190008791900087919000879190008E8
:1000B00079190008791900087919000879190008D8
:1000C00079190008791900087919000879190008C8
:1000D00079190008791900087919000879190008B8
:1000E00079190008791900087919000879190008A8
:1000F0007919000879190008791900087919000898
:100100007919000879190008791900087919000887
:10011000791900087919000855180008791900089C
:100120007919000879190008791900087919000867
:100130007919000879190008791900087919000857
:100140007919000879190008791900087919000847
:100150007919000879190008791900087919000837
:100160007919000879190008791900087919000827
:1001700079190008791900087919000800000000B1
:100180007919000879190008791900087919000807
:1001900079190008791900087919000879190008F7
:1001A00061180008791900086D180008791900080D
:1001B00079190008791900087919000879190008D7
:0801C000791900087919000803
:1001D00010B5054C237833B9044B13B10448AFF381
:1001E00000800123237010BDA46D012000000000D9
:1001F000F0B2020808B5034B1BB103490348AFF343
:10020000008008BD00000000A86D0120F0B20208C7
:1002100001F0FF01102A2BDB10F0070F08D010F8B7
:10022000013B013A8B422DD010F0070F42B3F6D1BB
:10023000F0B441EA012141EA014122F007047FF0D4
:1002400000070023F0E80256083C85EA010586EA2B
:10025000010685FA47F5A3FA87F586FA47F6A5FA67
:1002600087F68EB9EED1F0BC01F0FF0102F0070273
:1002700032B110F8013B013A83EA010313B1F8D11E
:100280000020704701387047002D06BF35460338FF
:10029000073815F0010F07D1013015F4807F02BF38
:1002A000013015F4C03F0130F0BC0138704700BF89
:1002B00081F0004102E000BF83F0004330B54FEA17
:1002C00041044FEA430594EA050F08BF90EA020F84
:1002D0001FBF54EA000C55EA020C7FEA645C7FEA17
:1002E000655C00F0E2804FEA5454D4EB5555B8BF3A
:1002F0006D420CDD2C4480EA020281EA030382EAAB
:10030000000083EA010180EA020281EA0303362D3C
:1003100088BF30BD11F0004F4FEA01314FF4801C0F
:100320004CEA113102D0404261EB410113F0004F21
:100330004FEA03334CEA133302D0524263EB4303D8
:1003400094EA050F00F0A780A4F10104D5F1200E76
:100350000DDB02FA0EFC22FA05F2801841F10001D1
:1003600003FA0EF2801843FA05F359410EE0A5F1A5
:1003700020050EF1200E012A03FA0EFC28BF4CF0D6
:10038000020C43FA05F3C01851EBE37101F000458C
:1003900007D54FF0000EDCF1000C7EEB00006EEB99
:1003A0000101B1F5801F1BD3B1F5001F0CD3490823
:1003B0005FEA30004FEA3C0C04F101044FEA44527A
:1003C00012F5800F80F09A80BCF1004F08BF5FEA01
:1003D000500C50F1000041EB045141EA050130BDE1
:1003E0005FEA4C0C404141EB0101013C28BFB1F5F3
:1003F000801FE9D291F0000F04BF01460020B1FA3E
:1004000081F308BF2033A3F10B03B3F120020CDA10
:100410000C3208DD02F1140CC2F10C0201FA0CF0EE
:1004200021FA02F10CE002F11402D8BFC2F1200C53
:1004300001FA02F120FA0CFCDCBF41EA0C01904009
:10044000E41AA2BF01EB0451294330BD6FEA040452
:100450001F3C1CDA0C340EDC04F11404C4F120023D
:1004600020FA04F001FA02F340EA030021FA04F34F
:1004700045EA030130BDC4F10C04C4F1200220FAA6
:1004800002F001FA04F340EA0300294630BD21FAE4
:1004900004F0294630BD94F0000F83F4801306BFAA
:1004A00081F480110134013D4EE77FEA645C18BF9E
:1004B0007FEA655C29D094EA050F08BF90EA020F35
:1004C00005D054EA000C04BF1946104630BD91EA2D
:1004D000030F1EBF0021002030BD5FEA545C05D130
:1004E0004000494128BF41F0004130BD14F580046F
:1004F0003CBF01F5801130BD01F0004545F0FE41E3
:1005000041F470014FF0000030BD7FEA645C1ABF17
:10051000194610467FEA655C1CBF0B46024650EA4E
:10052000013406BF52EA033591EA030F41F400217A
:1005300030BD00BF90F0000F04BF0021704730B500
:100540004FF4806404F132044FF000054FF00001D5
:1005500050E700BF90F0000F04BF0021704730B596
:100560004FF4806404F1320410F0004548BF40426B
:100570004FF000013EE700BF42004FEAE2014FEAC0
:1005800031014FEA02701FBF12F07F4393F07F4F9B
:1005900081F06051704732F07F4208BF704793F09E
:1005A0007F4F04BF41F40021704730B54FF46074B1
:1005B00001F0004521F000411CE700BF50EA0102B4
:1005C00008BF704730B54FF000050AE050EA01025D
:1005D00008BF704730B511F0004502D5404261EBCD
:1005E00041014FF4806404F132045FEA915C3FF40E
:1005F000D8AE4FF003025FEADC0C18BF03325FEAAB
:10060000DC0C18BF033202EBDC02C2F1200300FA5B
:1006100003FC20FA02F001FA03FE40EA0E0021FA80
:1006200002F11444BDE600BF70B54FF0FF0C4CF46E
:10063000E06C1CEA11541DBF1CEA135594EA0C0F20
:1006400095EA0C0F00F0DEF82C4481EA030621EA5B
:100650004C5123EA4C5350EA013518BF52EA033596
:1006600041F4801143F4801338D0A0FB02CE4FF048
:100670000005E1FB02E506F00042E0FB03E54FF078
:100680000006E1FB03569CF0000F18BF4EF0010E70
:10069000A4F1FF04B6F5007F64F5407404D25FEA6C
:1006A0004E0E6D4146EB060642EAC62141EA55511F
:1006B0004FEAC52040EA5E504FEACE2EB4F1FD0C61
:1006C00088BFBCF5E06F1ED8BEF1004F08BF5FEADF
:1006D000500E50F1000041EB045170BD06F0004691
:1006E00046EA010140EA020081EA0301B4EB5C043E
:1006F000C2BFD4EB0C0541EA045170BD41F4801136
:100700004FF0000E013C00F3AB8014F1360FDEBF5A
:10071000002001F0004170BDC4F10004203C35DA36
:100720000C341BDC04F11404C4F1200500FA05F3B9
:1007300020FA04F001FA05F240EA020001F000425A
:1007400021F0004110EBD37021FA04F642EB0601D0
:100750005EEA430E08BF20EAD37070BDC4F10C04FA
:10076000C4F1200500FA04F320FA05F001FA04F2BE
:1007700040EA020001F0004110EBD37041F10001AA
:100780005EEA430E08BF20EAD37070BDC4F12005B5
:1007900000FA05F24EEA020E20FA04F301FA05F21D
:1007A00043EA020321FA04F001F0004121FA04F2C5
:1007B00020EA020000EBD3705EEA430E08BF20EA95
:1007C000D37070BD94F0000F0FD101F000464000CF
:1007D00041EB010111F4801F08BF013CF7D041EA51
:1007E000060195F0000F18BF704703F00046520055
:1007F00043EB030313F4801F08BF013DF7D043EA26
:100800000603704794EA0C0F0CEA135518BF95EADB
:100810000C0F0CD050EA410618BF52EA4306D1D162
:1008200081EA030101F000414FF0000070BD50EA81
:10083000410606BF1046194652EA430619D094EA0B
:100840000C0F02D150EA013613D195EA0C0F05D1F5
:1008500052EA03361CBF104619460AD181EA030149
:1008600001F0004141F0FE4141F470014FF0000001
:1008700070BD41F0FE4141F4780170BD70B54FF09C
:10088000FF0C4CF4E06C1CEA11541DBF1CEA13551C
:1008900094EA0C0F95EA0C0F00F0A7F8A4EB0504FE
:1008A00081EA030E52EA03354FEA013100F08880F5
:1008B0004FEA03334FF0805545EA131343EA1263BE
:1008C0004FEA022245EA111545EA10654FEA002673
:1008D0000EF000419D4208BF964244F1FD0404F52C
:1008E000407402D25B084FEA3202B61A65EB030588
:1008F0005B084FEA32024FF480104FF4002CB6EB45
:10090000020E75EB030E22BFB61A754640EA0C00C4
:100910005B084FEA3202B6EB020E75EB030E22BF04
:10092000B61A754640EA5C005B084FEA3202B6EB45
:10093000020E75EB030E22BFB61A754640EA9C0004
:100940005B084FEA3202B6EB020E75EB030E22BFD4
:10095000B61A754640EADC0055EA060E18D04FEA92
:10096000051545EA16754FEA06164FEAC30343EA32
:1009700052734FEAC2025FEA1C1CC0D111F4801FFF
:100980000BD141EA00014FF000004FF0004CB6E7F8
:1009900011F4801F04BF01430020B4F1FD0C88BF97
:1009A000BCF5E06F3FF6AFAEB5EB030C04BFB6EBA2
:1009B000020C5FEA500C50F1000041EB045170BD95
:1009C0000EF0004E4EEA113114EB5C04C2BFD4EBC2
:1009D0000C0541EA045170BD41F480114FF0000E46
:1009E000013C90E645EA060E8DE60CEA135594EAC2
:1009F0000C0F08BF95EA0C0F3FF43BAF94EA0C0FC5
:100A00000AD150EA01347FF434AF95EA0C0F7FF439
:100A100025AF104619462CE795EA0C0F06D152EA8D
:100A200003353FF4FDAE1046194622E750EA410671
:100A300018BF52EA43067FF4C5AE50EA41047FF482
:100A40000DAF52EA43057FF4EBAE12E74FEA4102E5
:100A5000B2F1E04324BFB3F5001CDCF1FE5C0DD91C
:100A600001F0004C4FEAC0024CEA5070B2F1004F66
:100A700040EB830008BF20F00100704711F0804F69
:100A800021D113F13872BCBF01F00040704741F42E
:100A900080114FEA5252C2F11802C2F1200C10FA32
:100AA0000CF320FA02F018BF40F001004FEAC12316
:100AB0004FEAD32303FA0CFC40EA0C0023FA02F3BA
:100AC0004FEA4303CCE77FEA625307D150EA013390
:100AD0001EBF4FF0FE4040F44000704701F0004060
:100AE00040F0FE4040F40000704700BF53B94AB9DF
:100AF000002908BF00281CBF4FF0FF314FF0FF3026
:100B000000F06EB9ADF1080C6DE904CE00F006F806
:100B1000DDF804E0DDE9022304B070472DE9F04779
:100B2000089D04468C46002B40F083808A4217467D
:100B300047D9B2FA82F242B1C2F1200024FA00F0A1
:100B40009140974040EA010C94404FEA1748230C2B
:100B5000BCFBF8F61FFA87FE08FB16C143EA014307
:100B600006FB0EF1994209D9FB1806F1FF3080F01F
:100B70001981994240F21681023E3B445B1AA4B2AD
:100B8000B3FBF8F008FB103344EA034400FB0EFE0D
:100B9000A64509D93C1900F1FF3380F00581A6452F
:100BA00040F2028102383C4440EA0640A4EB0E04C5
:100BB00000261DB1D4400023C5E900433146BDE8FD
:100BC000F08702B9FFDEB2FA82F2002A50D1CB1BC5
:100BD0004FEA174E1FFA87F80126B3FBFEFC210CE3
:100BE0000EFB1C3341EA034108FB0CF38B4207D98F
:100BF00079180CF1FF3002D28B4200F2E980844672
:100C0000C91AA3B2B1FBFEF00EFB101143EA014476
:100C100008FB00F8A04507D93C1900F1FF3302D2C8
:100C2000A04500F2D9801846A4EB080440EA0C4025
:100C3000BFE78B4209D9002D00F0B1800026C5E93D
:100C4000000130463146BDE8F087B3FA83F6002E46
:100C50004AD18B4202D3824200F2B880841A61EBFF
:100C6000030101208C46002DA8D0C5E9004CA5E762
:100C7000C2F1200320FA03F6974001FA02F04FEA8E
:100C8000174ED9403043030CB1FBFEF61FFA87F82C
:100C90000EFB161143EA014306FB08F1994204FAE0
:100CA00002F409D9FB1806F1FF3C80F08D809942CF
:100CB00040F28A80023E3B445B1A81B2B3FBFEF0F5
:100CC0000EFB103341EA034100FB08F38B4207D9C6
:100CD000791800F1FF3C73D28B4271D90238394444
:100CE000CB1A40EA064678E7C6F1200C03FA06F470
:100CF00022FA0CF31C4320FA0CF701FA06F34FEA30
:100D0000144E21FA0CF11F433B0CB1FBFEF91FFA04
:100D100084F80EFB191143EA014109FB08FA8A45E0
:100D200002FA06F200FA06F308D9611809F1FF3059
:100D300048D28A4546D9A9F102092144A1EB0A010A
:100D4000BFB2B1FBFEF00EFB101147EA014700FBFA
:100D500008F8B84507D9E71900F1FF312ED2B84598
:100D60002CD90238274440EA0940A7EB0807A0FB2A
:100D700002894F45C64649461AD317D05DB1B3EB39
:100D80000E0267EB010707FA0CFCF2404CEA020284
:100D9000F740C5E9002700263146BDE8F0872E461A
:100DA00028460BE70646E9E61846FDE64345E5D248
:100DB000B8EB020E69EB04010138DFE70846D2E721
:100DC00060468DE78146B9E7664675E730464AE7F3
:100DD000ACF1020C394413E702383C4424E700BF6D
:100DE000704700BF0149002008F032B9AD1C00086F
:100DF00008B5642006F02CFBFBE7000010B594B0AA
:100E00001022002102240AA829F0B2F8142200219D
:100E100003A829F0ADF81D4B192108A81A6C42F05F
:100E200080521A641B6C03F080530193019B184B92
:100E30001A6842F440421A6001221B6803F44043DE
:100E40000293029B4FF48033CDE908234FF48003D3
:100E5000CDE90E434FF4C873CDE91244CDE9101328
:100E600005F0B4FA04F05AFF0F2300200621CDE963
:100E700003344FF4A053CDE905034FF4805303A886
:100E8000079305F08FFC14B010BD00BF003802407E
:100E9000007000402DE980489BB000211022012500
:100EA0000DA8002429F064F803F06CFE4FF0104206
:100EB000CA4B0DA8ADF834501094CDE90E2303F0C1
:100EC00083FE17230DA88DF835508DF83C308DF832
:100ED000425003F079FE042003F064FEBFF34F8F0D
:100EE000BFF36F8FBE4BC3F85042BFF34F8FBFF3BA
:100EF0006F8F5A6942F400325A61BFF34F8FBFF3CC
:100F00006F8FC3F88440BFF34F8FD3F8802043F630
:100F1000E074C2F3C900C2F34E32520102EA040681
:100F2000014646EA81750139C3F86052F9D2203A88
:100F300012F1200FF2D1BFF34F8F5A6942F4803281
:100F40005A61BFF34F8FBFF36F8F03F07FFD002413
:100F5000FFF754FF142200210DA829F009F8A14B36
:100F60000821A1481A6B01274FF0080B4FF4805A53
:100F700042F010029D4D9E4E4FF004091A634FF04F
:100F800010081A6B02F010020292029A1A6B42F0D9
:100F900001021A631A6B02F001020392039A1A6BA0
:100FA00042F002021A631A6B02F002020492049ADF
:100FB0001A6B42F040021A631A6B02F0400205926B
:100FC000059A1A6B42F400721A631A6B02F40072EB
:100FD0000692069A1A6B42F008021A631A6B02F024
:100FE00008020792079A1A6B42F480621A631A6B1E
:100FF00002F480620892089A1A6B42F020021A6387
:101000001A6B02F020020992099A1A6B42F480725C
:101010001A631A6B02F480720A920A9A1A6B42F0EF
:1010200080021A631A6B02F080020B920B9A1A6B01
:1010300042F004021A6301221B6B03F004030C93B9
:101040000C9B04F00FF901224FF48051694804F021
:1010500009F90DA96448CDE90DB7CDE90F4403F0B6
:101060007BFF0DA96348CDE90DA7CDE90F4403F03F
:1010700073FF6148614B848003600762C0E90544E7
:1010800003F0CAFD5E4B2846C5E90A44C5E90C4495
:10109000C5E90034C5E9024403F05DFE394628463F
:1010A000584D03F011FF584B40220DA93046B46053
:1010B000F461B462C6E900344FF4C073C6E9052395
:1010C0004FF40063C6E9083A4FF0020A0723CDE95E
:1010D0000DA3CDE90F930323CDF84CA0CDE9113A30
:1010E000C6E9039805F0B4FE29464FF6FF72304674
:1010F0000194C5E90078C5E9027405F0C9FE3846D7
:1011000003F0C8FC29464FF6FF723046C5E900A837
:10111000C5E9027405F0BCFE032329464FF6FF72B1
:101120003046C5E90038C5E902B405F0B1FE4FF418
:101130000C734FF6FF72294601933046019B4FF026
:10114000180BAF60EB60C5E9009805F0A1FE40F216
:101150002B7130462D4D05F0BAFE43F2D2024FF00E
:1011600020432B49284635261A602A4B2C62C5E9B4
:101170000013C5E90247C5E90444C5E9064404F083
:1011800009FA2146284604F0E1FB21462846224D73
:1011900004F002FC342221460DEB020028F0E8FEA8
:1011A0001E4B282040F2152C40F2352EAC862C61C7
:1011B00085F83640C5E900340923C5E905030B234A
:1011C0002846C5E9076340F21B13C5E909C340F28D
:1011D0001D13C5E90244C5E90BE321E01B00000330
:1011E00000ED00E000380240002802405CBC022014
:1011F000A0BC0220002002408CBB02200030024034
:1012000000B00240C06D0120400100A040BB0220A0
:10121000005C0040FFEAC000B0BB02200068014053
:1012200004F066FC4FF48873FF214FF4F0722846F7
:1012300018930D94ADF864408DF86640CDE9103AEE
:10124000CDE912144FF4806A0521CDE914A14FF0C5
:101250004041CDE90E24CDE9161222460DA904F035
:1012600012FD1A481A4B0462C0E900374FF4A0631C
:10127000C0E90298C0E904B3C0E9064404F06AFE7C
:1012800003F062FA03F0A6F95C2003F067FC00F0BB
:1012900049FB00F072FB06F04BF80E4A21460E485F
:1012A00006F080F80D4B0E4A214618600D4806F0F6
:1012B00079F80D4B0D4A214618600D4806F072F87A
:1012C0000C4B186006F04EF8FEE700BFD4BC0220BD
:1012D000001000A090B30208F10D00083CBB0220F2
:1012E0006CB302087F19000858BC0220B4B302088E
:1012F000E52F00089CBC02200268034B9A4201D1F2
:1013000003F0B6BB704700BF0010004070470000FC
:101310000D4B82B00F216FF001001A6C42F0805229
:101320001A641A6C02F080520092009A5A6C42F4CD
:1013300080425A6400225B6C03F480430193019B5A
:1013400002B003F0CBBB00BF00380240026882B09D
:10135000084B9A420BD1D3F8302803F5006342F4CE
:1013600080521A631B6B03F480530193019B02B0FC
:10137000704700BF003002400E4B07B502689A422A
:1013800015D1A3F5F04305215A201A6B42F400024F
:101390001A6300221B6B03F400030193019B03F00B
:1013A0009DFB5A2003B05DF804EB03F0C9BB03B00A
:1013B0005DF804FB00B0024010B5A8B0044614224A
:1013C000002102A828F0D4FD8422002107A828F0DB
:1013D000CFFD2268184B9A422CD14FF4803307A8D6
:1013E00007930023229305F0ABFA08B1FFF78EFFB5
:1013F000124C4FF4C07201211148236B43F080035B
:101400002363236B03F080030093009B1223CDE939
:1014100002230323CDE90413042302A9069303F056
:101420009BFD236C43F400032364236C03F400034B
:101430000193019B28B010BD005C004000380240C1
:10144000001C0240026808B5094B9A420FD1094AB4
:1014500080210948136C23F40003136403F060FE39
:101460004FF480710448BDE8084003F059BE08BD40
:10147000005C004000380240001C024070B5ACB077
:1014800004461422002106A828F072FD84220021BF
:101490000BA828F06DFD2268494B9A4240F08E80DF
:1014A0000823052001250B934FF4C07310930223EA
:1014B000CDE9113000230BA813934FF40033CDE98D
:1014C000155305F03DFA08B1FFF720FF3D4B00240E
:1014D00002250E265A6C06A93B4842F080625A64E7
:1014E0005A6C02F080620092009A1A6B42F010026D
:1014F0001A631A6B02F010020192019A1A6B42F4FD
:1015000000721A631A6B02F400720292029A1A6B4A
:1015100042F480621A631A6B02F480620392039AA7
:101520001A6B42F040021A631A6B02F040020492F6
:10153000049A1A6B42F480721A631B6B03F4807373
:101540000593059B1023CDE90635CDE908440A969D
:1015500003F002FD4EF6FF7306A91C480A96CDE97A
:101560000635CDE9084403F0F7FCF72306A918482F
:101570000A96CDE90635CDE9084403F0EDFC4FF4B9
:10158000805306A91348CDE906350923CDE908445F
:101590000A9303F0E1FC4FF4464306A90E480A966D
:1015A000CDE90635CDE9084403F0D6FC58202246A3
:1015B000052103F093FA582003F0C2FA2CB070BD55
:1015C0000068014000380240001002400024024040
:1015D000002802400018024000200240142200218E
:1015E0002DE9F0418AB004460DEB020028F0C0FC62
:1015F00022682C4B9A4252D12B4B02260025032401
:101600009A6B09274FF0040805A942F00202274807
:101610009A639A6B02F002020192019A1A6B42F0ED
:1016200010021A631A6B02F010020292029A1A6BED
:1016300042F002021A631A6B02F002020392039A4A
:101640001A6B42F008021A631B6B099703F0080338
:101650000493049BCDE90586CDE9075403F07CFC97
:10166000402305A91248CDE905360A23CDE90754E0
:10167000099303F071FC05A90D480997CDE905868A
:10168000CDE9075403F068FC4FF4605305A90948FD
:101690000997CDE90536CDE9075403F05DFC0AB0A2
:1016A000BDE8F081001000A00038024000100240A8
:1016B00000040240000C0240026808B50B4B9A423D
:1016C00013D10B4A04210B48936B23F0020393635D
:1016D00003F026FD4421084803F022FD4FF4605139
:1016E0000648BDE8084003F01BBD08BD001000A07F
:1016F000003802400010024000040240000C02408A
:101700002B4BF0B51C6887B0002C4ED1012202276C
:1017100003260C251A6001A9264B27489A6B42F034
:1017200001029A639B6B039403F001030093009BF7
:101730004FF68373CDE90465CDE9013703F00CFC66
:1017400048F2331301A91D480595CDE90137CDE9CC
:10175000034603F001FC4CF2037301A918480595F8
:10176000CDE90137CDE9034603F0F6FB4FF63F0321
:1017700001A914480595CDE90137CDE9034603F0E9
:10178000EBFB282301A910480595CDE90137CDE9E8
:10179000034603F0E1FB082301A90C480595CDE9B8
:1017A0000137CDE9034603F0D7FB07B0F0BD00BF1A
:1017B000D06D0120003802400010024000180240A5
:1017C000000C024000140240001C024000080240CD
:1017D00010B5014688B00022362003F07FF936208C
:1017E00003F0AEF9144B01A903A81A6C134C42F094
:1017F00010021A641B6C03F010030293029B05F0A5
:1018000081F805F06FF80E4B4000236040F2E7339B
:10181000E3600C4BB0FBF3F001380023606020461E
:101820002361A36005F0C4FC20B9204605F068FBE5
:1018300008B010BD0120FBE70038024020BD0220A7
:101840000010004040420F007047FEE7FEE7FEE751
:10185000FEE77047014805F095BB00BF20BD0220A0
:10186000014804F0B3B900BFB0BB0220014803F047
:10187000A0BA00BF5CBC02200120704708B528F068
:1018800019FB162303604FF0FF3008BD08B528F0A0
:1018900011FB16230360FEE770B50E4614460025C3
:1018A000A54201DB204670BDAFF3008070550135C5
:1018B000F6E770B50E4614460025A54201DB20462A
:1018C00070BD705D0135AFF30080F6E74FF0FF307B
:1018D00070474FF4005300204B6070470120704761
:1018E000002070470B4B0246196810B509B90A4928
:1018F0001960186809490A4C0244091B8A4206D932
:1019000028F0D8FA0C2303604FF0FF3010BD1A60A6
:10191000FCE700BFD46D012010BE022000000520AE
:10192000000A000070470000DFF834D0002103E017
:101930000C4B5B58435004310B480C4B42189A42F5
:10194000F6D30B4A02E0002342F8043B094B9A42CB
:10195000F9D302F091FF28F0C5FAFFF79BFA704720
:1019600000000520BC210308000000202401002005
:10197000A46D01200CBE0220FEE700F0D1BF01F0F3
:101980003FB840687047416070470000094A1368DB
:1019900043F080731360A2F54E42074B52F84C1C83
:1019A0004C3A0B431360A2F57B62136843F00103CA
:1019B00013607047FCED00E055CEACC5511A01EB49
:1019C0005301B1FBF3F07047014B1868704700BF3B
:1019D000041000E0704710B504460C2128F00AFA04
:1019E000204610BD036810B51B69044631B1984705
:1019F000A26863689B1A1844606010BD9847A06095
:101A0000FBE70000024B7020024A1360DB681847B6
:101A100010000020D86D0120704710B50446042145
:101A200028F0E8F9204610BD37B50A4D0C462B6862
:101A300013B9002003B030BD1B6970200192984794
:101A400001990028F5D02B68702022465B699847E1
:101A50000120EFE7D86D01207FB501238DF8172015
:101A60004FF47A72CDE901320DF1170200920A4665
:101A70000146054803F0F8FD10B1034803F0DBFD13
:101A800007B05DF804FB00BF40BB02207FB5002318
:101A90000A464FF47A718DF817300123CDE90131F0
:101AA0000DF1170100910146054803F093FE10B1B6
:101AB000034803F0C0FD9DF8170007B05DF804FB74
:101AC00040BB0220704770477047012380F87410B4
:101AD00080F8753070470020704700207047836B96
:101AE0000BB10846184770474FF6FF7070474068C3
:101AF00003689B691847704738B5044601F058F8E9
:101B00000A4A4FF0404123682046D3F88450084BDE
:101B1000A8470023074D84F84A302846FFF736FFD0
:101B20000123256184F86C3038BD00BF00FC03C080
:101B300000F807C0DC6D012008B531B90A4B4FF43D
:101B40002B710A4A0A4828F083F9C0E90F12003ABB
:101B50000849436418BF0122003B0A7018BF0123E3
:101B6000054A137008BD00BF18B4020850B402083B
:101B70009EB402089EB802209FB8022008B5094B07
:101B80001B888B4203D8084B1B88934205D9074B0F
:101B90009E21074A074828F05BF9074B1980074B3D
:101BA0001A8008BD94B8022096B80220E3B4020857
:101BB00046B502089EB402089AB802209CB80220DA
:101BC00000F0D6BF00F0DABF70B501F07FF8104A20
:101BD0000023C2F88430BFF34F8FD2F8803043F631
:101BE000E074C3F3C900C3F34E335B0103EA040698
:101BF000014646EA81750139C2F87452F9D2203B98
:101C000013F1200FF2D1BFF34F8FBFF36F8F70BD71
:101C100000ED00E001F068B800F086BF01F01AB9ED
:101C200001F022B900F08ABF10B5044616F0C2FBDD
:101C300023682046D3F8A430BDE81040184715F0BB
:101C400063BD10B504467C2128F0D4F8204610BDB1
:101C500090F877301BB1406803681B681847184636
:101C60007047000090F834100D4B10B590F8744098
:101C70001A788C4209D03AB90A490B4A0888148864
:101C8000108001220C801A7010BD002AFCD0064A78
:101C90000449148808880C8010800022F3E700BFF4
:101CA00098B8022096B8022094B80220014608B5E0
:101CB000034B186801B1012116F096FB012008BD05
:101CC000A0B80220034B00225A609A60024A1A60B0
:101CD000704700BFDC6D0120E0B302080121002243
:101CE00008B5084605F06AFC0A4B186028B90A4B8B
:101CF00028210A4A0A4828F0ABF8002204210120D2
:101D000005F022FD074B186018B9074B2C21034A38
:101D1000F0E708BDEC6D01205CB60208A5B602082C
:101D2000D4B60208E86D01203BB70208024B4FF021
:101D3000FF31186805F098BCEC6D0120014B186864
:101D400005F0CCBCEC6D0120024B0021186805F0B9
:101D50008BBC00BFEC6D0120FFF7F0BF00230348F0
:101D600003491A46006805F035BD00BFE86D012043
:101D70000400002013B50023074C01A91A4620686F
:101D800005F06AFD4FF0FF33002201A9206805F03D
:101D900063FD02B010BD00BFE86D012003685B6CFD
:101DA00018470120704703689B6A18470D4B82B0A3
:101DB0001A6B42F400021A631A6B02F400020192D9
:101DC000019A1A6942F400021A611A6922F40002A7
:101DD0001A61054B054A1A614FF08062044B9A6004
:101DE00002B07047003802405CBC0220FD1D0008B4
:101DF00000E100E040F2EF3070470000024B1B684A
:101E0000586803685B691847A0B8022008B50B281A
:101E10000BD8DFE800F01206100A0A0A0A080808C0
:101E20000808012008BD0520FCE7054B6621054A8E
:101E3000054828F00DF80020F4E70220F2E700BF83
:101E40007DB7020898B70208E2B7020808B50A2869
:101E500009D8DFE800F010060E0808080806060694
:101E60000600012008BD054B8721054A054827F0DB
:101E7000EFFF0020F6E70220F4E700BF7DB702087D
:101E800047B80208E2B702082DE9F84391F81D802F
:101E90000C464046FFF7BAFFA77F05463846FFF7D6
:101EA000B5FF06463846FFF7D1FFA18A628B4B4B40
:101EB000521A9E461A649A61228B521A1A61E28A59
:101EC000586342EA014221695A646268D963DA6060
:101ED000D4F800C094F81C90BCF1800F4FEA09625E
:101EE00030D014D8BCF1200F45EA020069D0BCF113
:101EF000400F66D0BCF1040F20D02A43374BB845C1
:101F000042F40032DA6148D140F2012214E0BCF51B
:101F1000807F07D0BCF5007FEFD142F4003242F061
:101F2000090203E042F4003242F00A02DA61E26898
:101F30001A625E6259612A4A1A604DE040F400302C
:101F4000D861F6E7A0682A43041D42F40032DC623F
:101F5000DA6102785E62596142B1012A1FD0214BD9
:101F600040F21111204A214827F072FF42880124D3
:101F7000D969501E21F47F4222F0100242EA002269
:101F8000DA61164BDA6942F02002DA61DA69920608
:101F9000FCD410229A60002CCDD1154ACCE742889F
:101FA000B9F1FF04D96902F1FF3018BF012421F40F
:101FB0007F4222F0100242EA002242F01002DA616F
:101FC000DFE740F40030064BCEF81C00CEF824606A
:101FD000CEF81410CEF80030BDE8F88300B002400F
:101FE0000102020092B80208ACB80208E2B7020887
:101FF0000102010038B50C46887FFFF727FF174B19
:10200000A58AE18A628B41EA05415863521B5964F3
:102010002169D9631A642568082D0ED19A611A6165
:1020200058620F4A207F42EA0062DA61E2681A626F
:102030000C4A5961D9601A6038BD0022D8611A6112
:10204000E1680A0A4809C1F3C40102F4784200F4C5
:10205000FC6002430A439A63034AECE700B0024083
:10206000090001000102020001020300054B4FF0CC
:1020700080620360044BC3F88820BFF34F8FBFF327
:102080006F8F7047F4B8020800E100E010B5044615
:10209000FFF7ECFF4FF44261204627F0ABFE2046ED
:1020A00010BD000070B504460A4B0C3000262546D2
:1020B000602260602672667245F8203B294616F061
:1020C000FBFA04F54263EE602035AB42FBD12046BB
:1020D00070BD00BFF4B802084069704790F8440032
:1020E0007047036B23B9C06A003818BF01207047DE
:1020F0000120704780687047043010B50C460FC847
:1021000084E80F0010BD704708B5034A4FF4F4711E
:10211000024B034827F09CFE3CB90208AA150308AD
:1021200097B9020810B50446482127F063FE2046FF
:1021300010BD00002DE9F0431C46436BADF51F7D3B
:1021400005460E461746002B52D0002203A8DFF8A2
:10215000A890CDE901320DF017FD4FF4F472502133
:10216000249024A807F021FC3A46314624A808F020
:10217000BBFB012124A807F021FD022324A88DF830
:10218000D83007F0BFFDBDF898622B9BBDF89C725C
:102190009E4228BF1E46419B9F4206EB460828BF31
:1021A0001F46A89BA3EB4606479B9F421AD90122D4
:1021B00001A924A807F0EFFD6B6B03EB0800984220
:1021C0000ED959789A78C90009EA022201F4FC6113
:1021D0000A4313F8031B42EAD10224F8022BEEE76C
:1021E0003444E1E724A807F00BFD24A807F02AFCFB
:1021F0000DF51F7DBDE8F08300F8FFFF0A4A02607D
:102200000022C0E90522C0E90722C0E90922C0E98D
:102210000B22C0E90D12C0E90F2280F84420C0E96A
:102220000322C0E90122704790BC020820B40D4689
:1022300011461A46036B3BB1036C806BED1A2844C0
:102240005DF8045B28F0A8BAC06AF8E7036B10B524
:1022500073B1036C826BC91A5318525C98785C781E
:102260000004DB7840EA0420104340EA036010BD1C
:10227000C36A5858FBE7036B43B1036CC91A836BFD
:102280005A18585C527840EA02207047C36A585A7C
:102290007047000070B50446006B0D461646D8B175
:1022A000E36B934208D209230D4A53210D4884F869
:1022B00044300D4B27F0CCFD0368DB689847206B5A
:1022C0003246A16B03681B69984710B90D2384F847
:1022D0004430A06B256470BDE06A0844FBE700BF92
:1022E0001BBA020897B9020808BA02082DE9F84398
:1022F000436904462BB9224B9821224A224827F0F1
:10230000A7FD08228169FFF7C5FFA169204643F2B6
:102310003007043146F26436FFF798FF0546A1699D
:10232000A36A0D4405F108029A4222D26369093575
:102330000822204625F001010133A1616361FFF706
:10234000A9FFD4F8188020464146FFF794FF814644
:1023500008F104012046FFF779FFB9450546DED1B3
:1023600008F102012046FFF786FFB042D7D10120D5
:1023700004E0012300206361236AA361BDE8F883C0
:102380005DBA0208A6BA020897B902082DE9F04F13
:102390000446ADF51F7D8A46174681690822984696
:1023A000FFF778FFA6692046311DFFF74FFF06F1C2
:1023B0000801024605462046FFF76CFF636B0646A0
:1023C00033B93C4B40F28D113B4A3C4827F040FD6D
:1023D000002203A8CDE901320DF0D6FB4FF4F472D0
:1023E0005021249024A807F0E0FA2A46314624A878
:1023F00008F07AFA012124A807F0E0FB022324A8C0
:102400008DF8D83007F07EFCBAF90250479BAB42FA
:1024100005D2012201A924A807F0BDFCF6E7BAF90C
:1024200000904FEA4808BAF804602B9B08FB057738
:102430004E44BAF80250DFF888B036B29E4228BF48
:102440001E46BAF8063009EB490A1D44419B2DB2DD
:102450009D4228BF1D46479BAB421FD2012201A9C6
:1024600024A807F098FC636B4A465344B24203F138
:10247000030311D213F8020C13F8011CC0000BEA7D
:10248000012100F4FC60014313F8030C41EAD00180
:1024900027F812100132E9E74744DCE724A807F0E7
:1024A000AFFB24A807F0CEFA01200DF51F7DBDE893
:1024B000F08F00BFD9BA02082FBB020897B90208F3
:1024C00000F8FFFF0129036838BF0121DB6A70B5FE
:1024D0000D4604469847A84204D223682046DB6A8A
:1024E000984705466B1EE6691022204606EB031648
:1024F00006F10801FFF7CEFE06F110012046FFF7B6
:10250000A5FE236A043B0344C4E9055370BD0000E3
:102510002DE9F341002104464822816180F84410EE
:10252000FFF7B8FEA7690423624A39462046FFF741
:102530007DFE40B10323604AE02184F844305F4BC4
:102540005F4827F085FC07F1080104235D4A204617
:10255000A161FFF76BFE30B10423574AE82184F8EC
:102560004430594BECE707F10C010423574A20464D
:10257000A161FFF75BFE064630B105234E4AEF210D
:1025800084F84430524BDBE707F110012046FFF797
:102590005DFE054618B94F4BF521474AD0E707F1D4
:1025A000140804234C4A20464146FFF73FFE00280A
:1025B0004BD0062384F844300423484A07F118011D
:1025C0002046FFF733FE002841D0072384F844302B
:1025D0004544434F0C2220462946FFF75BFE05F198
:1025E000080604233A4620463146FFF71FFE94F8BA
:1025F000443000284AD0002B4AD1A36A291DAB429F
:102600004AD805F10C03291D2046A3610191FFF76B
:102610001DFE3044019960622046FFF717FE064414
:10262000042220463146FFF735FE04232D4A314669
:102630002046FFF7FBFD002839D10123E6616361E5
:10264000A369236202B0BDE8F0810126B4E7002E41
:10265000BED007F120012046FFF7F8FD4FF47A7352
:1026600007F13001B0FBF3F060602046FFF7EEFDAC
:1026700007F14001A0602046FFF7E8FD07F14401A3
:10268000E0602046FFF7E2FD2061A1E7002BB8D013
:102690000A2384F84430D5E72046FFF7D7FD0830F9
:1026A0000C22054420462946FFF7F4FD97E70B234B
:1026B000EFE700BF89BB0208A7BB02088EBB020878
:1026C00097B90208D4BB0208D9BB0208F1BB0208C3
:1026D000F6BB02080CBC020818BC02081DBC0208AC
:1026E00022BC020827BC0208C0E90A2100220263BA
:1026F000FFF70EBF10B5002304460846E3620B68DF
:1027000021639B689847A0622046BDE81040FFF710
:10271000FFBE70B4BDF80C50BDF810602AB123B1F3
:10272000CDE9035670BCFFF705BD70BC70470000D3
:102730002DE9FF479946436904460F4690462BB959
:102740002A4B65212A4A2B4827F082FB08228169FF
:10275000FFF7A0FDA669204606F1080A311DFFF724
:1027600075FDA36A00EB0A0205469A4231D2314652
:102770002046FFF780FD43F2300398421DD1B11C83
:102780002046FFF778FD46F26433984215D1A5B193
:102790002A4651462046C4F818A0FFF77BFD0C9B43
:1027A00001462A462046CDF80080CDE901933B46FC
:1027B000FFF7AFFF636901336361A3692B448DB1F8
:1027C000A361A369626A013323F001039342A36109
:1027D0000AD10120236A6061A36180F0010004B086
:1027E000BDE8F0870833EBE70020F6E75DBA0208A2
:1027F0002CBC020897B90208012070470C207047D2
:102800000C2303FB0100083070470C2303FB01007D
:10281000083070470120704740F24450704740F242
:10282000445303FB01000830704740F2445303FB5C
:10283000010008307047012070471020704700EBFE
:1028400001100830704700EB01100830704708464F
:1028500000F0D6BC034B10B50446036014F086FAB2
:10286000204610BD38BD020810B50446FFF7F2FF40
:102870001421204627F0BEFA204610BD034B10B5A8
:102880000446036014F072FA204610BD04BD02082D
:1028900010B50446FFF7F2FF40F24C51204627F0F6
:1028A000A9FA204610BD0000034B10B50446036092
:1028B00014F05CFA204610BDD0BC020810B50446E6
:1028C000FFF7F2FF1821204627F094FA204610BDAA
:1028D000084B10B50446036000F5AF60FFF7BAFF80
:1028E00004F12C00FFF7CAFF04F11400FFF7DCFF2E
:1028F000204610BD6CBD020808B50248FFF7E8FF8E
:1029000008BD00BFF46D012010B50446FFF7E0FFDD
:102910004FF4DD61204627F06DFA204610BD00001F
:102920002DE9F34100F0AEFB0024054600F0AEFBBC
:10293000234601462246284600941BF0DBF9254B2E
:10294000254A2046254D1A6000F062FF24481BF0FE
:1029500013F92B78BFF35B8FDB0735D4284627F0BC
:102960004BFA88B31F4C204B04F5B26604F11400F7
:1029700004F12C0804F5AF6723606060C4F8088098
:10298000E760266114F0F4F9184B4046636114F0D7
:10299000EFF9174B3846E36214F0EAF9154B04F2ED
:1029A0008C50C4F8783501F04BFD224604F28C516E
:1029B000304601F03BFD304600F022FC284627F06F
:1029C00027FA0D4827F062FA0C4802B0BDE8F04142
:1029D000FFF792B8FCB802207C810120F06D012045
:1029E00008000020F46D01206CBD0208D0BC020874
:1029F00004BD020838BD0208F92800080081012042
:102A0000014814F0E8BE00BF0081012070B5244EDB
:102A1000244B254C3046254D2360FFF743FB2846C9
:102A20001EF03AFA224B00224FF4807121481A8599
:102A300083F82A20DA621A861A6683F86C201A67ED
:102A4000DC60C3E912121C49C3E919124FF080710E
:102A50005967012183F8781018490B604FF4F07121
:102A600001801748C3E90422C3E90622C3E908220A
:102A7000C3E90E22C3E91022C3E91422C3E91622D6
:102A8000C3E9016501804FF488710E4883F8342052
:102A900001800D4801800D490A700D4A1A6070BD11
:102AA000E074012008B40208DC7401208081012058
:102AB0000081012094B8022001000001A0B802208A
:102AC0009AB8022096B802209CB8022098B802203A
:102AD00094B502080148FFF7C9BA00BFE0740120AD
:102AE000104A002370B5C2F88430BFF34F8FD2F87C
:102AF000803043F6E074C3F3C900C3F34E335B0187
:102B000003EA0406014646EA81750139C2F87452A7
:102B1000F9D2203B13F1200FF2D1BFF34F8FBFF357
:102B20006F8F70BD00ED00E0034B902283F85A23B5
:102B300083F85823704700BF00E100E0094A0A49C2
:102B4000D3680A48C3F30A03013B9BB20B801169A7
:102B5000C1F30A01013901801364536B43F001038F
:102B60005363704700680140FA810120F881012019
:102B7000014B986A704700BF84680140024B0122F4
:102B8000996243F8602C704784680140034B5B698D
:102B9000DB0301D5FFF7A4BF704700BF00ED00E0E5
:102BA000704700EB8100114640680368DB681847F6
:102BB00038B5044614F0FDFD23681D6E18F0DAF8F0
:102BC00001462046A8472368084A4FF04041D3F801
:102BD000845020460023A847054B064A5A60064AFF
:102BE000DA625A63054A1A6338BD00BF00FC03C0AD
:102BF000A48501205C85012024010020806C010057
:102C000008B531B1044B4FF4A871044A044827F0C9
:102C10001FF990F8250008BD78BD02088CBD020898
:102C200015BF020810B531B1064B4FF4A571064A25
:102C3000064827F00DF9406811460368BDE81040CA
:102C40001B6B184778BD020858BF020815BF020861
:102C500008B529B1034B6921034A044827F0F8F865
:102C6000C06808BD78BD020805C1020815BF02088A
:102C700010B50C4611461A462CB1064B8021064A67
:102C8000064827F0E5F8C46040680368BDE81040D6
:102C90009B68184778BD0208B9C2020815BF020830
:102CA00008B529B1054B7221054A064827F0D0F82E
:102CB000C0E90411C0E9063208BD00BF78BD0208B2
:102CC00093C4020815BF020814F05ABD08B514F0E9
:102CD00021FD044B5B69DB0303D5BDE80840FFF72A
:102CE000FFBE08BD00ED00E014F07FBE90F8383064
:102CF00010B504463BB14FF0FF31006C04F004FC0A
:102D00004FF48073238710BD38B50D4604464FF04D
:102D1000FF31006C013504F0F7FB206C04F024FC5B
:102D2000002304EB45152B7194F824300BB9E36AAA
:102D3000636338BD10B50446442127F05BF8204694
:102D400010BD000010B5044629B1164B9221164A59
:102D5000164827F07DF8042A15D8DFE802F00311A1
:102D600015171D00406803681B69984758B1012377
:102D700084F8253084F827300023C4E9043302E0C6
:102D8000002380F8253010BD0362F5E7002380F8AA
:102D9000253001230362F6E7003B18BF012380F8CA
:102DA0002830F0E778BD02084EC6020815BF0208B9
:102DB00010B50446104629B1114BB921114A1248E9
:102DC00027F046F894F8253013B163690133636145
:102DD00094F826300BB9012010BDA3680363036883
:102DE0005B699847002394F8270084F82630002870
:102DF000F1D194F82830002BEED184F82500EBE7D0
:102E000078BD020821C8020815BF020810B5104C91
:102E100014F0C2FC94F8253053B1E169D4E90523DC
:102E20005A4323694B439A4224BF012384F8293033
:102E30000123E06B84F8383004F050FC94F839300A
:102E40002BB1206C04F090FB002384F8393010BDC6
:102E5000A4850120034B4FF080629A604FF080728E
:102E60009A60704700E100E0084B4FF08062C3F8C1
:102E70008820BFF34F8FBFF36F8F4FF08072C3F87E
:102E80008820BFF34F8FBFF36F8F704700E100E0E2
:102E900090F8243070B533B1174B4FF4CA71174A0C
:102EA000174826F0D5FF0122456BC36080F8282023
:102EB00080F8242005F5B6320361803243618361D6
:102EC000C361036280F8263080F8273080F829300B
:102ED000D0E90B463444A24203D90A4B42210A4AA4
:102EE000DEE74263D8228560184681F83430CA860E
:102EF0000A870B6370BD00BFC1C90208F1C902088F
:102F000015BF020877CB0208B2CB0208134B144A54
:102F10001B6C11888B4210B5124C13D1124B1988BF
:102F200002F0DEFE226892F86630013382F86630E5
:102F3000FEF714FF206815F03DFA0020BDE81040B0
:102F4000FEF7C0BD02F0CCFE0020FEF7BCFD2068FD
:102F50000368BDE810401B6A184700BF00680140C5
:102F6000FA810120A0B80220F88101202DE9F34167
:102F7000044601264FF4D8774FF0FF31E06B04F0A0
:102F800073FB4FF0FF31206C04F0BEFA94F8293047
:102F900013B3216A656884F8266029B12B68284636
:102FA0005B6A9847002323622B6828460097D3F872
:102FB0001480D823A1681A46C047236984F82700E3
:102FC0000133236160B12B6828469B6A984701381A
:102FD000E060002384F82930206C04F0C5FACBE7C8
:102FE000E660F6E7014808B5FFF7C0FFA4850120B9
:102FF00038B5124900251248FFF700F9114C124B61
:1030000001202A462946236084F82450E58420853F
:1030100065632087C4E90355C4E90555C4E907552C
:10302000C4E90B55C4E90F55C4E9015504F0C6FACB
:10303000E063284604F026FA206438BDFC810120B4
:103040005C850120A48501205CCD0208704710B585
:103050000446042126F0CEFE204610BD012908B505
:1030600006D0022908D059B900F01EFC006808BD3E
:1030700000F01AFC4068FAE700F016FC8068F6E7FA
:103080000020F4E700487047A4CD020808207047EC
:1030900013B5002451B1036801AA01948DF80340CF
:1030A0009C680DF10303A04702B010BD0846FBE782
:1030B000408970478089704780887047837980880D
:1030C000184480B27047C07900F07F007047C07923
:1030D000C0097047704710B50446082126F08AFEE3
:1030E000204610BD704700F596730868496803C311
:1030F0007047704770474160704770470123037203
:1031000070477047704710B441680346C2689B68B7
:10311000541001EB6200D20748BF0A595DF8044B16
:1031200048BFD358184743682BB183682BB9C06890
:1031300000F001007047184670470120704710B535
:1031400004460C2126F056FE204610BD10B504465C
:10315000102126F04FFE204610BD10B504464FF456
:10316000AC7126F047FE204610BD10B517F002FEE8
:103170000368BDE810401B6B184710B50446D0F833
:103180003C0158B10368DB68984738B1D4F83C017A
:1031900003689B6898470023C4F83C3110BD0000C9
:1031A000F8B5044617460E4617F006FE104B0025EC
:1031B00001211C600F4BC4E954760F4E2360306828
:1031C0000E4BC4E95255C4E950350368C4E94E5565
:1031D0009B689847284600F01BFB336893F87620DD
:1031E0000AB1D86C00B998681FF0A1FC2046F8BD60
:1031F000ECB80220A8D20208A0B8022090D202089F
:10320000064BC0F84401C0F848310023C0F84C31E7
:1032100000F5A073C0F83C31704700BF813300084F
:10322000064BC0F84401C0F848310023C0F84C31C7
:1032300000F5A073C0F83C31704700BFE9340008C6
:103240002DE9F84F0746906899468846036814466A
:10325000DDF828A01B6A984740F24353984205D8EE
:10326000414BA321414A424826F0F2FD60680368C1
:103270001B6A98470F2803D83E4BA4213B4AF2E72C
:10328000E06803681B6A98470B2803D83A4BA521CE
:10329000364AE8E717F06EFD17F072FDD9F8000026
:1032A00010B10368DB689847D9F8000010B10368D3
:1032B0001B689847386810B103685B699847D8F86D
:1032C000000010B103685B689847386810B1036864
:1032D0001B689847D8F8000010B103689B689847AE
:1032E000E06800214FF0000B03685B6A9847234BAE
:1032F0000546C0F804B00360594680F808B0A068DD
:1033000003685B6A9847064601F0F8F8606859461A
:1033100003685B6A98470446314601F0D5F8C9F85E
:103320000050C8F800403E60E4B1231DCAF80030E8
:1033300030463368C4F808A0DB68F4639847236814
:1033400020461B6898472946304619F0DFF82B685D
:1033500028461B6998472B6828465B699847204692
:10336000BDE8F88F2346E1E754CE0208E2CE02081A
:10337000EECF020835D00208D8D00208ECD20208FD
:10338000D0F8543107B500F59C710093044BD0F888
:1033900050210448FFF754FF03B05DF804FB00BF61
:1033A000E0B80220DCB802202DE9F84F074690680B
:1033B0009946884603681446DDF828A01B6A98479A
:1033C000B0F5CE7F05D2424BA321424A424826F0B7
:1033D0003FFD606803681B6A98470F2803D83F4B7E
:1033E000A4213C4AF2E7E06803681B6A98470B286F
:1033F00003D83B4BA521374AE8E717F0BBFC17F091
:10340000BFFCD9F8000010B10368DB689847D9F811
:10341000000010B103681B689847386810B1036852
:103420005B699847D8F8000010B103685B6898475B
:10343000386810B103681B689847D8F8000010B1CD
:1034400003689B689847E06800214FF0000B036811
:103450005B6A9847234B0546C0F804B003605946A1
:1034600080F808B0A06803685B6A9847064601F0D8
:1034700013F86068594603685B6A9847044631460A
:1034800000F0F0FFC9F80050C8F800403E60E4B119
:10349000231DCAF8003030463368C4F808A0DB6842
:1034A000F4639847236820461B68984729463046AE
:1034B00019F02CF82B6828461B6998472B6828467A
:1034C0005B6998472046BDE8F88F2346E1E700BFD7
:1034D00054CE02087BD10208EECF020835D0020894
:1034E000D8D00208ECD20208D0F8543107B500F564
:1034F0009C710093044BD0F850210448FFF754FF0F
:1035000003B05DF804FB00BFE0B80220DCB8022085
:10351000006A7047406A704770478B888069DB0A91
:103520000A6850F823001044704710B5C2B1137BED
:10353000B3B1547BD27A240204F4E0641443C26928
:1035400098B202EB840213888B4202D192F90200F6
:1035500010BD05D80138043280B20028F3D1F7E756
:103560000020F5E710B50446282126F043FC20464C
:1035700010BD000030B589B00446BDF85050069526
:10358000BDF84C5005959DF8405004959DF83C5071
:1035900003959DF8385002959DF8345001959DF89B
:1035A0003050009518F012FC064B20462360119B0A
:1035B000A361129BE361159B2362169B636209B0B2
:1035C00030BD00BF10D302087047000030B5154D64
:1035D0008DB02C78BFF35B8F14F001041ED1284608
:1035E00026F00AFCD0B13F2301220F4907930F4B6D
:1035F0000F4806930F4B089403940094CDE90443BD
:103600000423CDE90944CDE901320A23FFF7B2FFD3
:10361000284626F0FDFB084826F038FC04480DB08B
:1036200030BD00BFE885012088040490782103089C
:10363000EC85012084210308C9350008704700008B
:1036400030B5154D8DB02C78BFF35B8F14F00104AD
:103650001FD1284626F0D0FBD8B13F2301220F49C5
:1036600007930F4B0F4806930F4B08940394CDE933
:1036700004430423CDE90944CDE901320093152226
:103680001423FFF777FF284626F0C2FB074826F0F1
:10369000FDFB04480DB030BD148601209804049051
:1036A0007C21030818860120882103083D36000884
:1036B0007047000030B5154D8DB02C78BFF35B8F8F
:1036C00014F001041FD1284626F096FBD8B13F2301
:1036D00004220F4907930F4B0F4806930F4B089492
:1036E0000394CDE904430123CDE90944CDE9012345
:1036F000009310222823FFF73DFF284626F088FB81
:10370000074826F0C3FB04480DB030BD40860120B9
:10371000C005049080210308448601208C21030801
:10372000B136000800207047002070470EB403B582
:1037300003AB002153F8042B019318F07BF902B07E
:103740005DF804EB03B070470CB407B504AB53F855
:10375000042B019318F06EF903B05DF804EB02B08E
:1037600070470000436C10B5044673B3038F2BB948
:10377000184BC021184A194826F06AFBC38E00EB8B
:1037800043035B8C0BB319F031FC238F012B03D85F
:10379000134BC521134AEEE7E28E40F63F10531C4F
:1037A0009BB2092B194688BFA3F10A0104EB410122
:1037B000498C814209D10A2B04EB420228BF002325
:1037C000508C04EB4303588451842046BDE81040DC
:1037D00019F0F0BA60D3020869D3020814D40208C1
:1037E0005ED402086CD4020819F09CBA10B586B0F9
:1037F00002AC84E806001A460AAB21460593019301
:10380000099B0093089B16F02BFE06B010BD00002C
:1038100038B518BB124B13481B681349B3B11A686B
:103820009C681A441C4402605A681A440A600F4B90
:1038300000221A8000F038F8054600F033F80C4BEF
:103840001C600C4B1D600C4B188007E00B4B036099
:103850000B4B0B600B4B1C68002CE8D138BD00BF34
:103860006C860120708601207486012078860120F4
:10387000F0B80220F8B80220F4B802200007049043
:10388000A006049080070490044B1B6853F82100A5
:10389000034B1B6803EB4000704700BF7486012098
:1038A0007086012018207047004870477C860120F0
:1038B00010B5054CFFF7C4FE2060FFF7FBFE60600B
:1038C000FFF784FEA06010BD7C86012000207047B9
:1038D00081807047C1807047018170474181704786
:1038E0007047704770477047704710B4C4880368CA
:1038F000121B84881B6D091B12B25DF8044B09B2C0
:1039000018474FF6FF7383814FF0FF33036213684C
:10391000C3611060704770477047704770477047C9
:1039200090F825201AB190F8242002B11860704751
:1039300070477047704730B444680346C2689B685C
:10394000551004EB6200D20748BF625930BC48BF33
:10395000D358184743682BB183682BB9C06800F06F
:1039600001007047184670470120704710B50446A3
:10397000102126F03FFA204610BD10B504464FF442
:10398000CE7126F037FA204610BD00F5A8708842A7
:1039900008B505D117F0EEF9BDE80840FFF730BCD7
:1039A00008BD036870B50446DB6A1546984723686E
:1039B000204629461B6BBDE87040184770B5044689
:1039C0001D46BDF91060FFF7ECFF2368294620462D
:1039D0005B6B98472368314620469B6BBDE870407F
:1039E00018470000094A4FF4807102600022818468
:1039F000FF21826280F82610C0E90122C0E903227B
:103A0000C0E90522C0E90722704700BF2C06030861
:103A10002DE9F04F04468BB0002518F0CBFB27466C
:103A2000604B04F16C0B04F19806E56304F59279A0
:103A300047F8403B3846FFF7D5FF5846FFF7D2FF1F
:103A4000304613F0EFFA4FF480724FF6FF730DF12A
:103A5000200AA4F8482104F5A878534A5146A4F84E
:103A60004A314846C4F8242184F84C31ADF820305E
:103A7000C4E94A55C4E94C55C4E94E55C4E950550A
:103A800015F05BFB404615F031FB484B2A462946B2
:103A90003846C4E96334464BC4E965354FF4F073E6
:103AA00000934FF48873FFF789FF4FF07F432A4656
:103AB0002946A3664FF4F073584600934FF4887379
:103AC000FFF77CFF3B4B14223046C4F8943032237E
:103AD0004C2100937823FFF771FF30464FF07F4170
:103AE00013F065F9344B5146304608930123ADF885
:103AF000243013F0A8F901233046194613F0D8FA00
:103B000001233046292284F8C73009212B4613F0BF
:103B1000D2FA4C2248460821FFF743FF07235146BB
:103B20004846ADF8203015F008FB40464FF4B4721B
:103B30003321FFF736FF022306AA05A9ADF814309A
:103B400003234046CDF800A0ADF818300623ADF8A9
:103B50001C30ADF8203007AB15F025FA4323201DAB
:103B60003946A4F888310C230390A4F88A3104F56F
:103B7000C673C4F8783113F075FB5946039813F0F7
:103B800071FB3146039813F06DFB4946039813F01F
:103B900069FB0398414613F065FB20460BB0BDE876
:103BA000F08F00BF60D50208DC08030848D5020882
:103BB0008B390008F0F2A2FF4CCE02087047704724
:103BC000704730B444680346C2689B68551004EBE4
:103BD0006200D20748BF625930BC48BFD35818476B
:103BE00043682BB183682BB9C06800F001007047AF
:103BF000184670470120704710B50446102126F082
:103C0000F9F8204610BD10B5044640F2445126F0A4
:103C1000F1F8204610BD00001FB500F1C403994221
:103C200016D1424B00F59F6002930D2302A9ADF817
:103C30000C30019014F04AFF019818F01DF801981B
:103C400014F027FF019818F017F805B05DF804FB91
:103C500000F58673994205D1344B00F59F600293BD
:103C60000E23E3E700F5AA73994205D12F4B00F527
:103C70009F6002930F23D9E700F5CE73994205D1D7
:103C80002A4B00F59F6002931023CFE700F5F273F3
:103C9000994205D1254B00F59F6002931123C5E79A
:103CA00000F50B73994205D1204B00F59F600293FC
:103CB0001223BBE700F51D73994205D11B4B00F59C
:103CC0009F6002931323B1E700F52F73994205D14A
:103CD000164B00F59F6002931423A7E700F541738C
:103CE000994205D1114B00F59F60029315239DE782
:103CF00000F55373994205D10C4B00F59F60029378
:103D0000162393E700F56573994205D1074B00F53B
:103D10009F600293172389E700F57470814294D164
:103D200017F028F8FFF77CFA8FE700BF4CCE0208A7
:103D3000074A02600022C0E90122C0E90322C0E96B
:103D40000522C0E907224FF480728284704700BFC9
:103D5000940C030873B54FF6FF73018F0646994222
:103D600033D01C4B1B682BB91B4BAE211B4A1C4884
:103D700026F06EF81B4A12888A4203D81A4BAF21EC
:103D8000164AF4E713F81120184B1B6853F8225019
:103D9000174B1868FFF778FD2B68014601909B6A66
:103DA000284698472B68044601991B6C284698477B
:103DB00014FB00F42B682846E4B201995B6A98472B
:103DC000044486F8454002B070BD002380F84530B9
:103DD000F9E700BFF0B802208CD50208CED5020862
:103DE000FCD50208F4B8022043D60208F8B8022035
:103DF000FCB802202DE9F04F04460025EC4F4FF4AB
:103E0000F07B04F1980604F1C40A04F5867904F500
:103E1000AA782DED108B8BB018F0CCF92246E54B2B
:103E2000E56342F8403B104608EE902AFFF7DAFDC2
:103E300004F16C0318460EEE903AFFF7D3FD3046BE
:103E4000FFF776FFC4F898705046C4F8C05015F0DC
:103E5000B9FA484615F0B6FA404615F0B3FA04F53B
:103E6000CE73184609EE103A15F0ACFA04F5F27369
:103E7000184609EE903A15F0A5FA04F50B731846AA
:103E80000AEE103A15F09EFA04F51D7318460AEE74
:103E9000903A15F097FA04F52F7318460BEE103A86
:103EA00015F090FA04F5417318460BEE903A15F0B0
:103EB00089FA04F5537318460CEE103A15F082FA9D
:103EC00004F5657318460DEE903A15F00FF904F5F8
:103ED000747318460EEE103A15F008F904F20C430C
:103EE000184608EE103A13F09DF804F5936318464F
:103EF0000CEE903AFFF71CFF04F2C443C4F8987428
:103F00004FF07F471846C4F8C0540FEE103AFFF741
:103F100069FDA94B29462622C4F8F054C4F8C434DC
:103F200004F59F63A4F8F4540DEE103A184626F0F9
:103F30001FF81DEE100AFFF7FBFEA04B2A4629468C
:103F4000C4F8F83418EE900A9D4BCDF800B0C4F8D0
:103F500020354FF6FF73C4F82855A4F824354FF4E4
:103F60007F03A4F83055C4F82C35964BC4F8384577
:103F7000C4F83435944BC4F84055C4F83C354FF47C
:103F80008873FFF71BFD2A4629461EEE900ACDF8DE
:103F900000B04FF48873A7664FF0010BFFF70EFDDA
:103FA0008A4B3046A022C4F894304FF496732421F3
:103FB0000093C823FFF702FD2A4629465046FFF723
:103FC000F0FC08AA07A95046ADF81C50ADF820B087
:103FD00014F0BFFD03235046A4F8FC30FFF7BAFEEF
:103FE00004F2345251463046C4F8EC204FF0050A32
:103FF0000392C4E9407713F035F92A464846462132
:10400000FFF7CFFC08AA07A94846ADF81C50ADF849
:1040100020B014F09EFD04234846A4F84431FFF775
:1040200099FE039A49463046C4F834214FF00909F5
:10403000C4E9527713F016F92A4640468C21FFF75F
:10404000B0FC08AA07A94046ADF81C50ADF820B056
:1040500014F07FFD4046A4F88CA1FFF77BFE039A85
:1040600041463046C4F87C214FF00C08C4E964771F
:1040700013F0F8F8294619EE100A5022FFF791FCC8
:1040800007A908AA19EE100AADF81C50ADF820B027
:1040900014F05FFD4FF0060219EE100AA4F8D421C7
:1040A000FFF758FE039A19EE101A3046C4F8C421DF
:1040B000C4E9767713F0D6F819EE900A502246211B
:1040C000FFF76FFC07A908AA19EE900AADF81C507B
:1040D000ADF820B014F03DFD072219EE900AA4F8C7
:1040E0001C22FFF737FE039A19EE901A3046C4F8E7
:1040F0000C22C4E9887713F0B5F81AEE100A5022A2
:104100008C21FFF74EFC07A908AA1AEE100AADF899
:104110001C50ADF820B014F01CFD08221AEE100A55
:10412000A4F86422FFF716FE039A1AEE101A30461E
:10413000C4F85422C4E99A7713F094F829461AEE89
:10414000900AA022FFF72DFC08AA07A91AEE900AF0
:10415000ADF81C50ADF820B014F0FBFC1AEE900A3C
:10416000A4F8AC92FFF7F6FD039A1AEE901A3046C7
:10417000C4F89C22C4E9AC7713F074F81BEE100A63
:10418000A0224621FFF70DFC07A908AA1BEE100A82
:10419000ADF81C50ADF820B014F0DBFC0A221BEE89
:1041A000100AA4F8F422FFF7D5FD039A10E000BF2F
:1041B00004FD0208B8D60208D007030884050308E6
:1041C0004CCE0208A0D60208193C0008F0F2A2FF6B
:1041D0001BEE101A3046C4F8E422C4E9BE7713F08F
:1041E00041F81BEE900AA0228C21FFF7DAFB07A909
:1041F00008AA1BEE900AADF81C50ADF820B014F0E0
:10420000A8FC0B221BEE900AA4F83C23FFF7A2FDAA
:10421000039A1BEE901A3046C4F82C23C4E9D077D9
:1042200013F020F81CEE100AF0224621FFF7B9FB2C
:1042300008AA07A91CEE100AADF81C50ADF820B072
:1042400014F087FC1CEE100AA4F88483FFF782FDAB
:10425000039A1CEE101A3046C4F87423C4E9E277BE
:1042600013F000F829461DEE900AF022FFF799FBA3
:1042700008AA042305A9009207AA1DEE900AADF82A
:104280001C30ADF82030134606AAADF81450ADF836
:1042900018B014F088FE039A1DEE901A3046A4F868
:1042A000CC83A4F8CE83C4F8BC2312F0DBFF1EEE4F
:1042B000100AF0228C21FFF774FB08AA05A91EEE54
:1042C000100A009207AAADF81450134606AAADF8DA
:1042D00018B0ADF81CA0ADF820A014F064FE039A4D
:1042E0001EEE101AA4F808843046A4F80A844FF091
:1042F0003208C4F8F82312F0B5FF1422782318EE20
:10430000100ACDF800804C21FFF758FB394618EE13
:10431000100A12F04CFD384B08A918EE100A089349
:10432000ADF8245012F08FFD594618EE100A12F025
:10433000BFFE2B46494618EE100A292284F83BB4EA
:1043400012F0B9FE1CEE900ACDF80080C8235A2264
:104350002421FFF733FB2A4629461FEE100ACDF829
:104360000080C823FFF72AFB244B4FF002081FEE02
:10437000101AC4F8EC341CEE900A214BA4F8F48413
:10438000C4F8F03412F06EFF0D221DEE100A062163
:10439000FFF707FB184B08A91DEE100AC4F8287593
:1043A000A4F82C550893ADF8248014F08FFB1DEE73
:1043B000101A1CEE900A12F055FF201D18EE901AEC
:1043C000039012F04FFF1EEE901A039812F04AFF6E
:1043D0003146039812F046FF18EE101A039812F0B7
:1043E00041FF03981CEE901A12F03CFF20460BB0E0
:1043F000BDEC108BBDE8F08F4CCE0208EEF0B9FF9B
:10440000E8D687FF704710B504464FF4AC7125F02D
:10441000F1FC204610BD10B50446D0F8540100F060
:1044200012F82046BDE8104016F078BB10B50446DF
:10443000FEF7B6FE014B2046236010BDECD6020805
:104440000022026070477047704704387047704719
:1044500010B50446102125F0CDFC204610BDA0F17A
:104460000400F5E70022C1608260044A10B502F141
:10447000080420320460426010BD00BF28D7020843
:1044800070477047FFF755BA10B504464FF4CE7128
:1044900025F0B0FC204610BD10B50446FFF7B8FA71
:1044A000014B2046236010BD58D7020870470438DE
:1044B0007047704710B50446102125F09BFC20463C
:1044C00010BDA0F10400F5E70022C1608260044A3B
:1044D00010B502F1080420320460426010BD00BF34
:1044E00084D7020870477047FFF769BB10B50446D0
:1044F00040F2445125F07EFC204610BD10B5044624
:10450000FFF778FC014B2046236010BDB4D70208AA
:1045100000B54FF4807295B04FF0807103460C9255
:1045200005220F9101210692002201910B92139214
:1045300000920B48CDE90312CDE90D22CDE91122FD
:10454000102206A902924FF4800205926A4601F0F9
:10455000ABFD003818BF012015B05DF804FB00BFAB
:104560006CBD022000B54FF4807395B041F28832E3
:1045700017480C93062306A906930023CDE90D33B3
:104580000F930B931393CDE9113301F04AFDE0B97A
:10459000022301224FF4800104900D48CDE900333D
:1045A0001023CDE9023205236A46CDE905134FF009
:1045B000807306A90F9341F2883301F075FD00382E
:1045C00018BF012015B05DF804FB0120FAE700BF19
:1045D0006CBD022000B54FF4807391B04FF0407273
:1045E0000E480893EB2302A902934FF4406309930A
:1045F0004FF4005305930023CDE90A320A220F93AA
:1046000007926A46CDE90D33CDE9003301F09CFDF8
:10461000003818BF012011B05DF804FB6CBD02200A
:10462000454B012145489A6B42F00202F0B59A636E
:104630008DB09A6B09240427002602F00202404D37
:104640000092009A9A6942F002029A619A6922F0F5
:1046500002029A611A6B42F002021A631A6B02F0AC
:1046600002020192019A1A6B42F002021A631A6B5B
:1046700002F002020292029A1A6B42F008021A63D6
:104680001A6B02F008020392039A1A6B42F00802B6
:104690001A631A6B02F008020492049A1A6B42F031
:1046A00010021A631A6B02F010020592059A1A6B37
:1046B00042F008021A6340221B6B03F008030693C2
:1046C000069B0223CDE907230323CDE909130A231F
:1046D00007A90B9300F040FC07A918480797099613
:1046E0000B9400F039FC4FF4006307A928460B94A3
:1046F000079300F031FC4FF4805307A928460B9430
:10470000079300F029FC07A90E4807970B9400F0C7
:1047100023FC4FF4005307A928460B94079300F09D
:104720001BFC32460F215C2000F0D8F95C2000F021
:1047300007FA0DB0F0BD00BF00380240000402408F
:10474000000C024000100240F0B5494C91B0494BBA
:104750002046236001F052FC054610B1012011B043
:10476000F0BD01462046FFF75BFF012604234FF012
:104770008077C4E901631023E36097FAA7F3B3FAE3
:1047800083F32046013B23614FF4A063C4E907553E
:10479000C4E9053501F0DEFB0028DFD14FF4807558
:1047A00066230B9041F28832079002A90F9008957A
:1047B0000293CDE90900CDE90D00204601F031FC5E
:1047C00008B10420CBE7992341F2883202A92046A0
:1047D000029301F026FC0028F3D141F28830FFF764
:1047E00097FE0028EDD18523079041F2883202A977
:1047F000089502930B97CDE90900CDE90C60CDE94E
:104800000E00204601F00DFC0028DAD141F288327A
:104810000DF10701204601F077FD0028D1D1FFF707
:10482000A1FE0028CDD18123F022029392FAA2F2B8
:104830000A219DF80730B2FA82F2204603F00F03F6
:1048400001FA02F202A9134341F288328DF80730CF
:1048500001F0E7FB0028B4D141F288320DF10701E5
:10486000204601F0F5FC00283FF479AFA9E700BF2E
:104870006CBD0220001000A00F490020D1F8883044
:1048800043F47003C1F888300C4B1A6842F00102FF
:104890001A6098601A6822F0847222F480321A60DA
:1048A000074A5A601A6822F480221A60D8604FF0D2
:1048B00000638B60704700BF00ED00E000380240ED
:1048C000103000247047002070470000002337B5E7
:1048D0008DF807300D4B1A780AB901221A7003249B
:1048E000C5B2013CA8212846FDF7D0F814F0FF041A
:1048F0008DF807009DF80730DBB203D19DF8070063
:1049000003B030BD512BECD1F8E700BF8A860120FF
:1049100013B500240221C0B28DF80740FDF7B6F8A8
:104920008DF807009DF8073003F00F038DF807306E
:104930009DF80730052B01D98DF807409DF8072019
:10494000034B9DF807005A7000229A7002B010BD08
:104950008A8601202DE9F74F2F4D164600230F467A
:10496000AC786A788DF80730A2424DD9092C4ED820
:1049700004EB44035B00DBB2191D03F1030B03F1ED
:10498000060A0533C9B25FFA8BFB5FFA8AFA5FFA4F
:1049900083F8C4B2DFF884902046FDF777F88DF8ED
:1049A00007009DF8073059462046A9F80030FDF76A
:1049B0006DF88DF8070051469DF807302046B9F88C
:1049C00000201B0203F4706313433B80A9F80030FE
:1049D000FDF75CF88DF8070041469DF8073020464A
:1049E000A9F80030FDF752F88DF807009DF8073060
:1049F000B9F800201B0203F470631343A9F80030D8
:104A00003380AB780133AB7003B0BDE8F08F9846CC
:104A10009A469B461946BCE78A8601208886012073
:104A20000122A421C0B2FDF717B80022A421C0B210
:104A3000FDF712B8FFF7F9BF70470000024B1A7874
:104A40000AB901221A7070478A860120074A03209A
:104A500008B5136843F48073136000F02DF800204C
:104A6000FCF7B6FEFCF754FC002008BD003C0240F9
:104A7000034A044B11681B780B441360704700BF56
:104A8000B8BD022038000020014B1868704700BFF5
:104A9000B8BD022038B50446FFF7F6FF0546631C93
:104AA0001EBF044B1B78E418FFF7EEFF431BA34225
:104AB000FAD338BD3800002007490302CA6803F45E
:104AC000E06322F4E0621204120C134343F0BF636C
:104AD00043F40033CB60704700ED00E0164B30B577
:104AE000DC68C4F30224C4F10705231D042D28BF8C
:104AF0000425062B4FF0FF338CBF033C002403FA40
:104B000005F5002803FA04F321EA050122EA03026D
:104B100001FA04F141EA02034FEA0313DBB206DBB8
:104B200000F1604000F5614080F8003330BD00F0D6
:104B30000F00024A1354F9E700ED00E014ED00E025
:104B4000002808DB4209012300F01F0003FA00F0EF
:104B5000014B43F82200704700E100E000280DDB24
:104B60004309012200F01F00203302FA00F0044A3A
:104B700042F82300BFF34F8FBFF36F8F704700BF22
:104B800000E100E0BFF35F8F044A536A23F48033EF
:104B900053620022024B5A60704700BF00ED00E0F4
:104BA00090ED00E0064A40F00100064B5860536A61
:104BB00043F480335362BFF34F8FBFF36F8F70475F
:104BC00000ED00E090ED00E04378124A10B59360EC
:104BD0000178D9B14368D360C37A047B1B0643EAEA
:104BE00004730B43817A43EAC143417B43EA814327
:104BF000817B43EA4143C17B43EA0143417A43EA73
:104C00000123017A43EA4103136110BDD1601161B0
:104C1000FBE700BF90ED00E010B5044608B90120A5
:104C200010BD437F03F0FF0213B90277FCF78EFB40
:104C3000022363772379E3B92368134A5A619A6898
:104C400022F018029A6062792368D2B94FF0FF32DD
:104C50001A6100209A68616922F060020A43A16922
:104C60009A609A6822F080020A439A60012363776F
:104C7000D6E7D4E90212204600F008F80028E2D076
:104C8000CDE72269E4E700BFB71DC1041F2310B5BB
:104C9000013B06D321FA03F4E407F9D5082A14D01E
:104CA00002D83AB101200DE0102A0CD0182AF9D10F
:104CB000062BF7D800684161836823F018031A4374
:104CC0008260002010BD072BF3E70F2BF1E770B5D2
:104CD0000446866DFFF7D8FE054694F83530022B62
:104CE00006D0802301206365002384F8343070BD32
:104CF00023681A6822F016021A605A6922F08002AC
:104D00005A61226C0AB9A26C1AB11A6822F0080220
:104D10001A601A6822F001021A6023681B6813F0F7
:104D200001030AD1E16D3F2218468A40B260012298
:104D300084F8343084F83520D9E7FFF7A5FE401B0E
:104D40000528EAD9202303206365002384F8350071
:104D500084F83430CBE710B5044630B390F83930DE
:104D600003F0FF021BB980F83820FCF705FB22682E
:104D700002236168002084F83930136823F440333B
:104D80000B43A1681360536B23F007030B43E168E7
:104D90005363136C23F47F5323F03F030B431364DB
:104DA0000123E06384F8393010BD0120FCE770472F
:104DB0007047036870B55E6804461D68F20714D535
:104DC000E90512D51A6822F480721A60C26B42F0AB
:104DD0000102C26301229A60042380F83930002363
:104DE00080F83830436903B19847B20616D5AB0452
:104DF00014D523681A6822F400521A6020229A609F
:104E0000E36B43F00203E363042384F839300023A7
:104E100084F8383063690BB120469847300716D5BF
:104E2000290514D523681A6822F400621A60082242
:104E30009A60E36B43F00403E363042384F839309E
:104E4000002384F8383063690BB120469847720715
:104E50000BD56B0509D5236820461A6822F48062B9
:104E60001A6004229A60FFF7A2FFB00714D5A905C3
:104E700012D523681A6822F400721A6002229A601E
:104E8000E36BE363012384F83930002384F838307E
:104E900023690BB120469847F20613D5EB0411D5D0
:104EA000236820461A6822F480521A6010229A6001
:104EB000E36BE363012384F83930002384F838304E
:104EC000FFF776FF70BD0000F0B590F83830012B89
:104ED0004FF002032BD080F83930012200EB011390
:104EE0001C4F80F838200E015D6AD3E9074244EA7E
:104EF0000242093C012C96BF05F07F4342EA05625D
:104F00001A430368A9B9596A012C01EA070142EA68
:104F100001025A6282699A6103D8426A22F07F4292
:104F20009A62012380F83930002380F8383018461F
:104F3000F0BDD969012C01EA070142EA0102DA61F8
:104F400000EB060292691A61EBD825F07F451D62DD
:104F5000E7E700BFF0FFFC002DE9F74F0023DFF883
:104F6000BC916C4A01240D689C4004EA050CAC43DA
:104F700040F0B6804D684FEA4308032605F003046D
:104F800006FA08F6671EF643012F34D8876807EA49
:104F9000060ECF6807FA08F747EA0E0787604768EA
:104FA00027EA0C0EC5F300179F4047EA0E0747603B
:104FB000C768022C07EA060E8F6807FA08F747EA67
:104FC0000E07C76019D14FEAD30A03F0070B4FF061
:104FD0000F0E00EB8A0A4FEA8B0BDAF820700EFAFC
:104FE0000BFE27EA0E0E0F6907FA0BF747EA0E07CA
:104FF000CAF8207001E0032CDAD1076804FA08F43B
:1050000015F4403F06EA070646EA0406066067D044
:10501000D9F8444023F0030603F003074FF00F0EC6
:1050200044F4804406F18046BF00C9F8444006F5C8
:105030009C36D9F8444004F480440194019C0EFA53
:1050400007F4D6F8088028EA040E334CA0424ED06C
:1050500004F58064A0424CD004F58064A0424AD09C
:1050600004F58064A04248D004F58064A04246D094
:1050700004F58064A04244D004F58064A04242D08C
:1050800004F58064A04240D004F58064A0423ED084
:1050900004F58064A0420CBF09240A24BC40EF023E
:1050A00044EA0E04B4606FEA0C06946854BF3440BE
:1050B0004CEA0404AF029460D46854BF34404CEA14
:1050C0000404AF03D460546854BF34404CEA040471
:1050D000ED035460146854BF34404CEA0404146077
:1050E0000133102B7FF43EAF03B0BDE8F08F0024F6
:1050F000D4E70124D2E70224D0E70324CEE7042436
:10510000CCE70524CAE70624C8E70724C6E7082435
:10511000C4E700BF003C01400000024000380240EC
:105120002DE9F04F00224A4CDFF82C91DFF82CA13A
:10513000DFF82CB1012303FA02FE3EEA01030EEA76
:1051400001076ED122F0030502F0030C0F26414B3C
:1051500005F180454FEA8C0C984205F59C3506FA1E
:105160000CF6D5F8088006EA08085FD003F58063DE
:1051700098425DD003F5806398425BD003F580636D
:10518000984259D003F58063984257D0484557D08C
:10519000504557D0584557D003F58053984255D0C5
:1051A00003F5806398420CBF09230A2303FA0CF32A
:1051B000434513D1236823EA07032360636823EA86
:1051C00007036360E36823EA0703E360A36823EA55
:1051D0000707A760AB6823EA0606AE600326530004
:1051E000056802F0070C06FA03F30F274FEA8C0C50
:1051F00025EA030507FA0CF7056022FA06F500EB2D
:1052000085052E6A26EA07072F62C56825EA030589
:10521000C560456825EA0E054560856825EA0303F3
:1052200083600132102A85D1BDE8F08F0023BDE7ED
:105230000123BBE70223B9E70323B7E70423B5E75C
:105240000523B3E70623B1E70723AFE70823ADE75C
:10525000003C0140000002400014024000180240DF
:10526000001C02400AB1816170470904FBE7036832
:105270009A69910701D500229A629A69D20703D4EC
:105280009A6942F001029A617047000030B5039DAF
:10529000C1F3090104682B43606843EA0243054AED
:1052A0000B4342EA555223F0004320EA0200034335
:1052B000636030BDFF63FF032DE9F84303680446D4
:1052C000884617469D6915F0100579D010220026F2
:1052D0004FF02009DA6123689A69950636D40EB139
:1052E000042539E0B8F1FF3FF6D0FFF7CDFBC01B36
:1052F000404502D8B8F1000FEDD12368596894F801
:1053000042209869D2B200040AD5490408D4202A60
:1053100006D05A6842F480425A60FFF7B5FB074650
:1053200023689D6915F02005D5D1FFF7ADFBC01BA3
:105330001928F5D9636C012684F8405043F0200306
:10534000636484F8419084F84250E9E7002EC7D1A5
:10535000202204250126DA6123689A69D00505D543
:105360004FF4807145F001050126D961510505D53D
:105370004FF4806145F008050126D961920521D5D9
:105380004FF4007245F00205DA6120460126FFF76E
:105390006EFF2268536823F0FF7323F48B3323F4EA
:1053A000FF7323F001035360636C1D432023656486
:1053B00084F84130002384F8423084F8403003E020
:1053C0002E46C9E7002EE0D13046BDE8F88370B51F
:1053D00004460D46164623689B699B0701D50020AD
:1053E00070BD324629462046FFF766FFA0B96A1C09
:1053F000F1D0FFF749FB801BA84201D8002DEAD16C
:10540000636C43F020036364202384F8413000235D
:1054100084F8423084F840300120E1E770B504465A
:105420000D46164623689B699B0601D5002070BD7A
:10543000324629462046FFF73FFF90B9FFF724FB8D
:10544000801BA84201D8002DECD1636C43F02003EF
:105450006364202384F84130002384F8423084F8C8
:1054600040300120E3E72DE9F041069F04468846DD
:1054700016461D462268936938EA03030CBF0123D0
:105480000023B34201D0002015E06B1CF3D0FFF7DE
:10549000FBFAC01BA84201D8002DEBD1636C0120A0
:1054A00043F020036364202384F84130002384F810
:1054B000423084F84030BDE8F08100002DE9F3412E
:1054C0001E46184B054614460093F2B24FF0807307
:1054D000DDE90878FFF7DAFE284642463946FFF74D
:1054E00076FF18B1012002B0BDE8F081012E2B68D3
:1054F0000DD1E4B20022802128469C623B46CDF8C3
:105500000080FFF7B0FF003818BF0120EBE7220A48
:10551000394628469A624246FFF759FF0028E1D1F2
:105520002B68E6E7002000802DE9F3411E46184B6A
:10553000054614460093F2B20023DDE90878FFF730
:10554000A5FE284642463946FFF741FF18B1012023
:1055500002B0BDE8F081012E2B680DD1E4B200222B
:10556000402128469C623B46CDF80080FFF77BFF38
:10557000003818BF0120EBE7220A394628469A6214
:105580004246FFF724FF0028E1D12B68E6E700BF81
:105590000020008010B5044600284AD090F8413021
:1055A00003F0FF021BB980F84020FBF705FF24231E
:1055B00084F8413023681A6822F001021A60626898
:1055C00022F070621A619A6822F400429A60D4E96B
:1055D0000221012924D142F400429A605A68002035
:1055E00042F0007242F400425A60DA6822F400424B
:1055F000DA60D4E904210A43A16942EA0122DA60AF
:10560000D4E907210A431A601A6842F001021A60BD
:105610002023606484F84130206384F8420010BD88
:1056200042F4044202299A60D8D14FF400625A60D1
:10563000D4E70120F3E710B5044698B102682423AB
:1056400080F84130136823F001031360FBF7FAFE82
:105650000020606484F8400084F84100206384F8EE
:10566000420010BD0120FCE72DE9F04F85B09B46BC
:1056700004460F46BDF83C309246DDF84090039357
:1056800090F84130202B40F0A3800E9B0BB1039B80
:1056900033B94FF400736364012005B0BDE8F08FA7
:1056A00090F84030012B00F09380012580F84050A5
:1056B000FFF7EAF91923009006462A464FF4004105
:1056C0002046FFF7D0FE80460028E5D12123606305
:1056D0005246394684F84130402384F842300E9BCC
:1056E000606420466362039BCDE9009663855B4658
:1056F000FFF7E4FE10B184F84080CDE7638D9BB2E4
:10570000FF2B55D9FF224FF0807300902285394638
:105710002046FFF7BBFD324649462046FFF757FEBD
:105720000028B9D1636A226813F8011B9162636291
:10573000638D228D013B013A9BB292B26385638DEA
:1057400022859BB2ABB1A2B94B4680212046009680
:10575000FFF789FE00289FD1638D9BB2FF2B2FD9C5
:10576000FF224FF080730090228539462046FFF7D4
:105770008DFD638D9BB2002BCDD13246494620462C
:10578000FFF74CFE002887D123682021D9615A6891
:1057900022F0FF7222F48B3222F4FF7222F0010217
:1057A0005A6084F8411084F8400084F8420074E79D
:1057B000628D4FF00073009092B22285D2B2A6E7BC
:1057C000628D4FF00073009092B22285D2B2CCE786
:1057D000022062E72DE9F04F85B09B4604460F4654
:1057E000BDF83C309246DDF84090039390F841308C
:1057F000202B40F0A7800E9B0BB1039B33B94FF4D5
:1058000000736364012005B0BDE8F08F90F840306C
:10581000012B00F09780012580F84050FFF734F904
:105820001923009006462A464FF400412046FFF710
:105830001AFE80460028E5D122236063524639468D
:1058400084F84130402384F842300E9B6064204647
:105850006362039BCDE9009663855B46FFF764FEB8
:1058600010B184F84080CDE7638D9BB2FF2B364B9F
:1058700058D9FF2200934FF0807322853946204685
:10588000FFF704FD4B460022042120460096FFF757
:10589000EAFD0028B6D123685A6A636A1A70636AFF
:1058A000228D0133013A6362638D92B2013B2285FE
:1058B0009BB26385638D9BB2ABB1A2B94B4680218D
:1058C00020460096FFF7CFFD00289BD1638D9BB249
:1058D000FF2B2FD9FF224FF080730090228539468D
:1058E0002046FFF7D3FC638D9BB2002BCAD1324612
:1058F00049462046FFF792FD002883D123682021E6
:10590000D9615A6822F0FF7222F48B3222F4FF72BE
:1059100022F001025A6084F8411084F8400084F8B3
:10592000420070E7628D00934FF0007392B22285BF
:10593000D2B2A3E7628D4FF00073009092B222853D
:10594000D2B2CCE702205EE70024008010B590F8C8
:105950004130202BDCB21DD190F84030012B19D002
:10596000242380F8413003681A6822F001021A608B
:105970001A6822F480521A601A68114319601A6872
:1059800042F001021A60002380F8414080F8403064
:10599000184610BD0220FCE710B590F84130202BCE
:1059A000DCB21CD190F84030012B18D0242380F8B1
:1059B000413003681A6822F001021A601A6822F462
:1059C000706242EA012119601A6842F001021A600D
:1059D000002380F8414080F84030184610BD022076
:1059E000FCE7D201D1F800C02DE9F043843204680D
:1059F0004F680CF10106A318E5684FF0000ED1F8CE
:105A000018905868C5F30B4500F470403D44586049
:105A1000E068C0F30B40304440EA0540CD68586070
:105A2000E068C0F30A000544986800F4704098608C
:105A30008868E6680130C6F30A0630440E6940EA19
:105A400005409860186920F0070018611E619D6983
:105A500091F8320091F83180C3F818E091F8305095
:105A600045EA096545EA082545EA00459D6158690A
:105A700020F0FF00586148695861D86920F4E0605F
:105A800020F00700D861D1E907500543DD61986A2D
:105A9000486AC3F828E098621EB3012E23D0B01ED6
:105AA000022822D9072E0CBF02200120DD6AA7EBB5
:105AB0000C0705F0E025DD628D6AC96A454378432D
:105AC000033040EA0540D862186B20F4FF6020F0F4
:105AD000070018631963A35843F00103A350BDE8FE
