:020000040800F2
:100000000000052029190008491800084B180008AD
:100010004D1800084F180008511800080000000093
:10002000000000000000000000000000418F0008F8
:100030005318000800000000E18F000845900008F8
:100040007919000879190008791900087919000848
:100050007919000879190008791900087919000838
:100060007919000879190008791900087919000828
:100070007919000879190008791900087919000818
:100080007919000879190008791900087919000808
:1000900079190008791900087919000879190008F8
:1000A00079190008791900087919000879190008E8
:1000B00079190008791900087919000879190008D8
:1000C00079190008791900087919000879190008C8
:1000D00079190008791900087919000879190008B8
:1000E00079190008791900087919000879190008A8
:1000F0007919000879190008791900087919000898
:100100007919000879190008791900087919000887
:10011000791900087919000855180008791900089C
:100120007919000879190008791900087919000867
:100130007919000879190008791900087919000857
:100140007919000879190008791900087919000847
:100150007919000879190008791900087919000837
:100160007919000879190008791900087919000827
:1001700079190008791900087919000800000000B1
:100180007919000879190008791900087919000807
:1001900079190008791900087919000879190008F7
:1001A00061180008791900086D180008791900080D
:1001B00079190008791900087919000879190008D7
:0801C000791900087919000803
:1001D00010B5054C237833B9044B13B10448AFF381
:1001E00000800123237010BDA46D012000000000D9
:1001F00028C3020808B5034B1BB103490348AFF3FA
:10020000008008BD00000000A86D012028C302087E
:1002100001F0FF01102A2BDB10F0070F08D010F8B7
:10022000013B013A8B422DD010F0070F42B3F6D1BB
:10023000F0B441EA012141EA014122F007047FF0D4
:1002400000070023F0E80256083C85EA010586EA2B
:10025000010685FA47F5A3FA87F586FA47F6A5FA67
:1002600087F68EB9EED1F0BC01F0FF0102F0070273
:1002700032B110F8013B013A83EA010313B1F8D11E
:100280000020704701387047002D06BF35460338FF
:10029000073815F0010F07D1013015F4807F02BF38
:1002A000013015F4C03F0130F0BC0138704700BF89
:1002B00081F0004102E000BF83F0004330B54FEA17
:1002C00041044FEA430594EA050F08BF90EA020F84
:1002D0001FBF54EA000C55EA020C7FEA645C7FEA17
:1002E000655C00F0E2804FEA5454D4EB5555B8BF3A
:1002F0006D420CDD2C4480EA020281EA030382EAAB
:10030000000083EA010180EA020281EA0303362D3C
:1003100088BF30BD11F0004F4FEA01314FF4801C0F
:100320004CEA113102D0404261EB410113F0004F21
:100330004FEA03334CEA133302D0524263EB4303D8
:1003400094EA050F00F0A780A4F10104D5F1200E76
:100350000DDB02FA0EFC22FA05F2801841F10001D1
:1003600003FA0EF2801843FA05F359410EE0A5F1A5
:1003700020050EF1200E012A03FA0EFC28BF4CF0D6
:10038000020C43FA05F3C01851EBE37101F000458C
:1003900007D54FF0000EDCF1000C7EEB00006EEB99
:1003A0000101B1F5801F1BD3B1F5001F0CD3490823
:1003B0005FEA30004FEA3C0C04F101044FEA44527A
:1003C00012F5800F80F09A80BCF1004F08BF5FEA01
:1003D000500C50F1000041EB045141EA050130BDE1
:1003E0005FEA4C0C404141EB0101013C28BFB1F5F3
:1003F000801FE9D291F0000F04BF01460020B1FA3E
:1004000081F308BF2033A3F10B03B3F120020CDA10
:100410000C3208DD02F1140CC2F10C0201FA0CF0EE
:1004200021FA02F10CE002F11402D8BFC2F1200C53
:1004300001FA02F120FA0CFCDCBF41EA0C01904009
:10044000E41AA2BF01EB0451294330BD6FEA040452
:100450001F3C1CDA0C340EDC04F11404C4F120023D
:1004600020FA04F001FA02F340EA030021FA04F34F
:1004700045EA030130BDC4F10C04C4F1200220FAA6
:1004800002F001FA04F340EA0300294630BD21FAE4
:1004900004F0294630BD94F0000F83F4801306BFAA
:1004A00081F480110134013D4EE77FEA645C18BF9E
:1004B0007FEA655C29D094EA050F08BF90EA020F35
:1004C00005D054EA000C04BF1946104630BD91EA2D
:1004D000030F1EBF0021002030BD5FEA545C05D130
:1004E0004000494128BF41F0004130BD14F580046F
:1004F0003CBF01F5801130BD01F0004545F0FE41E3
:1005000041F470014FF0000030BD7FEA645C1ABF17
:10051000194610467FEA655C1CBF0B46024650EA4E
:10052000013406BF52EA033591EA030F41F400217A
:1005300030BD00BF90F0000F04BF0021704730B500
:100540004FF4806404F132044FF000054FF00001D5
:1005500050E700BF90F0000F04BF0021704730B596
:100560004FF4806404F1320410F0004548BF40426B
:100570004FF000013EE700BF42004FEAE2014FEAC0
:1005800031014FEA02701FBF12F07F4393F07F4F9B
:1005900081F06051704732F07F4208BF704793F09E
:1005A0007F4F04BF41F40021704730B54FF46074B1
:1005B00001F0004521F000411CE700BF50EA0102B4
:1005C00008BF704730B54FF000050AE050EA01025D
:1005D00008BF704730B511F0004502D5404261EBCD
:1005E00041014FF4806404F132045FEA915C3FF40E
:1005F000D8AE4FF003025FEADC0C18BF03325FEAAB
:10060000DC0C18BF033202EBDC02C2F1200300FA5B
:1006100003FC20FA02F001FA03FE40EA0E0021FA80
:1006200002F11444BDE600BF70B54FF0FF0C4CF46E
:10063000E06C1CEA11541DBF1CEA135594EA0C0F20
:1006400095EA0C0F00F0DEF82C4481EA030621EA5B
:100650004C5123EA4C5350EA013518BF52EA033596
:1006600041F4801143F4801338D0A0FB02CE4FF048
:100670000005E1FB02E506F00042E0FB03E54FF078
:100680000006E1FB03569CF0000F18BF4EF0010E70
:10069000A4F1FF04B6F5007F64F5407404D25FEA6C
:1006A0004E0E6D4146EB060642EAC62141EA55511F
:1006B0004FEAC52040EA5E504FEACE2EB4F1FD0C61
:1006C00088BFBCF5E06F1ED8BEF1004F08BF5FEADF
:1006D000500E50F1000041EB045170BD06F0004691
:1006E00046EA010140EA020081EA0301B4EB5C043E
:1006F000C2BFD4EB0C0541EA045170BD41F4801136
:100700004FF0000E013C00F3AB8014F1360FDEBF5A
:10071000002001F0004170BDC4F10004203C35DA36
:100720000C341BDC04F11404C4F1200500FA05F3B9
:1007300020FA04F001FA05F240EA020001F000425A
:1007400021F0004110EBD37021FA04F642EB0601D0
:100750005EEA430E08BF20EAD37070BDC4F10C04FA
:10076000C4F1200500FA04F320FA05F001FA04F2BE
:1007700040EA020001F0004110EBD37041F10001AA
:100780005EEA430E08BF20EAD37070BDC4F12005B5
:1007900000FA05F24EEA020E20FA04F301FA05F21D
:1007A00043EA020321FA04F001F0004121FA04F2C5
:1007B00020EA020000EBD3705EEA430E08BF20EA95
:1007C000D37070BD94F0000F0FD101F000464000CF
:1007D00041EB010111F4801F08BF013CF7D041EA51
:1007E000060195F0000F18BF704703F00046520055
:1007F00043EB030313F4801F08BF013DF7D043EA26
:100800000603704794EA0C0F0CEA135518BF95EADB
:100810000C0F0CD050EA410618BF52EA4306D1D162
:1008200081EA030101F000414FF0000070BD50EA81
:10083000410606BF1046194652EA430619D094EA0B
:100840000C0F02D150EA013613D195EA0C0F05D1F5
:1008500052EA03361CBF104619460AD181EA030149
:1008600001F0004141F0FE4141F470014FF0000001
:1008700070BD41F0FE4141F4780170BD70B54FF09C
:10088000FF0C4CF4E06C1CEA11541DBF1CEA13551C
:1008900094EA0C0F95EA0C0F00F0A7F8A4EB0504FE
:1008A00081EA030E52EA03354FEA013100F08880F5
:1008B0004FEA03334FF0805545EA131343EA1263BE
:1008C0004FEA022245EA111545EA10654FEA002673
:1008D0000EF000419D4208BF964244F1FD0404F52C
:1008E000407402D25B084FEA3202B61A65EB030588
:1008F0005B084FEA32024FF480104FF4002CB6EB45
:10090000020E75EB030E22BFB61A754640EA0C00C4
:100910005B084FEA3202B6EB020E75EB030E22BF04
:10092000B61A754640EA5C005B084FEA3202B6EB45
:10093000020E75EB030E22BFB61A754640EA9C0004
:100940005B084FEA3202B6EB020E75EB030E22BFD4
:10095000B61A754640EADC0055EA060E18D04FEA92
:10096000051545EA16754FEA06164FEAC30343EA32
:1009700052734FEAC2025FEA1C1CC0D111F4801FFF
:100980000BD141EA00014FF000004FF0004CB6E7F8
:1009900011F4801F04BF01430020B4F1FD0C88BF97
:1009A000BCF5E06F3FF6AFAEB5EB030C04BFB6EBA2
:1009B000020C5FEA500C50F1000041EB045170BD95
:1009C0000EF0004E4EEA113114EB5C04C2BFD4EBC2
:1009D0000C0541EA045170BD41F480114FF0000E46
:1009E000013C90E645EA060E8DE60CEA135594EAC2
:1009F0000C0F08BF95EA0C0F3FF43BAF94EA0C0FC5
:100A00000AD150EA01347FF434AF95EA0C0F7FF439
:100A100025AF104619462CE795EA0C0F06D152EA8D
:100A200003353FF4FDAE1046194622E750EA410671
:100A300018BF52EA43067FF4C5AE50EA41047FF482
:100A40000DAF52EA43057FF4EBAE12E74FEA4102E5
:100A5000B2F1E04324BFB3F5001CDCF1FE5C0DD91C
:100A600001F0004C4FEAC0024CEA5070B2F1004F66
:100A700040EB830008BF20F00100704711F0804F69
:100A800021D113F13872BCBF01F00040704741F42E
:100A900080114FEA5252C2F11802C2F1200C10FA32
:100AA0000CF320FA02F018BF40F001004FEAC12316
:100AB0004FEAD32303FA0CFC40EA0C0023FA02F3BA
:100AC0004FEA4303CCE77FEA625307D150EA013390
:100AD0001EBF4FF0FE4040F44000704701F0004060
:100AE00040F0FE4040F40000704700BF53B94AB9DF
:100AF000002908BF00281CBF4FF0FF314FF0FF3026
:100B000000F06EB9ADF1080C6DE904CE00F006F806
:100B1000DDF804E0DDE9022304B070472DE9F04779
:100B2000089D04468C46002B40F083808A4217467D
:100B300047D9B2FA82F242B1C2F1200024FA00F0A1
:100B40009140974040EA010C94404FEA1748230C2B
:100B5000BCFBF8F61FFA87FE08FB16C143EA014307
:100B600006FB0EF1994209D9FB1806F1FF3080F01F
:100B70001981994240F21681023E3B445B1AA4B2AD
:100B8000B3FBF8F008FB103344EA034400FB0EFE0D
:100B9000A64509D93C1900F1FF3380F00581A6452F
:100BA00040F2028102383C4440EA0640A4EB0E04C5
:100BB00000261DB1D4400023C5E900433146BDE8FD
:100BC000F08702B9FFDEB2FA82F2002A50D1CB1BC5
:100BD0004FEA174E1FFA87F80126B3FBFEFC210CE3
:100BE0000EFB1C3341EA034108FB0CF38B4207D98F
:100BF00079180CF1FF3002D28B4200F2E980844672
:100C0000C91AA3B2B1FBFEF00EFB101143EA014476
:100C100008FB00F8A04507D93C1900F1FF3302D2C8
:100C2000A04500F2D9801846A4EB080440EA0C4025
:100C3000BFE78B4209D9002D00F0B1800026C5E93D
:100C4000000130463146BDE8F087B3FA83F6002E46
:100C50004AD18B4202D3824200F2B880841A61EBFF
:100C6000030101208C46002DA8D0C5E9004CA5E762
:100C7000C2F1200320FA03F6974001FA02F04FEA8E
:100C8000174ED9403043030CB1FBFEF61FFA87F82C
:100C90000EFB161143EA014306FB08F1994204FAE0
:100CA00002F409D9FB1806F1FF3C80F08D809942CF
:100CB00040F28A80023E3B445B1A81B2B3FBFEF0F5
:100CC0000EFB103341EA034100FB08F38B4207D9C6
:100CD000791800F1FF3C73D28B4271D90238394444
:100CE000CB1A40EA064678E7C6F1200C03FA06F470
:100CF00022FA0CF31C4320FA0CF701FA06F34FEA30
:100D0000144E21FA0CF11F433B0CB1FBFEF91FFA04
:100D100084F80EFB191143EA014109FB08FA8A45E0
:100D200002FA06F200FA06F308D9611809F1FF3059
:100D300048D28A4546D9A9F102092144A1EB0A010A
:100D4000BFB2B1FBFEF00EFB101147EA014700FBFA
:100D500008F8B84507D9E71900F1FF312ED2B84598
:100D60002CD90238274440EA0940A7EB0807A0FB2A
:100D700002894F45C64649461AD317D05DB1B3EB39
:100D80000E0267EB010707FA0CFCF2404CEA020284
:100D9000F740C5E9002700263146BDE8F0872E461A
:100DA00028460BE70646E9E61846FDE64345E5D248
:100DB000B8EB020E69EB04010138DFE70846D2E721
:100DC00060468DE78146B9E7664675E730464AE7F3
:100DD000ACF1020C394413E702383C4424E700BF6D
:100DE000704700BF0149002009F0CABAAD1C0008D5
:100DF00008B5642007F0C2FCFBE7000010B594B012
:100E00001022002102240AA82AF0CEF81422002180
:100E100003A82AF0C9F81D4B192108A81A6C42F042
:100E200080521A641B6C03F080530193019B184B92
:100E30001A6842F440421A6001221B6803F44043DE
:100E40000293029B4FF48033CDE908234FF48003D3
:100E5000CDE90E434FF4C873CDE91244CDE9101328
:100E600006F04AFC06F0F0F80F2300200621CDE939
:100E700003344FF4A053CDE905034FF4805303A886
:100E8000079306F025FE14B010BD00BF00380240E5
:100E9000007000402DE980489BB000211022012500
:100EA0000DA800242AF080F805F002F84FF0104257
:100EB000CA4B0DA8ADF834501094CDE90E2305F0BF
:100EC00019F817230DA88DF835508DF83C308DF8A2
:100ED000425005F00FF8042004F0FAFFBFF34F8FE3
:100EE000BFF36F8FBE4BC3F85042BFF34F8FBFF3BA
:100EF0006F8F5A6942F400325A61BFF34F8FBFF3CC
:100F00006F8FC3F88440BFF34F8FD3F8802043F630
:100F1000E074C2F3C900C2F34E32520102EA040681
:100F2000014646EA81750139C3F86052F9D2203A88
:100F300012F1200FF2D1BFF34F8F5A6942F4803281
:100F40005A61BFF34F8FBFF36F8F04F015FF00247A
:100F5000FFF754FF142200210DA82AF025F8A14B19
:100F60000821A1481A6B01274FF0080B4FF4805A53
:100F700042F010029D4D9E4E4FF004091A634FF04F
:100F800010081A6B02F010020292029A1A6B42F0D9
:100F900001021A631A6B02F001020392039A1A6BA0
:100FA00042F002021A631A6B02F002020492049ADF
:100FB0001A6B42F040021A631A6B02F0400205926B
:100FC000059A1A6B42F400721A631A6B02F40072EB
:100FD0000692069A1A6B42F008021A631A6B02F024
:100FE00008020792079A1A6B42F480621A631A6B1E
:100FF00002F480620892089A1A6B42F020021A6387
:101000001A6B02F020020992099A1A6B42F480725C
:101010001A631A6B02F480720A920A9A1A6B42F0EF
:1010200080021A631A6B02F080020B920B9A1A6B01
:1010300042F004021A6301221B6B03F004030C93B9
:101040000C9B05F0A5FA01224FF48051694805F088
:101050009FFA0DA96448CDE90DB7CDE90F4405F01D
:1010600011F90DA96348CDE90DA7CDE90F4405F0AD
:1010700009F96148614B848003600762C0E9054457
:1010800004F060FF5E4B2846C5E90A44C5E90C44FC
:10109000C5E90034C5E9024404F0F3FF39462846A7
:1010A000584D05F0A7F8584B40220DA93046B460C2
:1010B000F461B462C6E900344FF4C073C6E9052395
:1010C0004FF40063C6E9083A4FF0020A0723CDE95E
:1010D0000DA3CDE90F930323CDF84CA0CDE9113A30
:1010E000C6E9039807F04AF829464FF6FF723046E2
:1010F0000194C5E90078C5E9027407F05FF8384645
:1011000004F05EFE29464FF6FF723046C5E900A89E
:10111000C5E9027407F052F8032329464FF6FF721F
:101120003046C5E90038C5E902B407F047F84FF486
:101130000C734FF6FF72294601933046019B4FF026
:10114000180BAF60EB60C5E9009807F037F840F284
:101150002B7130462D4D07F050F843F2D2024FF07C
:1011600020432B49284635261A602A4B2C62C5E9B4
:101170000013C5E90247C5E90444C5E9064405F082
:101180009FFB2146284605F077FD21462846224D43
:1011900005F098FD342221460DEB020029F004FFF2
:1011A0001E4B282040F2152C40F2352EAC862C61C7
:1011B00085F83640C5E900340923C5E905030B234A
:1011C0002846C5E9076340F21B13C5E909C340F28D
:1011D0001D13C5E90244C5E90BE321E01B00000330
:1011E00000ED00E000380240002802403CBC022034
:1011F00080BC0220002002406CBB02200030024074
:1012000000B00240C06D0120400100A020BB0220C0
:10121000005C0040FFEAC00090BB02200068014073
:1012200005F0FCFD4FF48873FF214FF4F07228465F
:1012300018930D94ADF864408DF86640CDE9103AEE
:10124000CDE912144FF4806A0521CDE914A14FF0C5
:101250004041CDE90E24CDE9161222460DA905F034
:10126000A8FE1A481A4B0462C0E900374FF4A06385
:10127000C0E90298C0E904B3C0E9064406F000F8EA
:1012800004F0F8FB04F03CFB5C2004F0FDFD00F0F2
:1012900049FB00F072FB07F0E1F90E4A21460E48C7
:1012A00007F016FA0D4B0E4A214618600D4807F05C
:1012B0000FFA0D4B0D4A214618600D4807F008FA49
:1012C0000C4B186007F0E4F9FEE700BFB4BC022045
:1012D000001000A0C8C30208F10D00081CBB0220CA
:1012E000A4C302087F19000838BC0220ECC302081E
:1012F000E52F00087CBC02200268034B9A4201D112
:1013000004F04CBD704700BF001000407047000063
:101310000D4B82B00F216FF001001A6C42F0805229
:101320001A641A6C02F080520092009A5A6C42F4CD
:1013300080425A6400225B6C03F480430193019B5A
:1013400002B004F061BD00BF00380240026882B004
:10135000084B9A420BD1D3F8302803F5006342F4CE
:1013600080521A631B6B03F480530193019B02B0FC
:10137000704700BF003002400E4B07B502689A422A
:1013800015D1A3F5F04305215A201A6B42F400024F
:101390001A6300221B6B03F400030193019B04F00A
:1013A00033FD5A2003B05DF804EB04F05FBD03B0D9
:1013B0005DF804FB00B0024010B5A8B0044614224A
:1013C000002102A829F0F0FD8422002107A829F0BD
:1013D000EBFD2268184B9A422CD14FF4803307A8BA
:1013E00007930023229306F041FC08B1FFF78EFF1C
:1013F000124C4FF4C07201211148236B43F080035B
:101400002363236B03F080030093009B1223CDE939
:1014100002230323CDE90413042302A9069304F055
:1014200031FF236C43F400032364236C03F40003B3
:101430000193019B28B010BD005C004000380240C1
:10144000001C0240026808B5094B9A420FD1094AB4
:1014500080210948136C23F40003136404F0F6FFA1
:101460004FF480710448BDE8084004F0EFBF08BDA8
:10147000005C004000380240001C024070B5ACB077
:1014800004461422002106A829F08EFD84220021A2
:101490000BA829F089FD2268494B9A4240F08E80C2
:1014A0000823052001250B934FF4C07310930223EA
:1014B000CDE9113000230BA813934FF40033CDE98D
:1014C000155306F0D3FB08B1FFF720FF3D4B002476
:1014D00002250E265A6C06A93B4842F080625A64E7
:1014E0005A6C02F080620092009A1A6B42F010026D
:1014F0001A631A6B02F010020192019A1A6B42F4FD
:1015000000721A631A6B02F400720292029A1A6B4A
:1015100042F480621A631A6B02F480620392039AA7
:101520001A6B42F040021A631A6B02F040020492F6
:10153000049A1A6B42F480721A631B6B03F4807373
:101540000593059B1023CDE90635CDE908440A969D
:1015500004F098FE4EF6FF7306A91C480A96CDE9E2
:101560000635CDE9084404F08DFEF72306A9184896
:101570000A96CDE90635CDE9084404F083FE4FF420
:10158000805306A91348CDE906350923CDE908445F
:101590000A9304F077FE4FF4464306A90E480A96D4
:1015A000CDE90635CDE9084404F06CFE582022460A
:1015B000052104F029FC582004F058FC2CB070BD23
:1015C0000068014000380240001002400024024040
:1015D000002802400018024000200240142200218E
:1015E0002DE9F0418AB004460DEB020029F0DCFC45
:1015F00022682C4B9A4252D12B4B02260025032401
:101600009A6B09274FF0040805A942F00202274807
:101610009A639A6B02F002020192019A1A6B42F0ED
:1016200010021A631A6B02F010020292029A1A6BED
:1016300042F002021A631A6B02F002020392039A4A
:101640001A6B42F008021A631B6B099703F0080338
:101650000493049BCDE90586CDE9075404F012FEFE
:10166000402305A91248CDE905360A23CDE90754E0
:10167000099304F007FE05A90D480997CDE90586F1
:10168000CDE9075404F0FEFD4FF4605305A9094865
:101690000997CDE90536CDE9075404F0F3FD0AB00A
:1016A000BDE8F081001000A00038024000100240A8
:1016B00000040240000C0240026808B50B4B9A423D
:1016C00013D10B4A04210B48936B23F0020393635D
:1016D00004F0BCFE4421084804F0B8FE4FF4605109
:1016E0000648BDE8084004F0B1BE08BD001000A0E7
:1016F000003802400010024000040240000C02408A
:101700002B4BF0B51C6887B0002C4ED1012202276C
:1017100003260C251A6001A9264B27489A6B42F034
:1017200001029A639B6B039403F001030093009BF7
:101730004FF68373CDE90465CDE9013704F0A2FDCE
:1017400048F2331301A91D480595CDE90137CDE9CC
:10175000034604F097FD4CF2037301A91848059560
:10176000CDE90137CDE9034604F08CFD4FF63F0388
:1017700001A914480595CDE90137CDE9034604F0E8
:1017800081FD282301A910480595CDE90137CDE950
:10179000034604F077FD082301A90C480595CDE91F
:1017A0000137CDE9034604F06DFD07B0F0BD00BF81
:1017B000D06D0120003802400010024000180240A5
:1017C000000C024000140240001C024000080240CD
:1017D00010B5014688B00022362004F015FB3620F3
:1017E00004F044FB144B01A903A81A6C134C42F0FB
:1017F00010021A641B6C03F010030293029B06F0A4
:1018000017FA06F005FA0E4B4000236040F2E7336A
:10181000E3600C4BB0FBF3F001380023606020461E
:101820002361A36006F05AFE20B9204606F0FEFCB4
:1018300008B010BD0120FBE70038024000BD0220C7
:101840000010004040420F007047FEE7FEE7FEE751
:10185000FEE77047014806F02BBD00BF00BD022027
:10186000014805F049BB00BF90BB0220014804F0CD
:1018700036BC00BF3CBC02200120704708B529F0EF
:1018800035FB162303604FF0FF3008BD08B529F083
:101890002DFB16230360FEE770B50E4614460025A7
:1018A000A54201DB204670BDAFF3008070550135C5
:1018B000F6E770B50E4614460025A54201DB20462A
:1018C00070BD705D0135AFF30080F6E74FF0FF307B
:1018D00070474FF4005300204B6070470120704761
:1018E000002070470B4B0246196810B509B90A4928
:1018F0001960186809490A4C0244091B8A4206D932
:1019000029F0F4FA0C2303604FF0FF3010BD1A6089
:10191000FCE700BFD46D0120F0BD022000000520CF
:10192000000A000070470000DFF834D0002103E017
:101930000C4B5B58435004310B480C4B42189A42F5
:10194000F6D30B4A02E0002342F8043B094B9A42CB
:10195000F9D304F027F929F0E1FAFFF79BFA704771
:10196000000005204038030800000020240100206A
:10197000A46D0120ECBD0220FEE700F0D1BF01F014
:101980003FB840687047416070470000094A1368DB
:1019900043F080731360A2F54E42074B52F84C1C83
:1019A0004C3A0B431360A2F57B62136843F00103CA
:1019B00013607047FCED00E055CEACC5511A01EB49
:1019C0005301B1FBF3F07047014B1868704700BF3B
:1019D000041000E0704710B504460C2129F026FAE7
:1019E000204610BD036810B51B69044631B1984705
:1019F000A26863689B1A1844606010BD9847A06095
:101A0000FBE70000024B7020024A1360DB681847B6
:101A100010000020D86D0120704710B50446042145
:101A200029F004FA204610BD37B50A4D0C462B6844
:101A300013B9002003B030BD1B6970200192984794
:101A400001990028F5D02B68702022465B699847E1
:101A50000120EFE7D86D01207FB501238DF8172015
:101A60004FF47A72CDE901320DF1170200920A4665
:101A70000146054804F08EFF10B1034804F071FFE1
:101A800007B05DF804FB00BF20BB02207FB5002338
:101A90000A464FF47A718DF817300123CDE90131F0
:101AA0000DF1170100910146054805F029F810B124
:101AB000034804F056FF9DF8170007B05DF804FBDB
:101AC00020BB0220704770477047012380F87410D4
:101AD00080F8753070470020704700207047836B96
:101AE0000BB10846184770474FF6FF7070474068C3
:101AF00003689B691847704738B5044601F058F8E9
:101B00000A4A4FF0404123682046D3F88450084BDE
:101B1000A8470023074D84F84A302846FFF736FFD0
:101B20000123256184F86C3038BD00BF00FC03C080
:101B300000F807C0DC6D012008B531B90A4B4FF43D
:101B40002B710A4A0A4829F09FF9C0E90F12003A9E
:101B50000849436418BF0122003B0A7018BF0123E3
:101B6000054A137008BD00BF50C4020888C40208AB
:101B7000D6C402087EB802207FB8022008B5094BFF
:101B80001B888B4203D8084B1B88934205D9074B0F
:101B90009E21074A074829F077F9074B1980074B20
:101BA0001A8008BD74B8022076B802201BC502084E
:101BB0007EC50208D6C402087AB802207CB802208A
:101BC00000F0D6BF00F0DABF70B501F07FF8104A20
:101BD0000023C2F88430BFF34F8FD2F8803043F631
:101BE000E074C3F3C900C3F34E335B0103EA040698
:101BF000014646EA81750139C2F87452F9D2203B98
:101C000013F1200FF2D1BFF34F8FBFF36F8F70BD71
:101C100000ED00E001F068B800F086BF01F01AB9ED
:101C200001F022B900F08ABF10B5044617F05AFD42
:101C300023682046D3F8A430BDE81040184716F0BA
:101C4000FBBE10B504467C2129F0F0F8204610BDFB
:101C500090F877301BB1406803681B681847184636
:101C60007047000090F834100D4B10B590F8744098
:101C70001A788C4209D03AB90A490B4A0888148864
:101C8000108001220C801A7010BD002AFCD0064A78
:101C90000449148808880C8010800022F3E700BFF4
:101CA00078B8022076B8022074B80220014608B540
:101CB000034B186801B1012117F02EFD012008BD6A
:101CC00080B80220034B00225A609A60024A1A60D0
:101CD000704700BFDC6D012018C4020801210022FA
:101CE00008B5084606F000FE0A4B186028B90A4BF2
:101CF00028210A4A0A4829F0C7F8002204210120B5
:101D000006F0B8FE074B186018B9074B2C21034AA0
:101D1000F0E708BDEC6D012094C60208DDC602089C
:101D20000CC70208E86D012077C70208024B4FF08C
:101D3000FF31186806F02EBEEC6D0120014B1868CB
:101D400006F062BEEC6D0120024B0021186806F01F
:101D500021BE00BFEC6D0120FFF7F0BF0023034858
:101D600003491A46006806F0CBBE00BFE86D0120AB
:101D70000400002013B50023074C01A91A4620686F
:101D800006F000FF4FF0FF33002201A9206806F0A3
:101D9000F9FE02B010BD00BFE86D012003685B6C66
:101DA00018470120704703689B6A18470D4B82B0A3
:101DB0001A6B42F400021A631A6B02F400020192D9
:101DC000019A1A6942F400021A611A6922F40002A7
:101DD0001A61054B054A1A614FF08062044B9A6004
:101DE00002B07047003802403CBC0220FD1D0008D4
:101DF00000E100E040F2EF3070470000024B1B684A
:101E0000586803685B69184780B8022008B50B283A
:101E10000BD8DFE800F01206100A0A0A0A080808C0
:101E20000808012008BD0520FCE7054B6621054A8E
:101E3000054829F029F80020F4E70220F2E700BF66
:101E4000B9C70208D4C702081EC8020808B50A2884
:101E500009D8DFE800F010060E0808080806060694
:101E60000600012008BD054B8721054A054829F0D9
:101E70000BF80020F6E70220F4E700BFB9C702081C
:101E800087C802081EC802082DE9F84391F81D8092
:101E90000C464046FFF7BAFFA77F05463846FFF7D6
:101EA000B5FF06463846FFF7D1FFA18A628B4B4B40
:101EB000521A9E461A649A61228B521A1A61E28A59
:101EC000586342EA014221695A646268D963DA6060
:101ED000D4F800C094F81C90BCF1800F4FEA09625E
:101EE00030D014D8BCF1200F45EA020069D0BCF113
:101EF000400F66D0BCF1040F20D02A43374BB845C1
:101F000042F40032DA6148D140F2012214E0BCF51B
:101F1000807F07D0BCF5007FEFD142F4003242F061
:101F2000090203E042F4003242F00A02DA61E26898
:101F30001A625E6259612A4A1A604DE040F400302C
:101F4000D861F6E7A0682A43041D42F40032DC623F
:101F5000DA6102785E62596142B1012A1FD0214BD9
:101F600040F21111204A214828F08EFF42880124B6
:101F7000D969501E21F47F4222F0100242EA002269
:101F8000DA61164BDA6942F02002DA61DA69920608
:101F9000FCD410229A60002CCDD1154ACCE742889F
:101FA000B9F1FF04D96902F1FF3018BF012421F40F
:101FB0007F4222F0100242EA002242F01002DA616F
:101FC000DFE740F40030064BCEF81C00CEF824606A
:101FD000CEF81410CEF80030BDE8F88300B002400F
:101FE00001020200D2C80208ECC802081EC802089A
:101FF0000102010038B50C46887FFFF727FF174B19
:10200000A58AE18A628B41EA05415863521B5964F3
:102010002169D9631A642568082D0ED19A611A6165
:1020200058620F4A207F42EA0062DA61E2681A626F
:102030000C4A5961D9601A6038BD0022D8611A6112
:10204000E1680A0A4809C1F3C40102F4784200F4C5
:10205000FC6002430A439A63034AECE700B0024083
:10206000090001000102020001020300054B4FF0CC
:1020700080620360044BC3F88820BFF34F8FBFF327
:102080006F8F704734C9020800E100E010B50446C4
:10209000FFF7ECFF4FF44261204628F0C7FE2046D0
:1020A00010BD000070B504460A4B0C3000262546D2
:1020B000602260602672667245F8203B294617F060
:1020C00093FC04F54263EE602035AB42FBD1204621
:1020D00070BD00BF34C902084069704790F84400E1
:1020E0007047036B23B9C06A003818BF01207047DE
:1020F0000120704780687047043010B50C460FC847
:1021000084E80F0010BD704708B5034A4FF4F4711E
:10211000024B034828F0B8FE7CC902082E2C0308A5
:10212000D7C9020810B50446482128F07FFE204692
:1021300010BD00002DE9F0431C46436BADF51F7D3B
:1021400005460E461746002B52D0002203A8DFF8A2
:10215000A890CDE901320EF0AFFE4FF4F472502199
:10216000249024A808F0B9FD3A46314624A809F085
:1021700053FD012124A808F0B9FE022324A88DF8FC
:10218000D83008F057FFBDF898622B9BBDF89C72C1
:102190009E4228BF1E46419B9F4206EB460828BF31
:1021A0001F46A89BA3EB4606479B9F421AD90122D4
:1021B00001A924A808F087FF6B6B03EB0800984285
:1021C0000ED959789A78C90009EA022201F4FC6113
:1021D0000A4313F8031B42EAD10224F8022BEEE76C
:1021E0003444E1E724A808F0A3FE24A808F0C2FDC7
:1021F0000DF51F7DBDE8F08300F8FFFF0A4A02607D
:102200000022C0E90522C0E90722C0E90922C0E98D
:102210000B22C0E90D12C0E90F2280F84420C0E96A
:102220000322C0E901227047D4CC020820B40D4635
:1022300011461A46036B3BB1036C806BED1A2844C0
:102240005DF8045B29F0C4BAC06AF8E7036B10B507
:1022500073B1036C826BC91A5318525C98785C781E
:102260000004DB7840EA0420104340EA036010BD1C
:10227000C36A5858FBE7036B43B1036CC91A836BFD
:102280005A18585C527840EA02207047C36A585A7C
:102290007047000070B50446006B0D461646D8B175
:1022A000E36B934208D209230D4A53210D4884F869
:1022B00044300D4B28F0E8FD0368DB689847206B3D
:1022C0003246A16B03681B69984710B90D2384F847
:1022D0004430A06B256470BDE06A0844FBE700BF92
:1022E0005FCA0208D7C902084CCA02082DE9F843A0
:1022F000436904462BB9224B9821224A224828F0F0
:10230000C3FD08228169FFF7C5FFA169204643F29A
:102310003007043146F26436FFF798FF0546A1699D
:10232000A36A0D4405F108029A4222D26369093575
:102330000822204625F001010133A1616361FFF706
:10234000A9FFD4F8188020464146FFF794FF814644
:1023500008F104012046FFF779FFB9450546DED1B3
:1023600008F102012046FFF786FFB042D7D10120D5
:1023700004E0012300206361236AA361BDE8F883C0
:10238000A1CA0208EACA0208D7C902082DE9F04F1B
:102390000446ADF51F7D8A46174681690822984696
:1023A000FFF778FFA6692046311DFFF74FFF06F1C2
:1023B0000801024605462046FFF76CFF636B0646A0
:1023C00033B93C4B40F28D113B4A3C4828F05CFD50
:1023D000002203A8CDE901320EF06EFD4FF4F47235
:1023E0005021249024A808F078FC2A46314624A8DD
:1023F00009F012FC012124A808F078FD022324A88A
:102400008DF8D83008F016FEBAF90250479BAB425F
:1024100005D2012201A924A808F055FEF6E7BAF971
:1024200000904FEA4808BAF804602B9B08FB057738
:102430004E44BAF80250DFF888B036B29E4228BF48
:102440001E46BAF8063009EB490A1D44419B2DB2DD
:102450009D4228BF1D46479BAB421FD2012201A9C6
:1024600024A808F030FE636B4A465344B24203F19D
:10247000030311D213F8020C13F8011CC0000BEA7D
:10248000012100F4FC60014313F8030C41EAD00180
:1024900027F812100132E9E74744DCE724A808F0E6
:1024A00047FD24A808F066FC01200DF51F7DBDE85E
:1024B000F08F00BF1DCB020873CB0208D7C90208FA
:1024C00000F8FFFF0129036838BF0121DB6A70B5FE
:1024D0000D4604469847A84204D223682046DB6A8A
:1024E000984705466B1EE6691022204606EB031648
:1024F00006F10801FFF7CEFE06F110012046FFF7B6
:10250000A5FE236A043B0344C4E9055370BD0000E3
:102510002DE9F341002104464822816180F84410EE
:10252000FFF7B8FEA7690423624A39462046FFF741
:102530007DFE40B10323604AE02184F844305F4BC4
:102540005F4828F0A1FC07F1080104235D4A2046FA
:10255000A161FFF76BFE30B10423574AE82184F8EC
:102560004430594BECE707F10C010423574A20464D
:10257000A161FFF75BFE064630B105234E4AEF210D
:1025800084F84430524BDBE707F110012046FFF797
:102590005DFE054618B94F4BF521474AD0E707F1D4
:1025A000140804234C4A20464146FFF73FFE00280A
:1025B0004BD0062384F844300423484A07F118011D
:1025C0002046FFF733FE002841D0072384F844302B
:1025D0004544434F0C2220462946FFF75BFE05F198
:1025E000080604233A4620463146FFF71FFE94F8BA
:1025F000443000284AD0002B4AD1A36A291DAB429F
:102600004AD805F10C03291D2046A3610191FFF76B
:102610001DFE3044019960622046FFF717FE064414
:10262000042220463146FFF735FE04232D4A314669
:102630002046FFF7FBFD002839D10123E6616361E5
:10264000A369236202B0BDE8F0810126B4E7002E41
:10265000BED007F120012046FFF7F8FD4FF47A7352
:1026600007F13001B0FBF3F060602046FFF7EEFDAC
:1026700007F14001A0602046FFF7E8FD07F14401A3
:10268000E0602046FFF7E2FD2061A1E7002BB8D013
:102690000A2384F84430D5E72046FFF7D7FD0830F9
:1026A0000C22054420462946FFF7F4FD97E70B234B
:1026B000EFE700BFCDCB0208EBCB0208D2CB02087C
:1026C000D7C9020818CC02081DCC020835CC020874
:1026D0003ACC020850CC02085CCC020861CC02085B
:1026E00066CC02086BCC0208C0E90A210022026312
:1026F000FFF70EBF10B5002304460846E3620B68DF
:1027000021639B689847A0622046BDE81040FFF710
:10271000FFBE70B4BDF80C50BDF810602AB123B1F3
:10272000CDE9035670BCFFF705BD70BC70470000D3
:102730002DE9FF479946436904460F4690462BB959
:102740002A4B65212A4A2B4828F09EFB08228169E2
:10275000FFF7A0FDA669204606F1080A311DFFF724
:1027600075FDA36A00EB0A0205469A4231D2314652
:102770002046FFF780FD43F2300398421DD1B11C83
:102780002046FFF778FD46F26433984215D1A5B193
:102790002A4651462046C4F818A0FFF77BFD0C9B43
:1027A00001462A462046CDF80080CDE901933B46FC
:1027B000FFF7AFFF636901336361A3692B448DB1F8
:1027C000A361A369626A013323F001039342A36109
:1027D0000AD10120236A6061A36180F0010004B086
:1027E000BDE8F0870833EBE70020F6E7A1CA02084E
:1027F00070CC0208D7C90208012070470C2070472E
:102800000C2303FB0100083070470C2303FB01007D
:10281000083070470120704740F22450704740F262
:10282000245303FB01000830704740F2245303FB9C
:10283000010008307047012070471020704700EBFE
:1028400001100830704700EB01100830704708464F
:1028500000F0D6BC034B10B50446036015F01EFC17
:10286000204610BD7CCD020810B50446FFF7F2FFEC
:102870001421204628F0DAFA204610BD034B10B58B
:102880000446036015F00AFC204610BD48CD02083E
:1028900010B50446FFF7F2FF40F22C51204628F015
:1028A000C5FA204610BD0000034B10B50446036076
:1028B00015F0F4FB204610BD14CD020810B50446F7
:1028C000FFF7F2FF1821204628F0B0FA204610BD8D
:1028D000084B10B50446036000F5AB60FFF7BAFF84
:1028E00004F12C00FFF7CAFF04F11400FFF7DCFF2E
:1028F000204610BDB0CD020808B50248FFF7E8FF3A
:1029000008BD00BFF46D012010B50446FFF7E0FFDD
:102910004FF4D961204628F089FA204610BD000006
:102920002DE9F34100F0AEFB0024054600F0AEFBBC
:10293000234601462246284600941CF0F7F9254B11
:10294000254A2046254D1A6001F06CFA24481CF0F7
:102950002FF92B78BFF35B8FDB0735D4284628F09F
:1029600067FA88B31F4C204B04F5AE6604F11400DF
:1029700004F12C0804F5AB6723606060C4F808809C
:10298000E760266115F08CFB184B4046636115F03B
:1029900087FB174B3846E36215F082FB154B04F2B8
:1029A0006C50C4F8583502F019FE224604F26C51FE
:1029B000304602F009FE304600F022FC284628F09E
:1029C00043FA0D4828F07EFA0C4802B0BDE8F04109
:1029D000FFF792B8DCB802205C810120F06D012085
:1029E00008000020F46D0120B0CD020814CD0208CB
:1029F00048CD02087CCD0208F9280008E0800120BB
:102A0000014816F080B800BFE080012070B5244E68
:102A1000244B254C3046254D2360FFF743FB2846C9
:102A20001FF056FA224B00224FF4807121481A857C
:102A300083F82A20DA621A861A6683F86C201A67ED
:102A4000DC60C3E912121C49C3E919124FF080710E
:102A50005967012183F8781018490B604FF4F07121
:102A600001801748C3E90422C3E90622C3E908220A
:102A7000C3E90E22C3E91022C3E91422C3E91622D6
:102A8000C3E9016501804FF488710E4883F8342052
:102A900001800D4801800D490A700D4A1A6070BD11
:102AA000C074012040C40208BC7401206081012070
:102AB000E080012074B802200100000180B80220EB
:102AC0007AB8022076B802207CB8022078B80220BA
:102AD000CCC502080148FFF7C9BA00BFC074012085
:102AE000104A002370B5C2F88430BFF34F8FD2F87C
:102AF000803043F6E074C3F3C900C3F34E335B0187
:102B000003EA0406014646EA81750139C2F87452A7
:102B1000F9D2203B13F1200FF2D1BFF34F8FBFF357
:102B20006F8F70BD00ED00E0034B902283F85A23B5
:102B300083F85823704700BF00E100E0094A0A49C2
:102B4000D3680A48C3F30A03013B9BB20B801169A7
:102B5000C1F30A01013901801364536B43F001038F
:102B60005363704700680140DA810120D881012059
:102B7000014B986A704700BF84680140024B0122F4
:102B8000996243F8602C704784680140034B5B698D
:102B9000DB0301D5FFF7A4BF704700BF00ED00E0E5
:102BA000704700EB8100114640680368DB681847F6
:102BB00038B5044615F095FF23681D6E19F0F6F838
:102BC00001462046A8472368084A4FF04041D3F801
:102BD000845020460023A847054B064A5A60064AFF
:102BE000DA625A63054A1A6338BD00BF00FC03C0AD
:102BF000848501203C85012024010020806C010097
:102C000008B531B1044B4FF4A871044A044828F0C8
:102C10003BF990F8250008BDBCCD0208D0CD0208D4
:102C200059CF020810B531B1064B4FF4A571064AD1
:102C3000064828F029F9406811460368BDE81040AD
:102C40001B6B1847BCCD02089CCF020859CF020865
:102C500008B529B1034B6921034A044828F014F947
:102C6000C06808BDBCCD020849D1020859CF02088E
:102C700010B50C4611461A462CB1064B8021064A67
:102C8000064828F001F9C46040680368BDE81040B8
:102C90009B681847BCCD0208FDD2020859CF020834
:102CA00008B529B1054B7221054A064828F0ECF811
:102CB000C0E90411C0E9063208BD00BFBCCD02085E
:102CC000D7D4020859CF020815F0F2BE08B515F0A6
:102CD000B9FE044B5B69DB0303D5BDE80840FFF791
:102CE000FFBE08BD00ED00E016F017B890F83830D0
:102CF00010B504463BB14FF0FF31006C05F09AFD72
:102D00004FF48073238710BD38B50D4604464FF04D
:102D1000FF31006C013505F08DFD206C05F0BAFD2A
:102D2000002304EB45152B7194F824300BB9E36AAA
:102D3000636338BD10B50446442128F077F8204677
:102D400010BD000010B5044629B1164B9221164A59
:102D5000164828F099F8042A15D8DFE802F0031184
:102D600015171D00406803681B69984758B1012377
:102D700084F8253084F827300023C4E9043302E0C6
:102D8000002380F8253010BD0362F5E7002380F8AA
:102D9000253001230362F6E7003B18BF012380F8CA
:102DA0002830F0E7BCCD020892D6020859CF0208BD
:102DB00010B50446104629B1114BB921114A1248E9
:102DC00028F062F894F8253013B163690133636128
:102DD00094F826300BB9012010BDA3680363036883
:102DE0005B699847002394F8270084F82630002870
:102DF000F1D194F82830002BEED184F82500EBE7D0
:102E0000BCCD020865D8020859CF020810B5104C95
:102E100015F05AFE94F8253053B1E169D4E9052341
:102E20005A4323694B439A4224BF012384F8293033
:102E30000123E06B84F8383005F0E6FD94F8393072
:102E40002BB1206C05F026FD002384F8393010BD2D
:102E500084850120034B4FF080629A604FF08072AE
:102E60009A60704700E100E0084B4FF08062C3F8C1
:102E70008820BFF34F8FBFF36F8F4FF08072C3F87E
:102E80008820BFF34F8FBFF36F8F704700E100E0E2
:102E900090F8243070B533B1174B4FF4CA71174A0C
:102EA000174827F0F1FF0122456BC36080F8282006
:102EB00080F8242005F5B6320361803243618361D6
:102EC000C361036280F8263080F8273080F829300B
:102ED000D0E90B463444A24203D90A4B42210A4AA4
:102EE000DEE74263D8228560184681F83430CA860E
:102EF0000A870B6370BD00BF05DA020835DA0208E5
:102F000059CF0208BBDB0208F6DB0208134B144A58
:102F10001B6C11888B4210B5124C13D1124B1988BF
:102F200004F074F8226892F86630013382F8663053
:102F3000FEF714FF206816F0D5FB0020BDE8104016
:102F4000FEF7C0BD04F062F80020FEF7BCFD20686B
:102F50000368BDE810401B6A184700BF00680140C5
:102F6000DA81012080B80220D88101202DE9F341C7
:102F7000044601264FF4D8774FF0FF31E06B05F09F
:102F800009FD4FF0FF31206C05F054FC94F8293016
:102F900013B3216A656884F8266029B12B68284636
:102FA0005B6A9847002323622B6828460097D3F872
:102FB0001480D823A1681A46C047236984F82700E3
:102FC0000133236160B12B6828469B6A984701381A
:102FD000E060002384F82930206C05F05BFCCBE72F
:102FE000E660F6E7014808B5FFF7C0FF84850120D9
:102FF00038B5124900251248FFF700F9114C124B61
:1030000001202A462946236084F82450E58420853F
:1030100065632087C4E90355C4E90555C4E907552C
:10302000C4E90B55C4E90F55C4E9015505F05CFC32
:10303000E063284605F0BCFB206438BDDC8101203C
:103040003C85012084850120A0DD0208704710B571
:103050000446042127F0EAFE204610BD012908B5E8
:1030600006D0022908D059B900F028FF006808BD31
:1030700000F024FF4068FAE700F020FF8068F6E7E0
:103080000020F4E700487047E8DD02080E20704792
:1030900013B5002451B1036801AA01948DF80340CF
:1030A0009C680DF10303A04702B010BD0846FBE782
:1030B000408970478089704780887047837980880D
:1030C000184480B27047C07900F07F007047C07923
:1030D000C0097047704710B50446082127F0A6FEC6
:1030E000204610BD704700F596730868496803C311
:1030F0007047704770474160704770470123037203
:1031000070477047704710B441680346C2689B68B7
:10311000541001EB6200D20748BF0A595DF8044B16
:1031200048BFD358184743682BB183682BB9C06890
:1031300000F001007047184670470120704710B535
:1031400004460C2127F072FE204610BD10B504463F
:10315000102127F06BFE204610BD10B504464FF439
:10316000AC7127F063FE204610BD10B518F01EFEAE
:103170000368BDE810401B6B184710B50446D0F833
:103180003C0158B10368DB68984738B1D4F83C017A
:1031900003689B6898470023C4F83C3110BD0000C9
:1031A000F8B5044617460E4618F022FE104B0025CF
:1031B0001C6029460F4BC4E954760F4E23603068DB
:1031C0000E4BC4E95255C4E950350368C4E94E5565
:1031D0009B689847284600F025FE336893F87620D0
:1031E0000AB1D86C00B9986820F0BDFC2046F8BD43
:1031F000CCB802206CE7020880B8022054E702082D
:10320000064BC0F84401C0F848310023C0F84C31E7
:1032100000F5A073C0F83C31704700BF09340008C6
:10322000064BC0F84401C0F848310023C0F84C31C7
:1032300000F5A073C0F83C31704700BF6D35000841
:10324000064BC0F84401C0F848310023C0F84C31A7
:1032500000F5A073C0F83C31704700BFD1360008BC
:10326000064BC0F84401C0F848310023C0F84C3187
:1032700000F5A073C0F83C31704700BF3538000836
:10328000064BC0F84401C0F848310023C0F84C3167
:1032900000F5A073C0F83C31704700BF99390008B1
:1032A000064BC0F84401C0F848310023C0F84C3147
:1032B00000F5A073C0F83C31704700BFFD3A00082C
:1032C00003685B6A184700002DE9F84F07469068CD
:1032D0009946884603681446DDF828A01B6A98477B
:1032E00040F22353984205D8414BA321414A42481A
:1032F00027F0CAFD606803681B6A98470F2803D847
:103300003E4BA4213B4AF2E7E06803681B6A9847FA
:103310000B2803D83A4BA521364AE8E718F046FDBA
:1033200018F04AFDD9F8000010B10368DB6898472F
:10333000D9F8000010B103681B689847386810B1CD
:1033400003685B699847D8F8000010B103685B68B0
:103350009847386810B103681B689847D8F8000090
:1033600010B103689B6898470021E068FFF7A8FF49
:103370004FF0000B234B0546C0F804B059460360DC
:1033800080F808B0A06803685B6A9847064602F0B8
:10339000E7F96068594603685B6A98470446314616
:1033A00002F0C4F9C9F80050C8F800403E60E4B12A
:1033B000231DCAF8003030463368C4F808A0DB6823
:1033C000F4639847236820461B689847294630468F
:1033D0001AF0B8F82B6828461B6998472B682846CE
:1033E0005B6998472046BDE8F88F2346E1E700BFB8
:1033F00010DF02089EDF02089CE00208E3E00208FA
:1034000086E10208B0E70208D0F8543107B500F5AC
:103410009C710093044BD0F850210448FFF754FFEF
:1034200003B05DF804FB00BFC0B80220BCB80220A6
:103430002DE9F84F07469068994688460368144678
:10344000DDF828A01B6A9847B0F50C7F05D2414BE8
:10345000A321414A414827F017FD606803681B6AB1
:1034600098470F2803D83E4BA4213B4AF2E7E06877
:1034700003681B6A98470B2803D83A4BA521364AA4
:10348000E8E718F093FC18F097FCD9F8000010B1A9
:103490000368DB689847D9F8000010B103681B681F
:1034A0009847386810B103685B699847D8F80000FE
:1034B00010B103685B689847386810B103681B68EF
:1034C0009847D8F8000010B103689B68984700211E
:1034D000E068FFF7F5FE4FF0000B234B0546C0F800
:1034E00004B05946036080F808B0A06803685B6ABE
:1034F0009847064602F098F96068594603685B6A87
:1035000098470446314602F075F9C9F80050C8F8EA
:1035100000403E60E4B1231DCAF8003030463368F5
:10352000C4F808A0DB68F4639847236820461B684A
:103530009847294630461AF005F82B6828461B693B
:1035400098472B6828465B6998472046BDE8F88F66
:103550002346E1E710DF020829E202089CE00208A6
:10356000E3E0020886E10208B0E70208D0F854312F
:1035700007B500F59C710093044BD0F85021044826
:10358000FFF756FF03B05DF804FB00BFC0B8022090
:10359000BCB802202DE9F84F074690689946884646
:1035A00003681446DDF828A01B6A9847B0F50C7F25
:1035B00005D2414BA321414A414827F065FC606890
:1035C00003681B6A98470F2803D83E4BA4213B4A47
:1035D000F2E7E06803681B6A98470B2803D83A4B68
:1035E000A521364AE8E718F0E1FB18F0E5FBD9F829
:1035F000000010B10368DB689847D9F8000010B1EB
:1036000003681B689847386810B103685B6998477E
:10361000D8F8000010B103685B689847386810B1AB
:1036200003681B689847D8F8000010B103689B68CE
:1036300098470021E068FFF743FE4FF0000B234B53
:103640000546C0F804B05946036080F808B0A06889
:1036500003685B6A9847064602F0B4F8606859460A
:1036600003685B6A98470446314602F091F8C9F84E
:103670000050C8F800403E60E4B1231DCAF8003095
:1036800030463368C4F808A0DB68F46398472368C1
:1036900020461B6898472946304619F053FF2B688F
:1036A00028461B6998472B6828465B69984720463F
:1036B000BDE8F88F2346E1E710DF02082FE3020898
:1036C0009CE00208E3E0020886E10208B0E7020895
:1036D000D0F8543107B500F59C710093044BD0F835
:1036E00050210448FFF756FF03B05DF804FB00BF0C
:1036F000C0B80220BCB802202DE9F84F07469068F8
:103700009946884603681446DDF828A01B6A984746
:10371000B0F50C7F05D2414BA321414A414827F027
:10372000B3FB606803681B6A98470F2803D83E4BB9
:10373000A4213B4AF2E7E06803681B6A98470B281C
:1037400003D83A4BA521364AE8E718F02FFB18F0CA
:1037500033FBD9F8000010B10368DB689847D9F84B
:10376000000010B103681B689847386810B10368FF
:103770005B699847D8F8000010B103685B68984708
:10378000386810B103681B689847D8F8000010B17A
:1037900003689B6898470021E068FFF791FD4FF0B0
:1037A000000B234B0546C0F804B05946036080F86F
:1037B00008B0A06803685B6A9847064601F03AFFC4
:1037C0006068594603685B6A98470446314601F0D1
:1037D00017FFC9F80050C8F800403E60E4B1231D4F
:1037E000CAF8003030463368C4F808A0DB68F463D8
:1037F0009847236820461B6898472946304619F0A9
:10380000A1FE2B6828461B6998472B6828465B69F0
:1038100098472046BDE8F88F2346E1E710DF02080D
:1038200039E402089CE00208E3E0020886E10208AD
:10383000B0E70208D0F8543107B500F59C71009349
:10384000044BD0F850210448FFF756FF03B05DF851
:1038500004FB00BFC0B80220BCB802202DE9F84F1D
:10386000074690689946884603681446DDF828A004
:103870001B6A9847B0F50C7F05D2414BA321414A02
:10388000414827F001FB606803681B6A98470F28CE
:1038900003D83E4BA4213B4AF2E7E06803681B6A69
:1038A00098470B2803D83A4BA521364AE8E718F089
:1038B0007DFA18F081FAD9F8000010B10368DB68CE
:1038C0009847D9F8000010B103681B68984738681A
:1038D00010B103685B699847D8F8000010B103681D
:1038E0005B689847386810B103681B689847D8F838
:1038F000000010B103689B6898470021E068FFF75B
:10390000DFFC4FF0000B234B0546C0F804B05946CE
:10391000036080F808B0A06803685B6A98470646B1
:1039200001F0ECFE6068594603685B6A98470446FC
:10393000314601F0C9FEC9F80050C8F800403E60A9
:10394000E4B1231DCAF8003030463368C4F808A03B
:10395000DB68F4639847236820461B68984729462C
:10396000304619F0EFFD2B6828461B6998472B68F5
:1039700028465B6998472046BDE8F88F2346E1E773
:1039800010DF02083DE502089CE00208E3E00208BF
:1039900086E10208B0E70208D0F8543107B500F517
:1039A0009C710093044BD0F850210448FFF756FF58
:1039B00003B05DF804FB00BFC0B80220BCB8022011
:1039C0002DE9F84F074690689946884603681446E3
:1039D000DDF828A01B6A9847B0F5307F05D2414B2F
:1039E000A321414A414827F04FFA606803681B6AE7
:1039F00098470F2803D83E4BA4213B4AF2E7E068E2
:103A000003681B6A98470B2803D83A4BA521364A0E
:103A1000E8E718F0CBF918F0CFF9D9F8000010B1A9
:103A20000368DB689847D9F8000010B103681B6889
:103A30009847386810B103685B699847D8F8000068
:103A400010B103685B689847386810B103681B6859
:103A50009847D8F8000010B103689B689847002188
:103A6000E068FFF72DFC4FF0000B234B0546C0F834
:103A700004B05946036080F808B0A06803685B6A28
:103A80009847064601F008FE6068594603685B6A7D
:103A900098470446314601F0E5FDC9F80050C8F8E2
:103AA00000403E60E4B1231DCAF800303046336860
:103AB000C4F808A0DB68F4639847236820461B68B5
:103AC00098472946304619F03DFD2B6828461B696A
:103AD00098472B6828465B6998472046BDE8F88FD1
:103AE0002346E1E710DF02083DE602089CE00208F9
:103AF000E3E0020886E10208B0E70208D0F854319A
:103B000007B500F59C710093044BD0F85021044890
:103B1000FFF756FF03B05DF804FB00BFC0B80220FA
:103B2000BCB80220006A7047406A704770478B88B3
:103B30008069DB0A0A6850F823001044704710B50A
:103B4000C2B1137BB3B1547BD27A240204F4E06493
:103B50001443C26998B202EB840213888B4202D1EB
:103B600092F9020010BD05D80138043280B2002855
:103B7000F3D1F7E70020F5E710B50446282127F038
:103B800055F9204610BD000030B589B00446BDF897
:103B900050500695BDF84C5005959DF84050049541
:103BA0009DF83C5003959DF8385002959DF834508F
:103BB00001959DF83050009519F024F9064B2046E8
:103BC0002360119BA361129BE361159B2362169BEB
:103BD000636209B030BD00BFD4E70208704700003F
:103BE00030B5154D8DB02C78BFF35B8F14F0010408
:103BF0001ED1284627F01CF9D0B13F2301220F49DE
:103C000007930F4B0F4806930F4B089403940094AF
:103C1000CDE904430423CDE90944CDE901320A2367
:103C2000FFF7B2FF284627F00FF9084827F04AF9B6
:103C300004480DB030BD00BFC8850120382B03906B
:103C4000FC370308CC85012008380308DD3B000859
:103C50007047000030B5154D8DB02C78BFF35B8FE9
:103C600014F001041FD1284627F0E2F8D8B13F2311
:103C700001220F4907930F4B0F4806930F4B0894EF
:103C80000394CDE904430423CDE90944CDE901328D
:103C9000009324221423FFF777FF284627F0D4F857
:103CA000074827F00FF904480DB030BDF485012016
:103CB000482B039000380308F88501200C380308CE
:103CC000513C00087047000030B5154D8DB02C7880
:103CD000BFF35B8F14F001041ED1284627F0A8F82B
:103CE000D0B13F2301220F4907930F4B0F48069392
:103CF0000F4B089403940094CDE904430423CDE9C9
:103D00000944CDE901322823FFF73EFF284627F07A
:103D10009BF8084827F0D6F804480DB030BD00BF26
:103D200020860120402D03900438030824860120BA
:103D300010380308C53C0008002070470020704779
:103D40000EB403B503AB002153F8042B019318F014
:103D50008DFE02B05DF804EB03B070470CB407B5FC
:103D600004AB53F8042B019318F080FE03B05DF808
:103D700004EB02B070470000436C10B5044673B307
:103D8000038F2BB9184BC021184A194827F07CF82B
:103D9000C38E00EB43035B8C0BB31AF043F9238F04
:103DA000012B03D8134BC521134AEEE7E28E40F6F0
:103DB0003F10531C9BB2092B194688BFA3F10A017F
:103DC00004EB4101498C814209D10A2B04EB4202E8
:103DD00028BF0023508C04EB4303588451842046B1
:103DE000BDE810401AF002B824E802082DE80208E5
:103DF000D8E8020822E9020830E9020819F0AEBF4B
:103E000010B586B002AC84E806001A460AAB21461B
:103E100005930193099B0093089B17F03DFB06B0A7
:103E200010BD000038B518BB124B13481B6813496E
:103E3000B3B11A689C681A441C4402605A681A4458
:103E40000A600F4B00221A8000F038F8054600F097
:103E500033F80C4B1C600C4B1D600C4B188007E0BA
:103E60000B4B03600B4B0B600B4B1C68002CE8D119
:103E700038BD00BF4C8601205086012054860120A9
:103E800058860120D0B80220D8B80220D4B8022029
:103E9000A02D0390502D0390542E0390044B1B68CB
:103EA00053F82100034B1B6803EB4000704700BF31
:103EB0005486012050860120142070470048704726
:103EC0005C86012010B5054CFFF7C4FE2060FFF7AB
:103ED000FBFE6060FFF784FEA06010BD5C860120E1
:103EE0000020704781807047C18070470181704712
:103EF000418170477047704770477047704710B4F2
:103F0000C4880368121B84881B6D091B12B25DF8FC
:103F1000044B09B218474FF6FF7383814FF0FF330C
:103F200003621368C3611060704770477047704741
:103F30007047704790F825201AB190F8242002B1FC
:103F400018607047074A02600022C0E90122C0E9F8
:103F50000322C0E90522C0E907224FF4807282845F
:103F6000704700BF18230308036870B50446DB6A76
:103F7000154698472368204629461B6BBDE87040CC
:103F8000184770B504461D46BDF91060FFF7ECFFF9
:103F90002368294620465B6B9847236831462046B4
:103FA0009B6BBDE87040184710B5044626220021DF
:103FB00026F0FAFF2046FFF7C5FF044B204623609A
:103FC000FF2384F826300023A36210BDB01D030830
:103FD00070477047704730B444680346C2689B68B6
:103FE000551004EB6200D20748BF625930BC48BF8D
:103FF000D358184743682BB183682BB9C06800F0C9
:1040000001007047184670470120704710B50446FC
:10401000102126F00BFF204610BD10B504464FF4CA
:104020000C7126F003FF204610BD00F5F2708842A7
:1040300008B505D117F0BAFEBDE80840FFF7E0B8B3
:1040400008BD00002DE9F04F044600252DED028B40
:104050008BB0A14619F0CAF8884B04F16C07E563F0
:1040600049F8403B4846FFF79FFF3846FFF76AFF95
:1040700004F1980B824B04F1C40604F5A87A584663
:10408000E36604F5C678C4F89450FFF78DFF304618
:1040900014F060F929462622504626F085FF504646
:1040A000FFF750FF774A784B4046C4F850214FF64F
:1040B000FF72C4F87831A4F87C214FF47F02C4F871
:1040C0008051C4F88421A4F88851FFF73BFF04F520
:1040D000DC726B4B1046C4F8B451C4F88C3108EE56
:1040E000902AFFF761FF04F5F272104608EE102ADD
:1040F00016F018F9654B2A4629464846C4E9883423
:10410000634BC4E98A354FF4887300934FF4F0731E
:10411000FFF737FF4FF07F4229463846A26632222A
:104120004FF4F07300922A46FFF72BFF3222294604
:10413000584600924FF4F0732A46FFF722FF554B82
:1041400059463846C4F8C0300DF1200B14F022FA5D
:1041500019230D222946304600935023FFF711FF03
:1041600030464FF07F4113F0BAFF474B4FF00D023E
:10417000594630460893ADF8242013F0FCFF294639
:10418000304614F02DF94FF001022B46304684F8EA
:10419000F3200921292214F026F931463846DE267B
:1041A00014F0F8F950460D22C421FFF7DDFE364B1E
:1041B0004FF07F42594608930E23C4F880215046A1
:1041C000A4F88451ADF8243015F044FE5146384629
:1041D00014F0E0F9294640464FF4F073322200967D
:1041E000FFF7CFFE2A46294618EE900A4FF4F073E7
:1041F0000096FFF7C6FE284B18EE901A4046C4F80A
:10420000E03114F0C7F9294618EE100AA222FFF790
:10421000ABFE4FF0010306AA05A9ADF81430022346
:1042200018EE100ACDF800B0ADF8183007ABADF8B5
:104230001C50ADF8205015F0D1FF062318EE101ACF
:104240004046A4F81C32A4F81E3204F50873C4F8E2
:104250000C3214F09FF9201D4946039014F09AF98E
:104260003946039814F096F90398414614F092F9F0
:1042700020460BB0BDEC028BBDE8F08F24EA0208AB
:1042800018140308081D030808DF02080CEA0208D6
:104290002B400008E9ED68FFF0F2A2FF704770477D
:1042A000704730B444680346C2689B68551004EBFD
:1042B0006200D20748BF625930BC48BFD358184784
:1042C00043682BB183682BB9C06800F001007047C8
:1042D000184670470120704710B50446102126F09B
:1042E000A5FD204610BD10B504464FF4307126F0F0
:1042F0009DFD204610BD00F59670884208B505D199
:1043000017F054FDBDE80840FEF77ABF08BD000075
:1043100010B504462622002126F046FE2046FFF76F
:1043200011FE074B4FF47F0220462360054BA3622A
:104330004FF6FF73A3850023C4E90C32238710BD19
:10434000081D030808DF02082DE9F04F0446002588
:10435000BA4E4FF6FF7804F16C0904F1C40A04F573
:10436000B27704F5C87B2DED068B89B018F03EFFBF
:104370002246B34BE56342F8403B104608EE102A54
:10438000FFF712FE4846FFF7DDFD04F19803E666ED
:104390001846C4F8945009EE903AFFF705FE5046CF
:1043A000FFF7D0FD04F1F003C4F8C4601846C4F868
:1043B000EC5009EE103AFFF7ABFF04F5967329466F
:1043C000262208EE903A184626F0EEFD18EE900AE6
:1043D000FFF7B8FD4FF001032622294684F850313B
:1043E0003846984BA4F85A81C4F82C31A4F85C8163
:1043F00084F85E81A4F86081C4F8545184F858515F
:10440000ADF8188026F0D0FD3846FFF79BFD8E4BA7
:1044100006A93846C4F86431BDF8183084F88C8198
:1044200004F51D78A4F88A3115F0A3FF5846FFF76C
:1044300089FD04F5DE72C4F8906104F5F476104647
:10444000C4F8B8510AEE102AFFF7AEFD304613F05B
:1044500081FF4046FFF75CFF7C4B4FF48872294692
:1044600018EE100A00922A46C4E9AC34784BC4E92D
:10447000AE354FF4F073FFF784FD4FF07F422946CD
:104480004846A2664FF488724FF4F07300922A46B1
:10449000FFF777FDDE233222294619EE900A0093BA
:1044A0004FF4F073FFF76DFD6A4B19EE901A484612
:1044B000C4F8C03014F06EF864235046AC22009368
:1044C0007321FA23FFF75DFD19EE100A1922352139
:1044D000FFF74AFD604B4FF07F4206A90693112378
:1044E000C4F8202119EE100AA4F82451ADF81C30AC
:1044F00015F0B0FC19EE101A504614F04BF818EEF7
:10450000900A32223D21FFF72FFD042306AA05A9B8
:10451000ADF81430032318EE900AA4F86031ADF81A
:10452000183015F0D7FC04F52C7318EE901A50468D
:10453000C4F8543114F02EF85146484614F02AF8C5
:104540004C223846C021FFF70FFD062306A9384646
:10455000ADF8183015F00DFF39463227484614F0F3
:1045600019F82A462946584600974FF4F073FFF78A
:1045700008FD2A4629461AEE100A00974FF4F073F8
:10458000FFF7FFFC354B1AEE101A5846C4F8E43119
:1045900014F000F819230D222946304600935023C9
:1045A0002D4FFFF7EEFC30464FF07F4113F097FDA3
:1045B000122306A93046ADF81C30069713F0DBFD38
:1045C0002946304613F00CFF4FF0010329223046F4
:1045D00084F8173209212B4613F005FF314658465F
:1045E00013F0D8FF0D224046D321FFF7BDFC4FF05A
:1045F0007F4306A94046C4F8A4321323A4F8A85266
:10460000ADF81C30069715F025FC4146584613F0CE
:10461000C1FF201D18EE101A039013F0BBFF49468E
:10462000039813F0B7FF0398594613F0B3FF2046E1
:1046300009B0BDEC068BBDE8F08F00BF181403086D
:1046400070EA0208981C0308FC1F030858EA0208D5
:10465000F7420008242422FF08DF02081A1A1AFF72
:1046600070477047704730B444680346C2689B681F
:10467000551004EB6200D20748BF625930BC48BFF6
:10468000D358184743682BB183682BB9C06800F032
:1046900001007047184670470120704710B5044666
:1046A000102126F0C3FB204610BD10B504464FF480
:1046B0000C7126F0BBFB204610BD00F5F27088425D
:1046C00008B505D117F072FBBDE80840FEF798BDAC
:1046D00008BD00002DE9F04F044600252DED028BAA
:1046E0008BB0A14618F082FD894B04F16C07E5639D
:1046F00049F8403B4846FFF757FC3846FFF722FC95
:1047000004F1980B834B04F1C40604F5A87A5846CB
:10471000E36604F5C678C4F89450FFF745FC3046CC
:1047200013F018FE29462622504626F03DFC50463E
:10473000FFF708FC784A794B4046C4F850214FF601
:10474000FF72C4F87831A4F87C214FF47F02C4F8DA
:104750008051C4F88421A4F88851FFF7F3FB04F5D5
:10476000DC726C4B1046C4F8B451C4F88C3108EEBE
:10477000902AFFF719FC04F5F272104608EE102A91
:1047800015F0D0FD664B4FF48872294648460092DA
:104790002A46C4E98834634BC4E98A354FF4F07380
:1047A000FFF7EFFB4FF07F4229463846A2663222E0
:1047B0004FF4F07300922A46FFF7E3FB32222946BA
:1047C000584600924FF4F0732A46FFF7DAFB564B37
:1047D00059463846C4F8C0300DF1200B13F0DAFE0C
:1047E00019230D222946304600935023FFF7C9FBB9
:1047F00030464FF07F4113F072FC484B594630462B
:1048000008930F23ADF8243013F0B5FC2946304649
:1048100013F0E6FD4FF001022B46304684F8F320FA
:104820000921292213F0DFFD3146384613F0B2FE8C
:1048300050460D22D321FFF797FB384B4FF07F42B4
:10484000594608931023C4F880215046A4F8845197
:10485000ADF8243015F0FEFA5146384613F09AFEB2
:10486000DE2329464046009332224FF4F073FFF7CF
:1048700088FB4FF488732A46294618EE900A009365
:104880004FF4F073FFF77DFB284B18EE901A40466B
:10489000C4F8E03113F07EFE294618EE100AA22279
:1048A000FFF762FB4FF0010306AA05A9ADF814302B
:1048B000022318EE100ACDF800B0ADF8183007AB9F
:1048C000ADF81C50ADF8205015F088FC062318EE0A
:1048D000101A4046A4F81C32A4F81E3204F50873DE
:1048E000C4F80C3213F056FE201D4946039013F015
:1048F00051FE3946039813F04DFE0398414613F0DC
:1049000049FE20460BB0BDEC028BBDE8F08F00BF26
:10491000BCEA020818140308081D030808DF02088F
:10492000A4EA0208BB460008E9ED68FFF0F2A2FF26
:1049300070477047704730B444680346C2689B684C
:10494000551004EB6200D20748BF625930BC48BF23
:10495000D358184743682BB183682BB9C06800F05F
:1049600001007047184670470120704710B5044693
:10497000102126F05BFA204610BD10B5044640F227
:10498000245126F053FA204610BD08B500F51373E4
:10499000994205D117F00AFABDE80840FEF770BC4D
:1049A00000F53C73994205D117F000FABDE80840C4
:1049B000FEF756BC00F56573994205D117F0F6F97C
:1049C000BDE80840FEF73CBC00F58763994205D17D
:1049D00017F0ECF9BDE80840FEF722BC00F2DC401D
:1049E000814205D117F0E2F9BDE80840FEF758BC56
:1049F00008BD000010B50446FFF7A4FA024B20469C
:104A000023600023A36210BD181403082DE9F04FA2
:104A100007464FF0000A2DED108B8BB007F1980B75
:104A200018F0E4FB3A46F04B07F1C404C7F83CA089
:104A300007F5A87942F8403B104608EE902AFFF7A8
:104A4000B3FA07F16C0307F5C67607F5047807F5A6
:104A50002275184608EE103AFFF7CCFF5846FFF7CC
:104A6000A3FA204613F076FC4846FFF751FC304687
:104A7000FFF7C0FF07F5DC7318460FEE903AFFF71B
:104A800093FA07F5F273184609EE103AFFF7B2FFF2
:104A90004046FFF73DFC07F5137318460BEE903ABE
:104AA00015F040FC2846FFF7A5FF07F52D731846C3
:104AB0000CEE103AFFF72CFC07F53C7318460CEE91
:104AC000903A15F02FFC07F54B73184609EE903A13
:104AD000FFF790FF07F5567318460DEE103AFFF7F3
:104AE00017FC07F5657318460DEE903A15F01AFCA1
:104AF00007F5747318460AEE103AFFF77BFF07F5C7
:104B00007F7318460EEE103AFFF702FC07F5876335
:104B100018460EEE903A15F005FC07F2744318465D
:104B20000AEE903AFFF766FF07F5946318460FEE1A
:104B3000103AFFF7EDFB07F2DC43514626220BEE5D
:104B4000103A184626F030FA1BEE100AFFF7FAF971
:104B50004FF00103A54A514687F800354FF6FF7321
:104B600018EE900AC7F8DC24A7F80A355246A7F8D1
:104B70000C3587F80E35A7F810359D4BC7F804A5FE
:104B8000C7F814359B4B87F808A5C7F81C354FF4B8
:104B90008873C7F8187500934FF4F073C7F820A511
:104BA000FFF7EFF94FF07F42514618EE100ABA6650
:104BB00032224FF4F07300925246FFF7E2F93222AC
:104BC0005146584600924FF4F0735246FFF7D9F918
:104BD000894B594618EE100AC7F8C03013F0DAFCBA
:104BE000192250235146204600920D22DFF810B2C0
:104BF000FFF7C7F920464FF07F4113F070FA08A97C
:104C00002046CDF820B0ADF824A013F0B4FA5146F8
:104C1000204613F0E5FB4FF001032922204687F8D8
:104C2000F3300921534613F0DEFB214618EE100A3B
:104C3000DE2413F0AFFC0D224846D321FFF794F990
:104C40004FF07F4308A94846C7F880314FF0020370
:104C5000A7F884A1ADF82430CDF820B015F0FAF80B
:104C6000494618EE100A13F095FC51463046009460
:104C70004FF4F0733222FFF784F9524651461FEE8B
:104C8000900A00944FF4F073FFF77BF95B4B1FEE33
:104C9000901A3046C7F8E03107F2145913F07AFC45
:104CA0006422782319EE100A00924FF4B471162290
:104CB0000724FFF766F9404642221F21FFF754F907
:104CC0004FF07F4208A94046C7F840224FF0080243
:104CD000A7F844A2ADF82420CDF820B015F0BAF81A
:104CE000414619EE100A13F055FC1BEE900A0622FD
:104CF0001E21FFF739F94FF0020307A84FF0010218
:104D0000ADF8183008AB4FF00C0805A90093034626
:104D100006A8ADF81420ADF81C4002461BEE900A20
:104D2000ADF8204015F05AFA1BEE901A19EE100A51
:104D3000A7F88482A7F88682C7F8749213F02AFC39
:104D400019EE101A304613F025FC64207823162241
:104D50000090F0212846FFF714F942221CEE100AB9
:104D60001021FFF701F94FF07F4008A9A7F8E8A24A
:104D7000C7F8E4021CEE100AADF824400524CDF873
:104D800020B015F067F81CEE101A284613F002FC4C
:104D90001CEE900A06221E21FFF7E6F84FF00203F0
:104DA00007A84FF00102ADF8183008AB05A9ADF81F
:104DB00014200093034606A8ADF81C40ADF820402F
:104DC00002461CEE900A15F009FA1CEE901A2846CD
:104DD000A7F82883A7F82A83C7F8189313F0DAFBFB
:104DE000294630460EE000BF08EB0208981C030875
:104DF000F0EA02088B490008E9ED68FFF0F2A2FF33
:104E000008DF0208062513F0C5FB7823642016226C
:104E10001946009019EE900AFFF7B3F84222214696
:104E20001DEE100AFFF7A0F84FF07F4008A9A7F881
:104E30008CA3C7F888031DEE100ACDF820B0ADF89A
:104E4000245015F007F81DEE101A19EE900A13F011
:104E5000A1FB2A461DEE900A1E21FFF785F84FF0B0
:104E600008014FF002034FF00102ADF81C101DEED7
:104E7000900AADF8183008ABADF8201007A90093E0
:104E80000B4606A9ADF814200A4605A915F0A6F9A7
:104E90001DEE901A19EE900AA7F8CC83A7F8CE83DE
:104EA000C7F8BC9313F076FB19EE901A304613F056
:104EB00071FB642178231AEE100A009116225146E4
:104EC000FFF75FF842221EEE100A1521FFF74CF89B
:104ED0004FF07F411EEE100AA7F830A4C7F82C143B
:104EE00008A9ADF824400324CDF820B014F0B2FF97
:104EF0001EEE101A1AEE100A13F04CFB2A461EEE94
:104F0000900A1E21FFF730F84FF002034FF0010224
:104F100005A9ADF8183009231EEE900AADF814204B
:104F2000ADF81C3006AAADF8203008AB009307ABF3
:104F300015F054F91EEE901A1AEE100AA7F87084B4
:104F4000A7F87284C7F8609413F024FB1AEE101AC5
:104F5000304613F01FFB64231AEE900AAC22009334
:104F60007321FA23FFF70DF819221FEE100A3521DD
:104F7000FEF7FAFF4FF07F4308A91FEE100AC7F8AB
:104F8000D034A7F8D4A4CDF820B0ADF8244014F064
:104F900061FF1FEE101A1AEE900A13F0FBFA1BEED7
:104FA000100A32223D21FEF7DFFF042308AA07A9D9
:104FB000A7F810351BEE100AADF82030ADF81C40F4
:104FC00014F088FF1BEE101A1AEE900AC7F8049529
:104FD00013F0E0FA381D18EE901A039013F0DAFA85
:104FE00018EE101A039813F0D5FA3146039813F00F
:104FF000D1FA03981AEE901A13F0CCFA38460BB097
:10500000BDEC108BBDE8F08F70477047704730B42F
:1050100044680346C2689B68551004EB6200D207DF
:1050200048BF625930BC48BFD358184743682BB1BA
:1050300083682BB9C06800F00100704718467047BC
:105040000120704710B50446102125F0EFFE2046E0
:1050500010BD10B504464FF40C7125F0E7FE204654
:1050600010BD00F5F270884208B505D116F09EFE1D
:10507000BDE80840FEF7C4B808BD00002DE9F04FB8
:10508000044600252DED028B8BB0A14618F0AEF83A
:10509000884B04F16C07E56349F8403B4846FEF74E
:1050A00083FF3846FEF74EFF04F1980B824B04F164
:1050B000C40604F5A87A5846E36604F5C678C4F831
:1050C0009450FEF771FF304613F044F9294626222A
:1050D000504625F069FF5046FEF734FF774A784B7B
:1050E0004046C4F850214FF6FF72C4F87831A4F856
:1050F0007C214FF47F02C4F88051C4F88421A4F8C5
:105100008851FEF71FFF04F5DC726B4B1046C4F8A4
:10511000B451C4F88C3108EE902AFEF745FF04F52F
:10512000F272104608EE102A15F0FCF8654B2A467C
:1051300029464846C4E98834634BC4E98A354FF4AC
:10514000887300934FF4F073FEF71BFF4FF07F421C
:1051500029463846A26632224FF4F07300922A465E
:10516000FEF70FFF32222946584600924FF4F073A3
:105170002A46FEF706FF554B59463846C4F8C0305C
:105180000DF1200B13F006FA19230D2229463046A3
:1051900000935023FEF7F5FE30464FF07F4112F0AA
:1051A0009EFF474B5946304608930B23ADF82430F9
:1051B00012F0E1FF2946304613F012F94FF00102D8
:1051C0002B46304684F8F3200921292213F00BF9ED
:1051D00031463846DE2613F0DDF950460D22B9215E
:1051E000FEF7C2FE364B4FF07F42594608930C2320
:1051F000C4F880215046A4F88451ADF8243014F04E
:1052000029FE5146384613F0C5F9294640464FF469
:10521000F07332220096FEF7B4FE2A46294618EEB5
:10522000900A4FF4F0730096FEF7ABFE284B18EE91
:10523000901A4046C4F8E03113F0ACF9294618EE54
:10524000100AA222FEF790FE4FF0010306AA05A95C
:10525000ADF81430022318EE100ACDF800B0ADF806
:10526000183007ABADF81C50ADF8205014F0B6FF65
:10527000062318EE101A4046A4F81C32A4F81E3279
:1052800004F50873C4F80C3213F084F9201D494664
:10529000039013F07FF93946039813F07BF90398D4
:1052A000414613F077F920460BB0BDEC028BBDE808
:1052B000F08F00BF54EB020818140308081D030800
:1052C00008DF02083CEB020863500008E9ED68FFC4
:1052D000F0F2A2FF70477047704730B4446803464D
:1052E000C2689B68551004EB6200D20748BF625940
:1052F00030BC48BFD358184743682BB183682BB9DB
:10530000C06800F0010070471846704701207047E0
:1053100010B50446102125F089FD204610BD10B5BA
:1053200004464FF40C7125F081FD204610BD00F5B8
:10533000F270884208B505D116F038FDBDE8084086
:10534000FDF75EBF08BD00002DE9F04F04460025C3
:105350002DED028B8BB0A34617F048FF884B04F16C
:105360006C07E5634BF8403B5846FEF71DFE384698
:10537000FEF7E8FD04F1980A824B04F1C40604F537
:10538000A8795046E36604F5C678C4F89450FEF751
:105390000BFE304612F0DEFF29462622484625F055
:1053A00003FE4846FEF7CEFD774B4046C4F88051D9
:1053B000C4F85031754BA4F88851C4F878314FF6D1
:1053C000FF73A4F87C314FF47F03C4F88431FEF7F7
:1053D000B9FD6C4AC4F8B451C4F88C2104F5DC72F0
:1053E000104608EE902AFEF7DFFD04F5F272104633
:1053F00008EE102A14F096FF654B2A4629465846B7
:10540000C4E98834634BC4E98A354FF48873009348
:105410004FF4F073FEF7B5FD4FF07F422946384652
:10542000A26632224FF4F07300922A46FEF7A9FDDD
:1054300032222946504600924FF4F0732A46FEF776
:10544000A0FD554B51463846C4F8C0300DF1200A36
:1054500013F0A0F819230D2229463046009350235B
:10546000FEF78FFD30464FF07F4112F038FE474B7C
:105470004FF00902514630460893ADF8242012F04F
:105480007AFE2946304612F0ABFF4FF001022B4660
:10549000304684F8F3200921292212F0A4FF314676
:1054A0003846DE2613F076F848460D22C721FEF76F
:1054B0005BFD364B4FF07F42514608930A23C4F8F8
:1054C00080214846A4F88451ADF8243014F0C2FC81
:1054D0004946384613F05EF8294640464FF4F073CB
:1054E00032220096FEF74DFD2A46294618EE900A14
:1054F0004FF4F0730096FEF744FD284B18EE901A17
:105500004046C4F8E03113F045F8294618EE100A79
:10551000A222FEF729FD4FF0010306AA05A9ADF866
:105520001430022318EE100ACDF800A0ADF81830A0
:1055300007ABADF81C50ADF8205014F04FFE062319
:1055400018EE101A4046A4F81C32A4F81E3204F5D6
:105550000873C4F80C3213F01DF8201D594603904F
:1055600013F018F83946039813F014F803984146DD
:1055700013F010F820460BB0BDEC028BBDE8F08FA5
:10558000A0EB020818140308081D030808DF02082E
:1055900088EB02082F530008E9ED68FFF0F2A2FF44
:1055A000704710B504464FF4AC7125F03FFC20461F
:1055B00010BD10B50446D0F8540100F012F8204692
:1055C000BDE8104016F0C6BA10B50446FDF7E8FD78
:1055D000014B2046236010BDD4EB0208002202607C
:1055E00070477047704704387047704710B50446DD
:1055F000102125F01BFC204610BDA0F10400F5E7AA
:105600000022C1608260044A10B502F10804203211
:105610000460426010BD00BF10EC02087047704784
:10562000FEF7D7BC10B504464FF40C7125F0FEFB15
:10563000204610BD10B50446FEF704FD014B204680
:10564000236010BD40EC0208704704387047704773
:1056500010B50446102125F0E9FB204610BDA0F14D
:105660000400F5E70022C1608260044A10B502F12F
:10567000080420320460426010BD00BF6CEC0208D8
:1056800070477047FEF70BBE10B504464FF43071FB
:1056900025F0CCFB204610BD10B50446FEF754FEA5
:1056A000014B2046236010BD9CEC02087047043873
:1056B0007047704710B50446102125F0B7FB20460F
:1056C00010BDA0F10400F5E70022C1608260044A29
:1056D00010B502F1080420320460426010BD00BF22
:1056E000C8EC020870477047FEF7BBBF10B5044610
:1056F0004FF40C7125F09AFB204610BD10B50446FE
:10570000FEF7E8FF014B2046236010BDF8EC0208CD
:10571000704704387047704710B50446102125F0D3
:1057200085FB204610BDA0F10400F5E70022C16012
:105730008260044A10B502F108042032046042601D
:1057400010BD00BF24ED020870477047FFF7F1B8A5
:1057500010B5044640F2245125F068FB204610BDE8
:1057600010B50446FFF752F9014B2046236010BDE7
:1057700054ED0208704704387047704710B504466E
:10578000102125F053FB204610BDA0F10400F5E7E1
:105790000022C1608260044A10B502F10804203280
:1057A0000460426010BD00BF80ED02087047704782
:1057B000FFF72BBC10B504464FF40C7125F036FBF7
:1057C000204610BD10B50446FFF758FC014B20469B
:1057D000236010BDB0ED0208704704387047704771
:1057E00010B50446102125F021FB204610BDA0F184
:1057F0000400F5E70022C1608260044A10B502F19E
:10580000080420320460426010BD00BFDCED0208D5
:1058100070477047FFF75FBD10B504464FF40C7139
:1058200025F004FB204610BD10B50446FFF78CFDA3
:10583000014B2046236010BD0CEE020800B54FF46A
:10584000807295B04FF0807103460C9205220F9143
:1058500001210692002201910B92139200920B48B3
:10586000CDE90312CDE90D22CDE91122102206A9BE
:1058700002924FF4800205926A4601F0ABFD0038B7
:1058800018BF012015B05DF804FB00BF4CBD02201D
:1058900000B54FF4807395B041F2883217480C93ED
:1058A000062306A906930023CDE90D330F930B932E
:1058B0001393CDE9113301F04AFDE0B9022301222F
:1058C0004FF4800104900D48CDE900331023CDE959
:1058D000023205236A46CDE905134FF0807306A90D
:1058E0000F9341F2883301F075FD003818BF012095
:1058F00015B05DF804FB0120FAE700BF4CBD0220A3
:1059000000B54FF4807391B04FF040720E48089389
:10591000EB2302A902934FF4406309934FF4005321
:1059200005930023CDE90A320A220F9307926A46B3
:10593000CDE90D33CDE9003301F09CFD003818BFEF
:10594000012011B05DF804FB4CBD0220454B012144
:1059500045489A6B42F00202F0B59A638DB09A6B9B
:1059600009240427002602F00202404D0092009A0A
:105970009A6942F002029A619A6922F002029A61DF
:105980001A6B42F002021A631A6B02F002020192D1
:10599000019A1A6B42F002021A631A6B02F00202B9
:1059A0000292029A1A6B42F008021A631A6B02F012
:1059B00008020392039A1A6B42F008021A631A6BE8
:1059C00002F008020492049A1A6B42F010021A6361
:1059D0001A6B02F010020592059A1A6B42F0080247
:1059E0001A6340221B6B03F008030693069B0223F5
:1059F000CDE907230323CDE909130A2307A90B9354
:105A000000F040FC07A91848079709960B9400F08E
:105A100039FC4FF4006307A928460B94079300F064
:105A200031FC4FF4805307A928460B94079300F0EC
:105A300029FC07A90E4807970B9400F023FC4FF4AC
:105A4000005307A928460B94079300F01BFC32462D
:105A50000F215C2000F0D8F95C2000F007FA0DB0AF
:105A6000F0BD00BF0038024000040240000C0240BC
:105A700000100240F0B5494C91B0494B20462360DC
:105A800001F052FC054610B1012011B0F0BD0146F5
:105A90002046FFF75BFF012604234FF08077C4E91F
:105AA00001631023E36097FAA7F3B3FA83F3204668
:105AB000013B23614FF4A063C4E90755C4E90535F0
:105AC00001F0DEFB0028DFD14FF4807566230B90D8
:105AD00041F28832079002A90F9008950293CDE910
