:020000040800F2
:100000000000052029190008491800084B180008AD
:100010004D1800084F180008511800080000000093
:10002000000000000000000000000000A190000897
:10003000531800080000000041910008A591000835
:100040007919000879190008791900087919000848
:100050007919000879190008791900087919000838
:100060007919000879190008791900087919000828
:100070007919000879190008791900087919000818
:100080007919000879190008791900087919000808
:1000900079190008791900087919000879190008F8
:1000A00079190008791900087919000879190008E8
:1000B00079190008791900087919000879190008D8
:1000C00079190008791900087919000879190008C8
:1000D00079190008791900087919000879190008B8
:1000E00079190008791900087919000879190008A8
:1000F0007919000879190008791900087919000898
:100100007919000879190008791900087919000887
:10011000791900087919000855180008791900089C
:100120007919000879190008791900087919000867
:100130007919000879190008791900087919000857
:100140007919000879190008791900087919000847
:100150007919000879190008791900087919000837
:100160007919000879190008791900087919000827
:1001700079190008791900087919000800000000B1
:100180007919000879190008791900087919000807
:1001900079190008791900087919000879190008F7
:1001A00061180008791900086D180008791900080D
:1001B00079190008791900087919000879190008D7
:0801C000791900087919000803
:1001D00010B5054C237833B9044B13B10448AFF381
:1001E00000800123237010BDA46D012000000000D9
:1001F00040C6020808B5034B1BB103490348AFF3DF
:10020000008008BD00000000A86D012040C6020863
:1002100001F0FF01102A2BDB10F0070F08D010F8B7
:10022000013B013A8B422DD010F0070F42B3F6D1BB
:10023000F0B441EA012141EA014122F007047FF0D4
:1002400000070023F0E80256083C85EA010586EA2B
:10025000010685FA47F5A3FA87F586FA47F6A5FA67
:1002600087F68EB9EED1F0BC01F0FF0102F0070273
:1002700032B110F8013B013A83EA010313B1F8D11E
:100280000020704701387047002D06BF35460338FF
:10029000073815F0010F07D1013015F4807F02BF38
:1002A000013015F4C03F0130F0BC0138704700BF89
:1002B00081F0004102E000BF83F0004330B54FEA17
:1002C00041044FEA430594EA050F08BF90EA020F84
:1002D0001FBF54EA000C55EA020C7FEA645C7FEA17
:1002E000655C00F0E2804FEA5454D4EB5555B8BF3A
:1002F0006D420CDD2C4480EA020281EA030382EAAB
:10030000000083EA010180EA020281EA0303362D3C
:1003100088BF30BD11F0004F4FEA01314FF4801C0F
:100320004CEA113102D0404261EB410113F0004F21
:100330004FEA03334CEA133302D0524263EB4303D8
:1003400094EA050F00F0A780A4F10104D5F1200E76
:100350000DDB02FA0EFC22FA05F2801841F10001D1
:1003600003FA0EF2801843FA05F359410EE0A5F1A5
:1003700020050EF1200E012A03FA0EFC28BF4CF0D6
:10038000020C43FA05F3C01851EBE37101F000458C
:1003900007D54FF0000EDCF1000C7EEB00006EEB99
:1003A0000101B1F5801F1BD3B1F5001F0CD3490823
:1003B0005FEA30004FEA3C0C04F101044FEA44527A
:1003C00012F5800F80F09A80BCF1004F08BF5FEA01
:1003D000500C50F1000041EB045141EA050130BDE1
:1003E0005FEA4C0C404141EB0101013C28BFB1F5F3
:1003F000801FE9D291F0000F04BF01460020B1FA3E
:1004000081F308BF2033A3F10B03B3F120020CDA10
:100410000C3208DD02F1140CC2F10C0201FA0CF0EE
:1004200021FA02F10CE002F11402D8BFC2F1200C53
:1004300001FA02F120FA0CFCDCBF41EA0C01904009
:10044000E41AA2BF01EB0451294330BD6FEA040452
:100450001F3C1CDA0C340EDC04F11404C4F120023D
:1004600020FA04F001FA02F340EA030021FA04F34F
:1004700045EA030130BDC4F10C04C4F1200220FAA6
:1004800002F001FA04F340EA0300294630BD21FAE4
:1004900004F0294630BD94F0000F83F4801306BFAA
:1004A00081F480110134013D4EE77FEA645C18BF9E
:1004B0007FEA655C29D094EA050F08BF90EA020F35
:1004C00005D054EA000C04BF1946104630BD91EA2D
:1004D000030F1EBF0021002030BD5FEA545C05D130
:1004E0004000494128BF41F0004130BD14F580046F
:1004F0003CBF01F5801130BD01F0004545F0FE41E3
:1005000041F470014FF0000030BD7FEA645C1ABF17
:10051000194610467FEA655C1CBF0B46024650EA4E
:10052000013406BF52EA033591EA030F41F400217A
:1005300030BD00BF90F0000F04BF0021704730B500
:100540004FF4806404F132044FF000054FF00001D5
:1005500050E700BF90F0000F04BF0021704730B596
:100560004FF4806404F1320410F0004548BF40426B
:100570004FF000013EE700BF42004FEAE2014FEAC0
:1005800031014FEA02701FBF12F07F4393F07F4F9B
:1005900081F06051704732F07F4208BF704793F09E
:1005A0007F4F04BF41F40021704730B54FF46074B1
:1005B00001F0004521F000411CE700BF50EA0102B4
:1005C00008BF704730B54FF000050AE050EA01025D
:1005D00008BF704730B511F0004502D5404261EBCD
:1005E00041014FF4806404F132045FEA915C3FF40E
:1005F000D8AE4FF003025FEADC0C18BF03325FEAAB
:10060000DC0C18BF033202EBDC02C2F1200300FA5B
:1006100003FC20FA02F001FA03FE40EA0E0021FA80
:1006200002F11444BDE600BF70B54FF0FF0C4CF46E
:10063000E06C1CEA11541DBF1CEA135594EA0C0F20
:1006400095EA0C0F00F0DEF82C4481EA030621EA5B
:100650004C5123EA4C5350EA013518BF52EA033596
:1006600041F4801143F4801338D0A0FB02CE4FF048
:100670000005E1FB02E506F00042E0FB03E54FF078
:100680000006E1FB03569CF0000F18BF4EF0010E70
:10069000A4F1FF04B6F5007F64F5407404D25FEA6C
:1006A0004E0E6D4146EB060642EAC62141EA55511F
:1006B0004FEAC52040EA5E504FEACE2EB4F1FD0C61
:1006C00088BFBCF5E06F1ED8BEF1004F08BF5FEADF
:1006D000500E50F1000041EB045170BD06F0004691
:1006E00046EA010140EA020081EA0301B4EB5C043E
:1006F000C2BFD4EB0C0541EA045170BD41F4801136
:100700004FF0000E013C00F3AB8014F1360FDEBF5A
:10071000002001F0004170BDC4F10004203C35DA36
:100720000C341BDC04F11404C4F1200500FA05F3B9
:1007300020FA04F001FA05F240EA020001F000425A
:1007400021F0004110EBD37021FA04F642EB0601D0
:100750005EEA430E08BF20EAD37070BDC4F10C04FA
:10076000C4F1200500FA04F320FA05F001FA04F2BE
:1007700040EA020001F0004110EBD37041F10001AA
:100780005EEA430E08BF20EAD37070BDC4F12005B5
:1007900000FA05F24EEA020E20FA04F301FA05F21D
:1007A00043EA020321FA04F001F0004121FA04F2C5
:1007B00020EA020000EBD3705EEA430E08BF20EA95
:1007C000D37070BD94F0000F0FD101F000464000CF
:1007D00041EB010111F4801F08BF013CF7D041EA51
:1007E000060195F0000F18BF704703F00046520055
:1007F00043EB030313F4801F08BF013DF7D043EA26
:100800000603704794EA0C0F0CEA135518BF95EADB
:100810000C0F0CD050EA410618BF52EA4306D1D162
:1008200081EA030101F000414FF0000070BD50EA81
:10083000410606BF1046194652EA430619D094EA0B
:100840000C0F02D150EA013613D195EA0C0F05D1F5
:1008500052EA03361CBF104619460AD181EA030149
:1008600001F0004141F0FE4141F470014FF0000001
:1008700070BD41F0FE4141F4780170BD70B54FF09C
:10088000FF0C4CF4E06C1CEA11541DBF1CEA13551C
:1008900094EA0C0F95EA0C0F00F0A7F8A4EB0504FE
:1008A00081EA030E52EA03354FEA013100F08880F5
:1008B0004FEA03334FF0805545EA131343EA1263BE
:1008C0004FEA022245EA111545EA10654FEA002673
:1008D0000EF000419D4208BF964244F1FD0404F52C
:1008E000407402D25B084FEA3202B61A65EB030588
:1008F0005B084FEA32024FF480104FF4002CB6EB45
:10090000020E75EB030E22BFB61A754640EA0C00C4
:100910005B084FEA3202B6EB020E75EB030E22BF04
:10092000B61A754640EA5C005B084FEA3202B6EB45
:10093000020E75EB030E22BFB61A754640EA9C0004
:100940005B084FEA3202B6EB020E75EB030E22BFD4
:10095000B61A754640EADC0055EA060E18D04FEA92
:10096000051545EA16754FEA06164FEAC30343EA32
:1009700052734FEAC2025FEA1C1CC0D111F4801FFF
:100980000BD141EA00014FF000004FF0004CB6E7F8
:1009900011F4801F04BF01430020B4F1FD0C88BF97
:1009A000BCF5E06F3FF6AFAEB5EB030C04BFB6EBA2
:1009B000020C5FEA500C50F1000041EB045170BD95
:1009C0000EF0004E4EEA113114EB5C04C2BFD4EBC2
:1009D0000C0541EA045170BD41F480114FF0000E46
:1009E000013C90E645EA060E8DE60CEA135594EAC2
:1009F0000C0F08BF95EA0C0F3FF43BAF94EA0C0FC5
:100A00000AD150EA01347FF434AF95EA0C0F7FF439
:100A100025AF104619462CE795EA0C0F06D152EA8D
:100A200003353FF4FDAE1046194622E750EA410671
:100A300018BF52EA43067FF4C5AE50EA41047FF482
:100A40000DAF52EA43057FF4EBAE12E74FEA4102E5
:100A5000B2F1E04324BFB3F5001CDCF1FE5C0DD91C
:100A600001F0004C4FEAC0024CEA5070B2F1004F66
:100A700040EB830008BF20F00100704711F0804F69
:100A800021D113F13872BCBF01F00040704741F42E
:100A900080114FEA5252C2F11802C2F1200C10FA32
:100AA0000CF320FA02F018BF40F001004FEAC12316
:100AB0004FEAD32303FA0CFC40EA0C0023FA02F3BA
:100AC0004FEA4303CCE77FEA625307D150EA013390
:100AD0001EBF4FF0FE4040F44000704701F0004060
:100AE00040F0FE4040F40000704700BF53B94AB9DF
:100AF000002908BF00281CBF4FF0FF314FF0FF3026
:100B000000F06EB9ADF1080C6DE904CE00F006F806
:100B1000DDF804E0DDE9022304B070472DE9F04779
:100B2000089D04468C46002B40F083808A4217467D
:100B300047D9B2FA82F242B1C2F1200024FA00F0A1
:100B40009140974040EA010C94404FEA1748230C2B
:100B5000BCFBF8F61FFA87FE08FB16C143EA014307
:100B600006FB0EF1994209D9FB1806F1FF3080F01F
:100B70001981994240F21681023E3B445B1AA4B2AD
:100B8000B3FBF8F008FB103344EA034400FB0EFE0D
:100B9000A64509D93C1900F1FF3380F00581A6452F
:100BA00040F2028102383C4440EA0640A4EB0E04C5
:100BB00000261DB1D4400023C5E900433146BDE8FD
:100BC000F08702B9FFDEB2FA82F2002A50D1CB1BC5
:100BD0004FEA174E1FFA87F80126B3FBFEFC210CE3
:100BE0000EFB1C3341EA034108FB0CF38B4207D98F
:100BF00079180CF1FF3002D28B4200F2E980844672
:100C0000C91AA3B2B1FBFEF00EFB101143EA014476
:100C100008FB00F8A04507D93C1900F1FF3302D2C8
:100C2000A04500F2D9801846A4EB080440EA0C4025
:100C3000BFE78B4209D9002D00F0B1800026C5E93D
:100C4000000130463146BDE8F087B3FA83F6002E46
:100C50004AD18B4202D3824200F2B880841A61EBFF
:100C6000030101208C46002DA8D0C5E9004CA5E762
:100C7000C2F1200320FA03F6974001FA02F04FEA8E
:100C8000174ED9403043030CB1FBFEF61FFA87F82C
:100C90000EFB161143EA014306FB08F1994204FAE0
:100CA00002F409D9FB1806F1FF3C80F08D809942CF
:100CB00040F28A80023E3B445B1A81B2B3FBFEF0F5
:100CC0000EFB103341EA034100FB08F38B4207D9C6
:100CD000791800F1FF3C73D28B4271D90238394444
:100CE000CB1A40EA064678E7C6F1200C03FA06F470
:100CF00022FA0CF31C4320FA0CF701FA06F34FEA30
:100D0000144E21FA0CF11F433B0CB1FBFEF91FFA04
:100D100084F80EFB191143EA014109FB08FA8A45E0
:100D200002FA06F200FA06F308D9611809F1FF3059
:100D300048D28A4546D9A9F102092144A1EB0A010A
:100D4000BFB2B1FBFEF00EFB101147EA014700FBFA
:100D500008F8B84507D9E71900F1FF312ED2B84598
:100D60002CD90238274440EA0940A7EB0807A0FB2A
:100D700002894F45C64649461AD317D05DB1B3EB39
:100D80000E0267EB010707FA0CFCF2404CEA020284
:100D9000F740C5E9002700263146BDE8F0872E461A
:100DA00028460BE70646E9E61846FDE64345E5D248
:100DB000B8EB020E69EB04010138DFE70846D2E721
:100DC00060468DE78146B9E7664675E730464AE7F3
:100DD000ACF1020C394413E702383C4424E700BF6D
:100DE000704700BF0149002009F07ABBAD1C000824
:100DF00008B5642007F074FDFBE7000010B594B05F
:100E00001022002102240AA82AF05AFA14220021F2
:100E100003A82AF055FA1D4B192108A81A6C42F0B4
:100E200080521A641B6C03F080530193019B184B92
:100E30001A6842F440421A6001221B6803F44043DE
:100E40000293029B4FF48033CDE908234FF48003D3
:100E5000CDE90E434FF4C873CDE91244CDE9101328
:100E600006F0FCFC06F0A2F90F2300200621CDE9D4
:100E700003344FF4A053CDE905034FF4805303A886
:100E8000079306F0D7FE14B010BD00BF0038024033
:100E9000007000402DE980489BB000211022012500
:100EA0000DA800242AF00CFA05F0B4F84FF0104217
:100EB000CA4B0DA8ADF834501094CDE90E2305F0BF
:100EC000CBF817230DA88DF835508DF83C308DF8F0
:100ED000425005F0C1F8042005F0ACF8BFF34F8F85
:100EE000BFF36F8FBE4BC3F85042BFF34F8FBFF3BA
:100EF0006F8F5A6942F400325A61BFF34F8FBFF3CC
:100F00006F8FC3F88440BFF34F8FD3F8802043F630
:100F1000E074C2F3C900C2F34E32520102EA040681
:100F2000014646EA81750139C3F86052F9D2203A88
:100F300012F1200FF2D1BFF34F8F5A6942F4803281
:100F40005A61BFF34F8FBFF36F8F04F0C7FF0024C8
:100F5000FFF754FF142200210DA82AF0B1F9A14B8C
:100F60000821A1481A6B01274FF0080B4FF4805A53
:100F700042F010029D4D9E4E4FF004091A634FF04F
:100F800010081A6B02F010020292029A1A6B42F0D9
:100F900001021A631A6B02F001020392039A1A6BA0
:100FA00042F002021A631A6B02F002020492049ADF
:100FB0001A6B42F040021A631A6B02F0400205926B
:100FC000059A1A6B42F400721A631A6B02F40072EB
:100FD0000692069A1A6B42F008021A631A6B02F024
:100FE00008020792079A1A6B42F480621A631A6B1E
:100FF00002F480620892089A1A6B42F020021A6387
:101000001A6B02F020020992099A1A6B42F480725C
:101010001A631A6B02F480720A920A9A1A6B42F0EF
:1010200080021A631A6B02F080020B920B9A1A6B01
:1010300042F004021A6301221B6B03F004030C93B9
:101040000C9B05F057FB01224FF48051694805F0D5
:1010500051FB0DA96448CDE90DB7CDE90F4405F06A
:10106000C3F90DA96348CDE90DA7CDE90F4405F0FB
:10107000BBF96148614B848003600762C0E90544A5
:1010800005F012F85E4B2846C5E90A44C5E90C4450
:10109000C5E90034C5E9024405F0A5F839462846FB
:1010A000584D05F059F9584B40220DA93046B4600F
:1010B000F461B462C6E900344FF4C073C6E9052395
:1010C0004FF40063C6E9083A4FF0020A0723CDE95E
:1010D0000DA3CDE90F930323CDF84CA0CDE9113A30
:1010E000C6E9039807F0FCF829464FF6FF72304630
:1010F0000194C5E90078C5E9027407F011F9384692
:1011000004F010FF29464FF6FF723046C5E900A8EB
:10111000C5E9027407F004F9032329464FF6FF726C
:101120003046C5E90038C5E902B407F0F9F84FF4D4
:101130000C734FF6FF72294601933046019B4FF026
:10114000180BAF60EB60C5E9009807F0E9F840F2D2
:101150002B7130462D4D07F002F943F2D2024FF0C9
:1011600020432B49284635261A602A4B2C62C5E9B4
:101170000013C5E90247C5E90444C5E9064405F082
:1011800051FC2146284605F029FE21462846224DDD
:1011900005F04AFE342221460DEB02002AF090F8B9
:1011A0001E4B282040F2152C40F2352EAC862C61C7
:1011B00085F83640C5E900340923C5E905030B234A
:1011C0002846C5E9076340F21B13C5E909C340F28D
:1011D0001D13C5E90244C5E90BE321E01B00000330
:1011E00000ED00E0003802400028024038BD022037
:1011F0007CBD02200020024068BC0220003002407A
:1012000000B00240C06D0120400100A01CBC0220C3
:10121000005C0040FFEAC0008CBC02200068014076
:1012200005F0AEFE4FF48873FF214FF4F0722846AC
:1012300018930D94ADF864408DF86640CDE9103AEE
:10124000CDE912144FF4806A0521CDE914A14FF0C5
:101250004041CDE90E24CDE9161222460DA905F034
:101260005AFF1A481A4B0462C0E900374FF4A063D2
:10127000C0E90298C0E904B3C0E9064406F0B2F838
:1012800004F0AAFC04F0EEFB5C2004F0AFFE00F0DA
:1012900049FB00F072FB07F093FA0E4A21460E4814
:1012A00007F0C8FA0D4B0E4A214618600D4807F0AA
:1012B000C1FA0D4B0D4A214618600D4807F0BAFAE5
:1012C0000C4B186007F096FAFEE700BFB0BD022095
:1012D000001000A0E0C60208F10D000818BC0220B2
:1012E000BCC602087F19000834BD022004C70208EA
:1012F000E52F000878BD02200268034B9A4201D115
:1013000004F0FEBD704700BF0010004070470000B1
:101310000D4B82B00F216FF001001A6C42F0805229
:101320001A641A6C02F080520092009A5A6C42F4CD
:1013300080425A6400225B6C03F480430193019B5A
:1013400002B004F013BE00BF00380240026882B051
:10135000084B9A420BD1D3F8302803F5006342F4CE
:1013600080521A631B6B03F480530193019B02B0FC
:10137000704700BF003002400E4B07B502689A422A
:1013800015D1A3F5F04305215A201A6B42F400024F
:101390001A6300221B6B03F400030193019B04F00A
:1013A000E5FD5A2003B05DF804EB04F011BE03B074
:1013B0005DF804FB00B0024010B5A8B0044614224A
:1013C000002102A829F07CFF8422002107A829F02F
:1013D00077FF2268184B9A422CD14FF4803307A82C
:1013E00007930023229306F0F3FC08B1FFF78EFF6A
:1013F000124C4FF4C07201211148236B43F080035B
:101400002363236B03F080030093009B1223CDE939
:1014100002230323CDE90413042302A9069304F055
:10142000E3FF236C43F400032364236C03F4000301
:101430000193019B28B010BD005C004000380240C1
:10144000001C0240026808B5094B9A420FD1094AB4
:1014500080210948136C23F40003136405F0A8F8F5
:101460004FF480710448BDE8084005F0A1B808BDFC
:10147000005C004000380240001C024070B5ACB077
:1014800004461422002106A829F01AFF8422002114
:101490000BA829F015FF2268494B9A4240F08E8034
:1014A0000823052001250B934FF4C07310930223EA
:1014B000CDE9113000230BA813934FF40033CDE98D
:1014C000155306F085FC08B1FFF720FF3D4B0024C3
:1014D00002250E265A6C06A93B4842F080625A64E7
:1014E0005A6C02F080620092009A1A6B42F010026D
:1014F0001A631A6B02F010020192019A1A6B42F4FD
:1015000000721A631A6B02F400720292029A1A6B4A
:1015100042F480621A631A6B02F480620392039AA7
:101520001A6B42F040021A631A6B02F040020492F6
:10153000049A1A6B42F480721A631B6B03F4807373
:101540000593059B1023CDE90635CDE908440A969D
:1015500004F04AFF4EF6FF7306A91C480A96CDE92F
:101560000635CDE9084404F03FFFF72306A91848E3
:101570000A96CDE90635CDE9084404F035FF4FF46D
:10158000805306A91348CDE906350923CDE908445F
:101590000A9304F029FF4FF4464306A90E480A9621
:1015A000CDE90635CDE9084404F01EFF5820224657
:1015B000052104F0DBFC582004F00AFD2CB070BDBE
:1015C0000068014000380240001002400024024040
:1015D000002802400018024000200240142200218E
:1015E0002DE9F0418AB004460DEB020029F068FEB7
:1015F00022682C4B9A4252D12B4B02260025032401
:101600009A6B09274FF0040805A942F00202274807
:101610009A639A6B02F002020192019A1A6B42F0ED
:1016200010021A631A6B02F010020292029A1A6BED
:1016300042F002021A631A6B02F002020392039A4A
:101640001A6B42F008021A631B6B099703F0080338
:101650000493049BCDE90586CDE9075404F0C4FE4C
:10166000402305A91248CDE905360A23CDE90754E0
:10167000099304F0B9FE05A90D480997CDE905863F
:10168000CDE9075404F0B0FE4FF4605305A90948B2
:101690000997CDE90536CDE9075404F0A5FE0AB057
:1016A000BDE8F081001000A00038024000100240A8
:1016B00000040240000C0240026808B50B4B9A423D
:1016C00013D10B4A04210B48936B23F0020393635D
:1016D00004F06EFF4421084804F06AFF4FF46051A3
:1016E0000648BDE8084004F063BF08BD001000A034
:1016F000003802400010024000040240000C02408A
:101700002B4BF0B51C6887B0002C4ED1012202276C
:1017100003260C251A6001A9264B27489A6B42F034
:1017200001029A639B6B039403F001030093009BF7
:101730004FF68373CDE90465CDE9013704F054FE1B
:1017400048F2331301A91D480595CDE90137CDE9CC
:10175000034604F049FE4CF2037301A918480595AD
:10176000CDE90137CDE9034604F03EFE4FF63F03D5
:1017700001A914480595CDE90137CDE9034604F0E8
:1017800033FE282301A910480595CDE90137CDE99D
:10179000034604F029FE082301A90C480595CDE96C
:1017A0000137CDE9034604F01FFE07B0F0BD00BFCE
:1017B000D06D0120003802400010024000180240A5
:1017C000000C024000140240001C024000080240CD
:1017D00010B5014688B00022362004F0C7FB362041
:1017E00004F0F6FB144B01A903A81A6C134C42F049
:1017F00010021A641B6C03F010030293029B06F0A4
:10180000C9FA06F0B7FA0E4B4000236040F2E73306
:10181000E3600C4BB0FBF3F001380023606020461E
:101820002361A36006F00CFF20B9204606F0B0FD4E
:1018300008B010BD0120FBE700380240FCBD0220CB
:101840000010004040420F007047FEE7FEE7FEE751
:10185000FEE77047014806F0DDBD00BFFCBD022079
:10186000014805F0FBBB00BF8CBC0220014804F01E
:10187000E8BC00BF38BD02200120704708B529F040
:10188000C1FC162303604FF0FF3008BD08B529F0F6
:10189000B9FC16230360FEE770B50E46144600251A
:1018A000A54201DB204670BDAFF3008070550135C5
:1018B000F6E770B50E4614460025A54201DB20462A
:1018C00070BD705D0135AFF30080F6E74FF0FF307B
:1018D00070474FF4005300204B6070470120704761
:1018E000002070470B4B0246196810B509B90A4928
:1018F0001960186809490A4C0244091B8A4206D932
:1019000029F080FC0C2303604FF0FF3010BD1A60FB
:10191000FCE700BFD46D0120E8BE022000000520D6
:10192000000A000070470000DFF834D0002103E017
:101930000C4B5B58435004310B480C4B42189A42F5
:10194000F6D30B4A02E0002342F8043B094B9A42CB
:10195000F9D304F0D9F929F06DFCFFF79BFA704731
:1019600000000520703C0308000000202401002036
:10197000A46D0120E8BE0220FEE700F0D1BF01F017
:101980003FB840687047416070470000094A1368DB
:1019900043F080731360A2F54E42074B52F84C1C83
:1019A0004C3A0B431360A2F57B62136843F00103CA
:1019B00013607047FCED00E055CEACC5511A01EB49
:1019C0005301B1FBF3F07047014B1868704700BF3B
:1019D000041000E0704710B504460C2129F0B2FB5A
:1019E000204610BD036810B51B69044631B1984705
:1019F000A26863689B1A1844606010BD9847A06095
:101A0000FBE70000024B7020024A1360DB681847B6
:101A100010000020D86D0120704710B50446042145
:101A200029F090FB204610BD37B50A4D0C462B68B7
:101A300013B9002003B030BD1B6970200192984794
:101A400001990028F5D02B68702022465B699847E1
:101A50000120EFE7D86D01207FB501238DF8172015
:101A60004FF47A72CDE901320DF1170200920A4665
:101A70000146054805F040F810B1034805F023F889
:101A800007B05DF804FB00BF1CBC02207FB500233B
:101A90000A464FF47A718DF817300123CDE90131F0
:101AA0000DF1170100910146054805F0DBF810B172
:101AB000034805F008F89DF8170007B05DF804FB2F
:101AC0001CBC0220704770477047012380F87410D7
:101AD00080F8753070470020704700207047836B96
:101AE0000BB10846184770474FF6FF7070474068C3
:101AF00003689B691847704738B5044601F058F8E9
:101B00000A4A4FF0404123682046D3F88450084BDE
:101B1000A8470023074D84F84A302846FFF736FFD0
:101B20000123256184F86C3038BD00BF00FC03C080
:101B300000F807C0DC6D012008B531B90A4B4FF43D
:101B40002B710A4A0A4829F02BFBC0E90F12003A10
:101B50000849436418BF0122003B0A7018BF0123E3
:101B6000054A137008BD00BF68C70208A0C7020875
:101B7000EEC702087AB902207BB9022008B5094BEA
:101B80001B888B4203D8084B1B88934205D9074B0F
:101B90009E21074A074829F003FB074B1980074B92
:101BA0001A8008BD70B9022072B9022033C8020839
:101BB00096C80208EEC7020876B9022078B902205A
:101BC00000F0D6BF00F0DABF70B501F07FF8104A20
:101BD0000023C2F88430BFF34F8FD2F8803043F631
:101BE000E074C3F3C900C3F34E335B0103EA040698
:101BF000014646EA81750139C2F87452F9D2203B98
:101C000013F1200FF2D1BFF34F8FBFF36F8F70BD71
:101C100000ED00E001F068B800F086BF01F01AB9ED
:101C200001F022B900F08ABF10B5044617F00AFE91
:101C300023682046D3F8A430BDE81040184716F0BA
:101C4000ABBF10B504467C2129F07CFA204610BDBC
:101C500090F877301BB1406803681B681847184636
:101C60007047000090F834100D4B10B590F8744098
:101C70001A788C4209D03AB90A490B4A0888148864
:101C8000108001220C801A7010BD002AFCD0064A78
:101C90000449148808880C8010800022F3E700BFF4
:101CA00074B9022072B9022070B90220014608B549
:101CB000034B186801B1012117F0DEFD012008BDBA
:101CC0007CB90220034B00225A609A60024A1A60D3
:101CD000704700BFDC6D012030C7020801210022DF
:101CE00008B5084606F0B2FE0A4B186028B90A4B40
:101CF00028210A4A0A4829F053FA00220421012027
:101D000006F06AFF074B186018B9074B2C21034AED
:101D1000F0E708BDEC6D0120ACC90208F5C9020866
:101D200024CA0208E86D01208ACA0208024B4FF05B
:101D3000FF31186806F0E0BEEC6D0120014B186819
:101D400006F014BFEC6D0120024B0021186806F06C
:101D5000D3BE00BFEC6D0120FFF7F0BF00230348A6
:101D600003491A46006806F07DBF00BFE86D0120F8
:101D70000400002013B50023074C01A91A4620686F
:101D800006F0B2FF4FF0FF33002201A9206806F0F1
:101D9000ABFF02B010BD00BFE86D012003685B6CB3
:101DA00018470120704703689B6A18470D4B82B0A3
:101DB0001A6B42F400021A631A6B02F400020192D9
:101DC000019A1A6942F400021A611A6922F40002A7
:101DD0001A61054B054A1A614FF08062044B9A6004
:101DE00002B070470038024038BD0220FD1D0008D7
:101DF00000E100E040F2EF3070470000024B1B684A
:101E0000586803685B6918477CB9022008B50B283D
:101E10000BD8DFE800F01206100A0A0A0A080808C0
:101E20000808012008BD0520FCE7054B6621054A8E
:101E3000054829F0B5F90020F4E70220F2E700BFD9
:101E4000CCCA0208E7CA020831CB020808B50A2842
:101E500009D8DFE800F010060E0808080806060694
:101E60000600012008BD054B8721054A054829F0D9
:101E700097F90020F6E70220F4E700BFCCCA020879
:101E800095CB020831CB02082DE9F84391F81D806B
:101E90000C464046FFF7BAFFA77F05463846FFF7D6
:101EA000B5FF06463846FFF7D1FFA18A628B4B4B40
:101EB000521A9E461A649A61228B521A1A61E28A59
:101EC000586342EA014221695A646268D963DA6060
:101ED000D4F800C094F81C90BCF1800F4FEA09625E
:101EE00030D014D8BCF1200F45EA020069D0BCF113
:101EF000400F66D0BCF1040F20D02A43374BB845C1
:101F000042F40032DA6148D140F2012214E0BCF51B
:101F1000807F07D0BCF5007FEFD142F4003242F061
:101F2000090203E042F4003242F00A02DA61E26898
:101F30001A625E6259612A4A1A604DE040F400302C
:101F4000D861F6E7A0682A43041D42F40032DC623F
:101F5000DA6102785E62596142B1012A1FD0214BD9
:101F600040F21111204A214829F01AF9428801242F
:101F7000D969501E21F47F4222F0100242EA002269
:101F8000DA61164BDA6942F02002DA61DA69920608
:101F9000FCD410229A60002CCDD1154ACCE742889F
:101FA000B9F1FF04D96902F1FF3018BF012421F40F
:101FB0007F4222F0100242EA002242F01002DA616F
:101FC000DFE740F40030064BCEF81C00CEF824606A
:101FD000CEF81410CEF80030BDE8F88300B002400F
:101FE00001020200E0CB0208FACB020831CB020862
:101FF0000102010038B50C46887FFFF727FF174B19
:10200000A58AE18A628B41EA05415863521B5964F3
:102010002169D9631A642568082D0ED19A611A6165
:1020200058620F4A207F42EA0062DA61E2681A626F
:102030000C4A5961D9601A6038BD0022D8611A6112
:10204000E1680A0A4809C1F3C40102F4784200F4C5
:10205000FC6002430A439A63034AECE700B0024083
:10206000090001000102020001020300054B4FF0CC
:1020700080620360044BC3F88820BFF34F8FBFF327
:102080006F8F704740CC020800E100E010B50446B5
:10209000FFF7ECFF4FF44261204629F053F8204649
:1020A00010BD000070B504460A4B0C3000262546D2
:1020B000602260602672667245F8203B294617F060
:1020C00043FD04F54263EE602035AB42FBD1204670
:1020D00070BD00BF40CC02084069704790F84400D2
:1020E0007047036B23B9C06A003818BF01207047DE
:1020F0000120704780687047043010B50C460FC847
:1021000084E80F0010BD704708B5034A4FF4F4711E
:10211000024B034829F044F888CC020852300308E7
:10212000E3CC020810B50446482129F00BF82046FC
:1021300010BD00002DE9F0431C46436BADF51F7D3B
:1021400005460E461746002B52D0002203A8DFF8A2
:10215000A890CDE901320EF05FFF4FF4F4725021E8
:10216000249024A808F069FE3A46314624A809F0D4
:1021700003FE012124A808F069FF022324A88DF89A
:10218000D83009F007F8BDF898622B9BBDF89C7217
:102190009E4228BF1E46419B9F4206EB460828BF31
:1021A0001F46A89BA3EB4606479B9F421AD90122D4
:1021B00001A924A809F037F86B6B03EB08009842DB
:1021C0000ED959789A78C90009EA022201F4FC6113
:1021D0000A4313F8031B42EAD10224F8022BEEE76C
:1021E0003444E1E724A808F053FF24A808F072FE65
:1021F0000DF51F7DBDE8F08300F8FFFF0A4A02607D
:102200000022C0E90522C0E90722C0E90922C0E98D
:102210000B22C0E90D12C0E90F2280F84420C0E96A
:102220000322C0E901227047DCCF020820B40D462A
:1022300011461A46036B3BB1036C806BED1A2844C0
:102240005DF8045B29F050BCC06AF8E7036B10B579
:1022500073B1036C826BC91A5318525C98785C781E
:102260000004DB7840EA0420104340EA036010BD1C
:10227000C36A5858FBE7036B43B1036CC91A836BFD
:102280005A18585C527840EA02207047C36A585A7C
:102290007047000070B50446006B0D461646D8B175
:1022A000E36B934208D209230D4A53210D4884F869
:1022B00044300D4B28F074FF0368DB689847206BAF
:1022C0003246A16B03681B69984710B90D2384F847
:1022D0004430A06B256470BDE06A0844FBE700BF92
:1022E00066CD0208E3CC020853CD02082DE9F8437D
:1022F000436904462BB9224B9821224A224828F0F0
:102300004FFF08228169FFF7C5FFA169204643F20C
:102310003007043146F26436FFF798FF0546A1699D
:10232000A36A0D4405F108029A4222D26369093575
:102330000822204625F001010133A1616361FFF706
:10234000A9FFD4F8188020464146FFF794FF814644
:1023500008F104012046FFF779FFB9450546DED1B3
:1023600008F102012046FFF786FFB042D7D10120D5
:1023700004E0012300206361236AA361BDE8F883C0
:10238000A8CD0208F1CD0208E3CC02082DE9F04FF8
:102390000446ADF51F7D8A46174681690822984696
:1023A000FFF778FFA6692046311DFFF74FFF06F1C2
:1023B0000801024605462046FFF76CFF636B0646A0
:1023C00033B93C4B40F28D113B4A3C4828F0E8FEC3
:1023D000002203A8CDE901320EF01EFE4FF4F47284
:1023E0005021249024A808F028FD2A46314624A82C
:1023F00009F0C2FC012124A808F028FE022324A829
:102400008DF8D83008F0C6FEBAF90250479BAB42AF
:1024100005D2012201A924A808F005FFF6E7BAF9C0
:1024200000904FEA4808BAF804602B9B08FB057738
:102430004E44BAF80250DFF888B036B29E4228BF48
:102440001E46BAF8063009EB490A1D44419B2DB2DD
:102450009D4228BF1D46479BAB421FD2012201A9C6
:1024600024A808F0E0FE636B4A465344B24203F1ED
:10247000030311D213F8020C13F8011CC0000BEA7D
:10248000012100F4FC60014313F8030C41EAD00180
:1024900027F812100132E9E74744DCE724A808F0E6
:1024A000F7FD24A808F016FD01200DF51F7DBDE8FD
:1024B000F08F00BF24CE02087ACE0208E3CC0208D7
:1024C00000F8FFFF0129036838BF0121DB6A70B5FE
:1024D0000D4604469847A84204D223682046DB6A8A
:1024E000984705466B1EE6691022204606EB031648
:1024F00006F10801FFF7CEFE06F110012046FFF7B6
:10250000A5FE236A043B0344C4E9055370BD0000E3
:102510002DE9F341002104464822816180F84410EE
:10252000FFF7B8FEA7690423624A39462046FFF741
:102530007DFE40B10323604AE02184F844305F4BC4
:102540005F4828F02DFE07F1080104235D4A20466C
:10255000A161FFF76BFE30B10423574AE82184F8EC
:102560004430594BECE707F10C010423574A20464D
:10257000A161FFF75BFE064630B105234E4AEF210D
:1025800084F84430524BDBE707F110012046FFF797
:102590005DFE054618B94F4BF521474AD0E707F1D4
:1025A000140804234C4A20464146FFF73FFE00280A
:1025B0004BD0062384F844300423484A07F118011D
:1025C0002046FFF733FE002841D0072384F844302B
:1025D0004544434F0C2220462946FFF75BFE05F198
:1025E000080604233A4620463146FFF71FFE94F8BA
:1025F000443000284AD0002B4AD1A36A291DAB429F
:102600004AD805F10C03291D2046A3610191FFF76B
:102610001DFE3044019960622046FFF717FE064414
:10262000042220463146FFF735FE04232D4A314669
:102630002046FFF7FBFD002839D10123E6616361E5
:10264000A369236202B0BDE8F0810126B4E7002E41
:10265000BED007F120012046FFF7F8FD4FF47A7352
:1026600007F13001B0FBF3F060602046FFF7EEFDAC
:1026700007F14001A0602046FFF7E8FD07F14401A3
:10268000E0602046FFF7E2FD2061A1E7002BB8D013
:102690000A2384F84430D5E72046FFF7D7FD0830F9
:1026A0000C22054420462946FFF7F4FD97E70B234B
:1026B000EFE700BFD4CE0208F2CE0208D9CE02085E
:1026C000E3CC02081FCF020824CF02083CCF020847
:1026D00041CF020857CF020863CF020868CF020833
:1026E0006DCF020872CF0208C0E90A2100220263FE
:1026F000FFF70EBF10B5002304460846E3620B68DF
:1027000021639B689847A0622046BDE81040FFF710
:10271000FFBE70B4BDF80C50BDF810602AB123B1F3
:10272000CDE9035670BCFFF705BD70BC70470000D3
:102730002DE9FF479946436904460F4690462BB959
:102740002A4B65212A4A2B4828F02AFD0822816954
:10275000FFF7A0FDA669204606F1080A311DFFF724
:1027600075FDA36A00EB0A0205469A4231D2314652
:102770002046FFF780FD43F2300398421DD1B11C83
:102780002046FFF778FD46F26433984215D1A5B193
:102790002A4651462046C4F818A0FFF77BFD0C9B43
:1027A00001462A462046CDF80080CDE901933B46FC
:1027B000FFF7AFFF636901336361A3692B448DB1F8
:1027C000A361A369626A013323F001039342A36109
:1027D0000AD10120236A6061A36180F0010004B086
:1027E000BDE8F0870833EBE70020F6E7A8CD020844
:1027F00077CF0208E3CC02080120704754207047CD
:10280000542303FB010008307047542303FB0100ED
:1028100008307047012070474FF4B56070474FF49F
:10282000B56303FB0100083070474FF4B56303FB49
:10283000010008307047012070471020704700EBFE
:1028400001100830704700EB01100830704708464F
:1028500001F0A2B9034B10B50446036015F0CEFC9D
:10286000204610BD84D0020810B50446FFF7F2FFE1
:102870005C21204628F066FC204610BD034B10B5B5
:102880000446036015F0BAFC204610BD50D0020883
:1028900010B50446FFF7F2FF4FF4B661204628F06A
:1028A00051FC204610BD0000034B10B504460360E8
:1028B00015F0A4FC204610BD1CD0020810B504463B
:1028C000FFF7F2FF1821204628F03CFC204610BDFF
:1028D000084B10B50446036000F2DC50FFF7BAFF66
:1028E00004F12C00FFF7CAFF04F11400FFF7DCFF2E
:1028F000204610BDB8D0020808B50248FFF7E8FF2F
:1029000008BD00BFF46D012010B50446FFF7E0FFDD
:1029100040F29471204628F015FC204610BD0000BE
:102920002DE9F34100F0B4FB0024054600F0B4FBB0
:10293000234601462246284600941CF083FB254B83
:10294000254A2046254D1A6002F0ACFE24481CF0B2
:10295000BBFA2B78BFF35B8FDB0735D4284628F012
:10296000F3FB88B31F4C204B04F23C6604F11400C7
:1029700004F12C0804F2DC5723606060C4F808807E
:10298000E760266115F03CFC184B4046636115F08A
:1029900037FC174B3846E36215F032FC154B04F553
:1029A000C760C4F8DC3502F0FDFE224604F5C761BD
:1029B000304602F0EDFE304601F0EEF8284628F0F1
:1029C000CFFB0D4828F00AFC0C4802B0BDE8F041EE
:1029D000FFF792B8D8B9022028820120F06D0120BB
:1029E00008000020F46D0120B8D002081CD00208B5
:1029F00050D0020884D00208F9280008AC810120D8
:102A0000014816F030B900BFAC81012070B5244EEA
:102A1000244B254C3046254D2360FFF743FB2846C9
:102A20001FF0E2FB224B00224FF4807121481A85EF
:102A300083F82A20DA621A861A6683F86C201A67ED
:102A4000DC60C3E912121C49C3E919124FF080710E
:102A50005967012183F8781018490B604FF4F07121
:102A600001801748C3E90422C3E90622C3E908220A
:102A7000C3E90E22C3E91022C3E91422C3E91622D6
:102A8000C3E9016501804FF488710E4883F8342052
:102A900001800D4801800D490A700D4A1A6070BD11
:102AA0008C75012058C70208887501202C820120EE
:102AB000AC81012070B90220010000017CB9022024
:102AC00076B9022072B9022078B9022074B90220C6
:102AD000E4C802080148FFF7C9BA00BF8C7501209D
:102AE000104A002370B5C2F88430BFF34F8FD2F87C
:102AF000803043F6E074C3F3C900C3F34E335B0187
:102B000003EA0406014646EA81750139C2F87452A7
:102B1000F9D2203B13F1200FF2D1BFF34F8FBFF357
:102B20006F8F70BD00ED00E0034B902283F85A23B5
:102B300083F85823704700BF00E100E0094A0A49C2
:102B4000D3680A48C3F30A03013B9BB20B801169A7
:102B5000C1F30A01013901801364536B43F001038F
:102B60005363704700680140A6820120A4820120BF
:102B7000014B986A704700BF84680140024B0122F4
:102B8000996243F8602C704784680140034B5B698D
:102B9000DB0301D5FFF7A4BF704700BF00ED00E0E5
:102BA000704700EB8100114640680368DB681847F6
:102BB00038B5044616F045F823681D6E19F050FA32
:102BC00001462046A8472368084A4FF04041D3F801
:102BD000845020460023A847054B064A5A60064AFF
:102BE000DA625A63054A1A6338BD00BF00FC03C0AD
:102BF000508601200886012024010020806C0100FD
:102C000008B531B1044B4FF4A871044A044828F0C8
:102C1000C7FA90F8250008BDC4D00208D8D0020831
:102C200061D2020810B531B1064B4FF4A571064AC6
:102C3000064828F0B5FA406811460368BDE8104020
:102C40001B6B1847C4D00208A4D2020861D2020844
:102C500008B529B1034B6921034A044828F0A0FABA
:102C6000C06808BDC4D0020851D4020861D202086D
:102C700010B50C4611461A462CB1064B8021064A67
:102C8000064828F08DFAC46040680368BDE810402B
:102C90009B681847C4D0020805D6020861D2020812
:102CA00008B529B1054B7221054A064828F078FA83
:102CB000C0E90411C0E9063208BD00BFC4D0020853
:102CC000DFD7020861D2020815F0A2BF08B515F0DF
:102CD00069FF044B5B69DB0303D5BDE80840FFF7E0
:102CE000FFBE08BD00ED00E016F0C7B890F8383020
:102CF00010B504463BB14FF0FF31006C05F04CFEBF
:102D00004FF48073238710BD38B50D4604464FF04D
:102D1000FF31006C013505F03FFE206C05F06CFEC4
:102D2000002304EB45152B7194F824300BB9E36AAA
:102D3000636338BD10B50446442128F003FA2046E9
:102D400010BD000010B5044629B1164B9221164A59
:102D5000164828F025FA042A15D8DFE802F00311F6
:102D600015171D00406803681B69984758B1012377
:102D700084F8253084F827300023C4E9043302E0C6
:102D8000002380F8253010BD0362F5E7002380F8AA
:102D9000253001230362F6E7003B18BF012380F8CA
:102DA0002830F0E7C4D002089AD9020861D202089C
:102DB00010B50446104629B1114BB921114A1248E9
:102DC00028F0EEF994F8253013B16369013363619B
:102DD00094F826300BB9012010BDA3680363036883
:102DE0005B699847002394F8270084F82630002870
:102DF000F1D194F82830002BEED184F82500EBE7D0
:102E0000C4D002086DDB020861D2020810B5104C74
:102E100015F00AFF94F8253053B1E169D4E9052390
:102E20005A4323694B439A4224BF012384F8293033
:102E30000123E06B84F8383005F098FE94F83930BF
:102E40002BB1206C05F0D8FD002384F8393010BD7B
:102E500050860120034B4FF080629A604FF08072E1
:102E60009A60704700E100E0084B4FF08062C3F8C1
:102E70008820BFF34F8FBFF36F8F4FF08072C3F87E
:102E80008820BFF34F8FBFF36F8F704700E100E0E2
:102E900090F8243070B533B1174B4FF4CA71174A0C
:102EA000174828F07DF90122456BC36080F828207F
:102EB00080F8242005F5B6320361803243618361D6
:102EC000C361036280F8263080F8273080F829300B
:102ED000D0E90B463444A24203D90A4B42210A4AA4
:102EE000DEE74263D8228560184681F83430CA860E
:102EF0000A870B6370BD00BF0DDD02083DDD0208CF
:102F000061D20208C3DE0208FEDE0208134B144A37
:102F10001B6C11888B4210B5124C13D1124B1988BF
:102F200004F026F9226892F86630013382F86630A0
:102F3000FEF714FF206816F085FC0020BDE8104065
:102F4000FEF7C0BD04F014F90020FEF7BCFD2068B8
:102F50000368BDE810401B6A184700BF00680140C5
:102F6000A68201207CB90220A48201202DE9F34130
:102F7000044601264FF4D8774FF0FF31E06B05F09F
:102F8000BBFD4FF0FF31206C05F006FD94F82930B1
:102F900013B3216A656884F8266029B12B68284636
:102FA0005B6A9847002323622B6828460097D3F872
:102FB0001480D823A1681A46C047236984F82700E3
:102FC0000133236160B12B6828469B6A984701381A
:102FD000E060002384F82930206C05F00DFDCBE77C
:102FE000E660F6E7014808B5FFF7C0FF508601200C
:102FF00038B5124900251248FFF700F9114C124B61
:1030000001202A462946236084F82450E58420853F
:1030100065632087C4E90355C4E90555C4E907552C
:10302000C4E90B55C4E90F55C4E9015505F00EFD7F
:10303000E063284605F06EFC206438BDA8820120BC
:103040000886012050860120A8E00208704710B5CC
:103050000446042128F076F8204610BD08B503295F
:1030600013D8DFE801F002060A0E02F067FB0068E1
:1030700008BD02F063FB4068FAE702F05FFB80687E
:10308000F6E702F05BFBC068F2E70020F0E7000023
:1030900000487047F0E002080F20704713B5002485
:1030A00051B1036801AA01948DF803409C680DF1A9
:1030B0000303A04702B010BD0846FBE740897047F4
:1030C000808970478088704783798088184480B2EF
:1030D0007047C07900F07F007047C079C009704721
:1030E0000020704781807047C18070470181704720
:1030F000418170477047704770477047704710B400
:10310000C4880368121B84881B6D091B12B25DF80A
:10311000044B09B218474FF6FF7383814FF0FF331A
:1031200003621368C361106070477047704770474F
:103130007047704790F825201AB190F8242002B10A
:1031400018607047704710B50446082127F0FAFF51
:10315000204610BD074A02600022C0E90122C0E9F2
:103160000322C0E90522C0E907224FF4807282845D
:10317000704700BF3C270308036870B50446DB6A4C
:10318000154698472368204629461B6BBDE87040CA
:10319000184770B504461D46BDF91060FFF7ECFFF7
:1031A0002368294620465B6B9847236831462046B2
:1031B0009B6BBDE87040184710B5044626220021DD
:1031C00028F07EF82046FFF7C5FF044B2046236019
:1031D000FF2384F826300023A36210BD6421030876
:1031E00070477047704730B444680346C2689B68B4
:1031F000551004EB6200D20748BF625930BC48BF8B
:10320000D358184743682BB183682BB9C06800F0C6
:1032100001007047184670470120704710B50446FA
:10322000102127F08FFF204610BD10B504464FF443
:10323000FE7127F087FF204610BD00F5DC70884244
:1032400008B505D118F00CFFBDE8084000F0B4BC8B
:1032500008BD00002DE9F04F044600252DED028B3E
:1032600089B004F16C081AF01BF922468B4B04F16B
:103270009807E56304F1C40B42F8403B104608EEA2
:10328000102AFFF799FF4FF6FF7326222946404682
:10329000ADF8183028F014F8404604F1F006FFF7B6
:1032A00059FF7F494FF6FF734046E16604F5BE7A49
:1032B000BDF8181004F5DC7984F89430A4F8921065
:1032C00006A917F0B0F93846FFF744FF754958468C
:1032D000C4F8C050C4F89810FFF76EFF304615F0E0
:1032E000E9F829462622504627F0EAFF5046FFF724
:1032F00031FF6D496D4B2622C4F87C114FF47F01DC
:10330000C4F8A4314FF6FF73C4F8B01148462946FB
:10331000A4F8A831C4F8AC51A4F8B45127F0D0FFF8
:103320004846FFF717FF4FF6FF734FF0010229469B
:10333000A4F8E63118EE100AA4F8E83184F8EA316E
:103340005B4B84F8DC215B4AC4F8E051C4F8B82137
:103350002A4684F8E451C4E97B34574BC4E97D35EF
:103360004FF4887300934FF4F073FFF712FF4FF0A0
:103370007F412A464046A1662946FFF7FDFE02230B
:1033800006A94046ADF8183017F04DF932212A460B
:1033900038464FF4F07300912946FFF7FAFE3221C8
:1033A0002A464FF4F073584600912946FFF7F1FE84
:1033B0004FF07F413846C4F8EC104FF0320184F8EA
:1033C000EA10594615F096F91923DFF8F0B00D22EE
:1033D0002946304600935023FFF7DBFE594630461E
:1033E00014F02DFF314B06A9304606930D23ADF89E
:1033F0001C3014F070FF2946304615F0A1F84FF04C
:1034000001022B46304684F81F210921292215F09C
:103410009AF83146384615F06DF90A225046BD211A
:10342000FFF7AAFE214B06A9504606930E23C4F8C7
:10343000ACB1A4F8B051ADF81C3016F05DFE5146A9
:10344000384615F057F929464846EC22FFF794FE16
:1034500006AA05A94846ADF81450ADF8185016F064
:103460008CFE04F5F673201D18EE101AC4F8E03136
:10347000039015F03FF94146039815F03BF93946A2
:10348000039815F037F90398494615F033F92046AB
:1034900009B0BDEC028BBDE8F08F00BF4CE2020822
:1034A0002024030860170308BC20030824E2020854
:1034B00034E202082C2203083B320008EDED0EFF37
:1034C00070477047704730B444680346C2689B68D1
:1034D000551004EB6200D20748BF625930BC48BFA8
:1034E000D358184743682BB183682BB9C06800F0E4
:1034F00001007047184670470120704710B5044618
:10350000102127F01FFE204610BD10B504464FF4D1
:10351000FE7127F017FE204610BD00F5DC708842D2
:1035200008B505D118F09CFDBDE8084000F044BB8B
:1035300008BD00002DE9F04F044600252DED028B5B
:1035400089B004F16C0819F0ABFF22468B4B04F1F3
:103550009807E56304F1C40B42F8403B104608EEBF
:10356000102AFFF729FE4FF6FF7326222946404610
:10357000ADF8183027F0A4FE404604F1F006FFF73E
:10358000E9FD7F494FF6FF734046E16604F5BE7AD8
:10359000BDF8181004F5DC7984F89430A4F8921082
:1035A00006A917F040F83846FFF7D4FD754958468C
:1035B000C4F8C050C4F89810FFF7FEFD304614F070
:1035C00079FF29462622504627F07AFE5046FFF71B
:1035D000C1FD6D496D4B2622C4F87C114FF47F016B
:1035E000C4F8A4314FF6FF73C4F8B0114846294619
:1035F000A4F8A831C4F8AC51A4F8B45127F060FE87
:103600004846FFF7A7FD4FF6FF734FF0010229462A
:10361000A4F8E63118EE100AA4F8E83184F8EA318B
:103620005B4B84F8DC215B4AC4F8E051C4F8B82154
:103630002A4684F8E451C4E97B34574BC4E97D350C
:103640004FF4887300934FF4F073FFF7A2FD4FF02F
:103650007F412A464046A1662946FFF78DFD022399
:1036600006A94046ADF8183016F0DDFF32212A4693
:1036700038464FF4F07300912946FFF78AFD322156
:103680002A464FF4F073584600912946FFF781FD12
:103690004FF07F413846C4F8EC104FF0320184F807
:1036A000EA10594615F026F81923DFF8F0B00D227C
:1036B0002946304600935023FFF76BFD59463046AC
:1036C00014F0BDFD314B06A9304606930F23ADF82B
:1036D0001C3014F000FE2946304614F031FF4FF044
:1036E00001022B46304684F81F210921292214F0BB
:1036F0002AFF3146384614F0FDFF0A225046BD210C
:10370000FFF73AFD214B06A9504606931023C4F853
:10371000ACB1A4F8B051ADF81C3016F0EDFC514638
:10372000384614F0E7FF29464846EC22FFF724FD0F
:1037300006AA05A94846ADF81450ADF8185016F081
:103740001CFD04F5F673201D18EE101AC4F8E031C4
:10375000039014F0CFFF4146039814F0CBFF394695
:10376000039814F0C7FF0398494614F0C3FF20469E
:1037700009B0BDEC028BBDE8F08F00BF98E20208F3
:103780002024030860170308BC20030824E2020871
:1037900080E202082C2203081B350008EDED0EFF25
:1037A000704700F596730868496803C3704770470F
:1037B000704741607047704701230372704770473C
:1037C0007047034608469A6B8A4210B408D00A68CC
:1037D000B3F95010146D002223465DF8044B1847CE
:1037E0005DF8044B7047034608469A6B8A4210B452
:1037F00008D00A68B3F95010146D002223465DF812
:10380000044B18475DF8044B70477047704770478A
:1038100070470000044B084600221988036849429B
:103820001B6D09B2184700BF70B9022030B444685C
:103830000346C2689B68551004EB6200D20748BF7C
:10384000625930BC48BFD358184743682BB18368CE
:103850002BB9C06800F0010070471846704701207E
:10386000704700000B680846024900221B6DB1F941
:103870000010184770B9022030B444680346C2688B
:103880009B68551004EB6200D20748BF625930BCF8
:1038900048BFD358184743682BB183682BB9C06819
:1038A00000F001007047184670470120704710B4BF
:1038B00041680346C2689B68541001EB6200D2075E
:1038C00048BF0A595DF8044B48BFD35818474368AE
:1038D0002BB183682BB9C06800F00100704718460F
:1038E00070470120704710B504460C2127F02AFCD0
:1038F000204610BD10B50446102127F023FC2046B9
:1039000010BD10B504464FF4AC7127F01BFC2046E7
:1039100010BD10B50446542127F014FC204610BDFC
:1039200010B50446102127F00DFC204610BD10B53F
:103930000446542127F006FC204610BD10B504466D
:10394000102127F0FFFB204610BD10B518F088FBB2
:103950000368BDE810401B6B18470000054B01468B
:103960001B782BB1406818B103680C311B6E1847E7
:10397000704700BF7BB90220054B01461B782BB175
:10398000406818B103680C311B6E1847704700BFC0
:103990007BB902201F4B1B7810B5044613B90123D5
:1039A000037210BD90F84D0094F84C300130C0B255
:1039B000984284F84D0024D8B4F94E20002119F023
:1039C00021FF10F0010283B221D04FF6FF710028D1
:1039D000D8BF0A461344A4F85030B4F8501004F18C
:1039E0000C00238A0022C91A09B2A4F8501019F059
:1039F00037FB606804F13C010368BDE810409B6F31
:103A0000184701232372002384F84D30C9E7A4F836
:103A10005000E2E77BB902201F4B1B7810B504462B
:103A200013B90123037210BD90F84D0094F84C3087
:103A30000130C0B2984284F84D0024D8B4F94E2029
:103A4000002119F0DFFE10F0010283B221D04FF601
:103A5000FF710028D8BF0A461344A4F85030B4F8C8
:103A6000501004F10C00238A0022C91A09B2A4F8EC
:103A7000501019F0F5FA606804F13C010368BDE8E4
:103A800010409B6F184701232372002384F84D30A8
:103A9000C9E7A4F85000E2E77BB9022010B504465C
:103AA000D0F83C0158B10368DB68984738B1D4F8C6
:103AB0003C0103689B6898470023C4F83C3110BD63
:103AC0001FB50C4B04461B788BB10B4B1C2269466F
:103AD000CDE9003040680123CDE9022303689B6FE4
:103AE0009847606804F10C010368DB6D984704B0E7
:103AF00010BD00BF7BB902201CEC02081FB50C4BA7
:103B000004461B788BB10B4B1C226946CDE9003073
:103B100040680123CDE9022303689B6F98476068E2
:103B200004F10C010368DB6D984704B010BD00BFC1
:103B30007BB90220D8EB0208F8B5044617460E46BA
:103B400018F0B0FA104B00251C6029460F4BC4E951
:103B500054760F4E236030680E4BC4E95255C4E9C9
:103B600050350368C4E94E559B689847284601F0D4
:103B700099FD336893F876200AB1D86C00B998683B
:103B800020F07DF92046F8BDC8B9022070EB02088C
:103B90007CB9022058EB0208064BC0F84401C0F87B
:103BA00048310023C0F84C3100F5A073C0F83C3117
:103BB000704700BF993D0008064BC0F84401C0F8AB
:103BC00048310023C0F84C3100F5A073C0F83C31F7
:103BD000704700BF5D3F0008064BC0F84401C0F8C5
:103BE00048310023C0F84C3100F5A073C0F83C31D7
:103BF000704700BF39410008064BC0F84401C0F8C7
:103C000048310023C0F84C3100F5A073C0F83C31B6
:103C1000704700BF91420008064BC0F84401C0F84D
:103C200048310023C0F84C3100F5A073C0F83C3196
:103C3000704700BFE9430008064BC0F84401C0F8D4
:103C400048310023C0F84C3100F5A073C0F83C3176
:103C5000704700BF414500082DE9F84F07469068BE
:103C60009946884603681446DDF828A01B6A9847E1
:103C7000B0F5B56F05D2424BA321424A424827F026
:103C80008FFA606803681B6A98470F2803D83F4B78
:103C9000A4213C4AF2E7E06803681B6A98470B28B6
:103CA00003D83B4BA521374AE8E718F0D9F918F0BB
:103CB000DDF9D9F8000010B10368DB689847D9F83E
:103CC000000010B103681B689847386810B103689A
:103CD0005B699847D8F8000010B103685B689847A3
:103CE000386810B103681B689847D8F8000010B115
:103CF00003689B689847E06800214FF0000B036859
:103D00005B6A9847234B0546C0F804B003605946E8
:103D100080F808B0A06803685B6A9847064601F01F
:103D2000D1FD6068594603685B6A9847044631468E
:103D300001F0AEFDC9F80050C8F800403E60E4B1A3
:103D4000231DCAF8003030463368C4F808A0DB6889
:103D5000F4639847236820461B68984729463046F5
:103D600019F04AFD2B6828461B6998472B6828469E
:103D70005B6998472046BDE8F88F2346E1E700BF1E
:103D8000C4E2020852E3020850E4020897E4020881
:103D90003AE50208B4EB0208D0F8543107B500F553
:103DA0009C710093044BD0F850210448FFF754FF56
:103DB00003B05DF804FB00BFBCB90220B8B9022013
:103DC0002DE9F74F074690689946884603681546DF
:103DD0001B6A9847B0F5B56F05D2564BA321564ADA
:103DE000564827F0DDF9686803681B6A98470F2872
:103DF00003D8534BA421504AF2E7E86803681B6AD2
:103E00009847532803D84F4BA5214B4AE8E718F0B1
:103E100027F918F02BF9D9F8000010B10368DB6816
:103E20009847D9F8000010B103681B6898473868B4
:103E300010B103685B699847D8F8000010B10368B7
:103E40005B689847386810B103681B689847D8F8D2
:103E5000000010B103689B689847E86800214FF0A4
:103E6000000A03685B6A9847374B06460446C0F869
:103E700004A080F808A046F80C3B304615F024FF5B
:103E8000324B2022A663A4F850A0C4E90F340123CA
:103E9000C4E911231423A4F84C302D4B1B789BB19B
:103EA0002C4B5246DFF8B0B05146B3F900303046E3
:103EB0000093BBF90030FFF76CF9304615F07FFE38
:103EC000BBF80030A4F84E30A868002103685B6A94
:103ED0009847064601F0F6FC6868002103685B6AB3
:103EE00098470546314601F0D3FCC9F80040C8F8B0
:103EF00000503E60E5B12B1D0C9A304613603368CC
:103F0000AA60DB68F56398472B6828461B689847CA
:103F10002146304619F070FC236820461B699847FB
:103F2000236820465B699847284603B0BDE8F08FB8
:103F30002B46E1E7C4E20208DDE5020850E402088E
:103F400097E402083AE5020834EC02081CEC020887
:103F50007BB9022072B9022070B90220D0F8543126
:103F600007B500F59C710093044BD0F8502104482C
:103F7000FFF726FF03B05DF804FB00BFBCB90220C9
:103F8000B8B9022003685B6A18470000F7B5194BFF
:103F900000260546044646600F46067245F80C3B6F
:103FA000284615F091FE144B2022A56384F84C702E
:103FB00084F84D60A4F85060C4E90F340123C4E9CB
:103FC00011230E4B1B7893B10D4B32460D4F3146EA
:103FD000B3F9003028460093B7F90030FFF7D9F85D
:103FE000284615F0ECFD3B885B42A4F84E30204695
:103FF00003B0F0BDF0EB0208D8EB02087BB9022059
:1040000072B9022070B902202DE9F0470746906886
:104010009946884603681446DDF820A01B6A984735
:10402000B0F5FE7F05D23F4BA3213F4A3F4827F022
:10403000B7F8606803681B6A98470F2803D83C4BA1
:10404000A421394AF2E7E06803681B6A98475328BD
:1040500003D8384BA521344AE8E718F001F818F0E6
:1040600005F8D9F8000010B10368DB689847D9F863
:10407000000010B103681B689847386810B10368E6
:104080005B699847D8F8000010B103685B689847EF
:10409000386810B103681B689847D8F8000010B161
:1040A00003689B6898470021E068FFF76BFF1421C5
:1040B0000546FFF76BFFA068002103685B6A98471D
:1040C000064601F063FC6068002103685B6A98475C
:1040D0000446314601F040FCC9F80050C8F80040E1
:1040E0003E60E4B1231DCAF8003030463368C4F89E
:1040F00008A0DB68F4639847236820461B6898474C
:104100002946304619F078FB2B6828461B699847EA
:104110002B6828465B6998472046BDE8F087234610
:10412000E1E700BFC4E20208EEE6020850E402083C
:1041300097E402083AE50208D0F8543107B500F5D3
:104140009C710093044BD0F850210448FFF75CFFAA
:1041500003B05DF804FB00BFBCB90220B8B902206F
:104160002DE9F0470746906899468846036814464B
:10417000DDF820A01B6A9847B0F5FE7F05D23F4BC3
:10418000A3213F4A3F4827F00BF8606803681B6A89
:1041900098470F2803D83C4BA421394AF2E7E0683E
:1041A00003681B6A9847532803D8384BA521344A23
:1041B000E8E717F055FF17F059FFD9F8000010B1E4
:1041C0000368DB689847D9F8000010B103681B68E2
:1041D0009847386810B103685B699847D8F80000C1
:1041E00010B103685B689847386810B103681B68B2
:1041F0009847D8F8000010B103689B6898470021E1
:10420000E068FFF7BFFE14210546FFF7BFFEA06878
:10421000002103685B6A9847064601F085FB6068E9
:10422000002103685B6A98470446314601F062FB4F
:10423000C9F80050C8F800403E60E4B1231DCAF838
:10424000003030463368C4F808A0DB68F463984750
:10425000236820461B6898472946304619F0CCFA57
:104260002B6828461B6998472B6828465B69984746
:104270002046BDE8F0872346E1E700BFC4E202081C
:1042800007E8020850E4020897E402083AE5020849
:10429000D0F8543107B500F59C710093044BD0F869
:1042A00050210448FFF75CFF03B05DF804FB00BF3A
:1042B000BCB90220B8B902202DE9F0470746906842
:1042C0009946884603681446DDF820A01B6A984783
:1042D000B0F5FE7F05D23F4BA3213F4A3F4826F071
:1042E0005FFF606803681B6A98470F2803D83C4B40
:1042F000A421394AF2E7E06803681B6A984753280B
:1043000003D8384BA521344AE8E717F0A9FE17F087
:10431000ADFED9F8000010B10368DB689847D9F802
:10432000000010B103681B689847386810B1036833
:104330005B699847D8F8000010B103685B6898473C
:10434000386810B103681B689847D8F8000010B1AE
:1043500003689B6898470021E068FFF713FE14216B
:104360000546FFF713FEA068002103685B6A9847C3
:10437000064601F043FA6068002103685B6A9847CB
:104380000446314601F020FAC9F80050C8F8004050
:104390003E60E4B1231DCAF8003030463368C4F8EB
:1043A00008A0DB68F4639847236820461B68984799
:1043B0002946304619F020FA2B6828461B69984791
:1043C0002B6828465B6998472046BDE8F08723465E
:1043D000E1E700BFC4E2020824E9020850E4020851
:1043E00097E402083AE50208D0F8543107B500F521
:1043F0009C710093044BD0F850210448FFF75CFFF8
:1044000003B05DF804FB00BFBCB90220B8B90220BC
:104410002DE9F04707469068994688460368144698
:10442000DDF820A01B6A9847B0F5FE7F05D23F4B10
:10443000A3213F4A3F4826F0B3FE606803681B6A29
:1044400098470F2803D83C4BA421394AF2E7E0688B
:1044500003681B6A9847532803D8384BA521344A70
:10446000E8E717F0FDFD17F001FED9F8000010B1E4
:104470000368DB689847D9F8000010B103681B682F
:104480009847386810B103685B699847D8F800000E
:1044900010B103685B689847386810B103681B68FF
:1044A0009847D8F8000010B103689B68984700212E
:1044B000E068FFF767FD14210546FFF767FDA06878
:1044C000002103685B6A9847064601F0C9F96068F5
:1044D000002103685B6A98470446314601F0A6F95B
:1044E000C9F80050C8F800403E60E4B1231DCAF886
:1044F000003030463368C4F808A0DB68F46398479E
:10450000236820461B6898472946304619F074F9FD
:104510002B6828461B6998472B6828465B69984793
:104520002046BDE8F0872346E1E700BFC4E2020869
:104530003BEA020850E4020897E402083AE5020860
:10454000D0F8543107B500F59C710093044BD0F8B6
:1045500050210448FFF75CFF03B05DF804FB00BF87
:10456000BCB90220B8B90220006A7047406A70479F
:1045700070478B888069DB0A0A6850F82300104472
:10458000704710B5C2B1137BB3B1547BD27A240209
:1045900004F4E0641443C26998B202EB8402138805
:1045A0008B4202D192F9020010BD05D801380432C5
:1045B00080B20028F3D1F7E70020F5E710B50446F4
:1045C000282126F0BFFD204610BD000030B589B07F
:1045D0000446BDF850500695BDF84C5005959DF821
:1045E000405004959DF83C5003959DF83850029535
:1045F0009DF8345001959DF83050009518F05CFD01
:10460000064B20462360119BA361129BE361159B1F
:104610002362169B636209B030BD00BF60EC0208E4
:1046200070477047704730B444680346C2689B685F
:10463000551004EB6200D20748BF625930BC48BF36
:10464000D358184743682BB183682BB9C06800F072
:1046500001007047184670470120704710B50446A6
:10466000102126F06FFD204610BD10B504464FF412
:10467000B56126F067FD204610BD00F53473994200
:1046800010B5044605D117F0EBFCBDE81040FFF76C
:10469000D3BA00F55D73994205D117F0E1FCBDE88E
:1046A0001040FFF7B9BA00F58363994205D117F0BE
:1046B000D7FCBDE81040FFF79FBA00F2BC43994217
:1046C00005D117F0CDFCBDE81040FFF785BA00F525
:1046D000AC63994215D190F8613200F50F7083F008
:1046E000010380F8253018F03DFC94F8BD3004F14A
:1046F000980083F0010384F8BD30BDE8104018F045
:1047000031BC10BD10B50446FEF724FD024B204617
:1047100023600023A36210BD6017030838B5044668
:104720000D462622002126F0CBFD2046FEF712FD85
:10473000064B2046294623602B88E384FF2384F818
:10474000283015F070FF204638BD00BF2024030834
:1047500010B504462622002126F0B2FD2046FEF7C1
:10476000F9FC074B4FF47F0220462360054BA36200
:104770004FF6FF73A3850023C4E90C32238710BDD5
:10478000BC20030824E202082DE9F04F044600256E
:104790004FF6FF7B04F1F00804F5BA7604F50077D4
:1047A00004F50F7A04F525792DED108B8DB018F0F6
:1047B00077FE2246ED4BE56342F8403B104608EE9B
:1047C000902AFEF7F9FC04F16C030AA9ADF828B0B1
:1047D00018460CEE903AFFF7A1FF04F19803184633
:1047E00009EE103AFFF78EFF04F1C4031846029356
:1047F000FEF7E2FC0AA94046ADF828B0FFF78EFFAD
:1048000004F58E73184608EE103AFFF77BFF04F5A7
:10481000A47318460593FEF7CFFC304613F04AFE0A
:104820003846FFF795FF5046FFF76CFF04F51A7303
:10483000184609EE903AFFF765FF4846FFF788FFF4
:1048400004F5347318460DEE103A15F0C5FE04F564
:10485000437318460AEE103AFFF754FF04F54E73FF
:1048600018460DEE903AFFF773FF04F55D73184696
:104870000EEE103A15F0B0FE04F56C7318460AEE11
:10488000903AFFF73FFF04F5777318460EEE903A23
:10489000FFF75EFF04F5836318460FEE103A15F03C
:1048A0009BFE04F2544318460BEE103AFFF72AFF22
:1048B00004F5906318460FEE903AFFF749FF04F2B3
:1048C000BC431846039315F087FE04F59F63184612
:1048D0000BEE903AFFF716FF04F2245318460493A8
:1048E000FFF736FF04F5AC63294626220CEE103A9A
:1048F000184626F0E5FC1CEE100AFEF72BFC4FF0E4
:104900000103A4F88EB52A4684F884352946984BCD
:1049100018EE900AA4F890B5C4F86035954B84F869
:1049200092B5A4F894B54FF4887BC4F89835924BAF
:10493000CDF800B0C4F8A0354FF4F073C4F8885532
:1049400084F88C55C4F89C45C4F8A455FEF721FCA6
:104950004FF07F4229461CEE900AA2662A46FEF7D7
:104960000BFC4FF002020AA91CEE900AADF82820B9
:1049700015F059FE2A46294619EE100ACDF800B066
:104980004FF4F073FEF705FC2A4629460298CDF84D
:1049900000B04FF4F07384F8BD50FEF7FAFB962395
:1049A0004FF07F4119EE100A84F8EA30C4F8EC1099
:1049B000029913F09FFE58224046C021FEF7DCFB0F
:1049C00007230AA94046ADF8283015F02CFE4146D1
:1049D00019EE100A13F08EFE32212A4618EE100A44
:1049E00000914FF4F0732946DFF890B1FEF7D1FB48
:1049F00032212A464FF4F073059800912946FEF7BC
:104A0000C8FB4FF07F4118EE100ADFF87481C4F83C
:104A100070114FF0320184F86E11059913F06AFE9F
:104A2000192150230D22304600912946FEF7B1FB93
:104A30005946304613F003FC0AA93046CDF82880C9
:104A4000ADF82C5013F047FC2946304613F078FDA2
:104A50004FF001032922304684F8A33109212B4667
:104A600013F071FD314618EE100A062613F042FECF
:104A70000A223846CC21FEF77FFB4FF001030AA93A
:104A80003846C4F830B2A4F83452ADF82C30CDF822
:104A9000288015F031FB394618EE100A13F02AFE73
:104AA000642329465046009346224FF4F0730C27A6
:104AB000FEF76FFB64232A4619EE900A00934FF429
:104AC000B4717823FEF765FB422248461F21FEF7AA
:104AD00053FB0AA94846C4F8C4B2A4F8C852CDF89A
:104AE0002880ADF82C6015F007FB494619EE900AB6
:104AF00013F000FE32461DEE100A1E21FEF73CFBAD
:104B00004FF0040309A94FF00309ADF82030082342
:104B10001DEE100AADF81C90ADF82430ADF8283029
:104B20000AAB00930B4608A90A4607A915F0B0FC8A
:104B300004F5B36119EE900AA4F808730291C4F861
:104B4000F8121DEE101AA4F80A7313F0D3FD19EE33
:104B5000901A504613F0CEFD642178232A461AEEAF
:104B6000100A0091F021FEF714FB0BE0D0EC0208D4
:104B7000E01F0308B8EC02087B460008EDED0EFFCD
:104B800024E2020842221DEE900A1021FEF7F4FAF8
:104B90000AA84FF00501C4F868B3A4F86C53ADF847
:104BA0002C1001461DEE900ACDF8288015F0A4FACD
:104BB0001DEE901A1AEE100A13F09CFD32461EEEFE
:104BC000100A1E21FEF7D8FA4FF0040309A84FF08F
:104BD0000102ADF820300AABADF824200093034663
:104BE00008A8ADF82820ADF81C90024607A8014699
:104BF0001EEE100A15F04CFC029B1EEE101A1AEE67
:104C0000100AC4F89C33A4F8AC73A4F8AE7313F084
:104C100071FD1AEE101A504613F06CFD78236420D3
:104C20002A46194600901AEE900AFEF7B2FA42227E
:104C30001EEE900A0521FEF79FFA0AA84FF0040322
:104C4000C4F80CB40146A4F810541EEE900AADF856
:104C50002C30CDF8288015F04FFA1EEE901A1AEE7F
:104C6000900A13F047FD32461FEE100A1E21FEF790
:104C700083FA4FF0040309A8ADF81C90ADF820307A
:104C80000923ADF82430ADF828300AAB0093034671
:104C900008A8024607A801461FEE100A15F0F8FB07
:104CA000029B1FEE101A1AEE900AC4F84034A4F8C2
:104CB0005074A4F8527413F01DFD1AEE901A504669
:104CC00013F018FD642078232A46294600901BEE35
:104CD000100AFEF75EFA42221FEE900A1521FEF737
:104CE0004BFA0AA8C4F8B0B40146A4F8B4541FEEB5
:104CF000900ACDF82880ADF82C9015F0FDF91FEE44
:104D0000901A1BEE100A13F0F5FC324603981E2190
:104D1000FEF732FA4FF0040308A8ADF81C90ADF886
:104D200020300A23024607A8ADF82430ADF8283019
:104D30000AAB01460398009309AB15F0A9FB029B4F
:104D400003991BEE100AC4F8E434A4F8F474A4F830
:104D5000F67413F0CFFC1BEE101A504613F0CAFC89
:104D600064231BEE900AAC2200937321FA23FEF712
:104D700010FA049819223521FEF7FEF90AAB4FF01C
:104D8000020204981946C4F854B5A4F85855ADF871
:104D90002C20CDF8288015F0AFF904991BEE900A6D
:104DA00013F0A8FC1CEE100A32224821FEF7E4F9A9
:104DB0004FF005010AAA1CEE100AADF8241009A94B
:104DC000A4F89465ADF8286015F0D7F9029B1CEEA5
:104DD000101A1BEE900AC4F8883513F08BFC201DC6
:104DE00018EE901A029013F085FC1CEE901A0298AF
:104DF00013F080FC19EE101A029813F07BFC18EEE9
:104E0000101A029813F076FC5146029813F072FCC7
:104E100002981BEE901A13F06DFC20460DB0BDEC0D
:104E2000108BBDE8F08F00BF70477047704730B4FB
:104E300044680346C2689B68551004EB6200D207C1
:104E400048BF625930BC48BFD358184743682BB19C
:104E500083682BB9C06800F001007047184670479E
:104E60000120704710B50446102126F06BF920464A
:104E700010BD10B504464FF4FE7126F063F92046CC
:104E800010BD00F5DC70884208B505D117F0E8F8D0
:104E9000BDE80840FEF790BE08BD00002DE9F04FC8
:104EA000044600252DED028B89B004F16C0818F042
:104EB000F7FA22468B4B04F19807E56304F1C40B23
:104EC00042F8403B104608EE102AFEF775F94FF6FF
:104ED000FF73262229464046ADF8183026F0F0F937
:104EE000404604F1F006FEF735F97F494FF6FF73AF
:104EF0004046E16604F5BE7ABDF8181004F5DC7989
:104F000084F89430A4F8921006A915F08CFB38466A
:104F1000FEF720F975495846C4F8C050C4F89810F7
:104F2000FEF74AF9304613F0C5FA294626225046C4
:104F300026F0C6F95046FEF70DF96D496D4B262255
:104F4000C4F87C114FF47F01C4F8A4314FF6FF730D
:104F5000C4F8B01148462946A4F8A831C4F8AC51A9
:104F6000A4F8B45126F0ACF94846FEF7F3F84FF632
:104F7000FF734FF001022946A4F8E63118EE100A3B
:104F8000A4F8E83184F8EA315B4B84F8DC215B4A11
:104F9000C4F8E051C4F8B8212A4684F8E451C4E9C1
:104FA0007B34574BC4E97D354FF4887300934FF43D
:104FB000F073FEF7EEF84FF07F412A464046A166B7
:104FC0002946FEF7D9F8022306A94046ADF8183065
:104FD00015F029FB32212A4638464FF4F073009130
:104FE0002946FEF7D6F832212A464FF4F073584688
:104FF00000912946FEF7CDF84FF07F413846C4F8BE
:10500000EC104FF0320184F8EA10594613F072FBAD
:105010001923DFF8F0B00D222946304600935023C3
:10502000FEF7B7F85946304613F009F9314B06A997
:10503000304606930B23ADF81C3013F04CF929468B
:10504000304613F07DFA4FF001022B46304684F8CB
:105050001F210921292213F076FA3146384613F030
:1050600049FB0A225046AB21FEF786F8214B06A9E0
:10507000504606930C23C4F8ACB1A4F8B051ADF877
:105080001C3015F039F85146384613F033FB2946E9
:105090004846EC22FEF770F806AA05A94846ADF886
:1050A0001450ADF8185015F068F804F5F673201D8B
:1050B00018EE101AC4F8E031039013F01BFB4146C0
:1050C000039813F017FB3946039813F013FB03986A
:1050D000494613F00FFB204609B0BDEC028BBDE83A
:1050E000F08F00BF1CED020820240308601703089E
:1050F000BC20030824E2020804ED02082C22030865
:10510000834E0008EDED0EFF70477047704730B4D6
:1051100044680346C2689B68551004EB6200D207DE
:1051200048BF625930BC48BFD358184743682BB1B9
:1051300083682BB9C06800F00100704718467047BB
:105140000120704710B50446102125F0FBFF2046D2
:1051500010BD10B504464FF4FE7125F0F3FF204654
:1051600010BD00F5DC70884208B505D116F078FF57
:10517000BDE80840FEF720BD08BD00002DE9F04F56
:10518000044600254FF6FF7B04F16C0804F19807F4
:1051900004F1F00604F5BE7A04F5DC792DED028BFE
:1051A00089B018F07DF92246854BE56342F8403B13
:1051B000104608EE102AFDF7FFFF2622294640463A
:1051C000ADF818B026F07CF84046FDF7C3FF7D4BE4
:1051D00006A94046E366BDF8183084F894B0A4F8F8
:1051E000923015F020FA3846FDF7B4FF764BC4F83C
:1051F000C050C4F8983004F1C403184608EE903A41
:10520000FDF7DAFF304613F055F9294626225046BD
:1052100026F056F85046FDF79DFF6C4B2946262296
:10522000C4F87C3148466A4BA4F8A8B1C4F8A4314C
:105230004FF47F03C4F8AC51C4F8B031A4F8B451B2
:1052400026F03EF84846FDF785FF624B4FF001021D
:105250002946C4F8B83118EE100A5F4B84F8DC21F7
:105260002A46A4F8E6B1A4F8E8B184F8EAB14FF010
:10527000320BC4F8E05184F8E451C4E97B34574B55
:10528000C4E97D354FF4887300934FF4F073FDF754
:1052900080FF4FF07F412A464046A1662946FDF730
:1052A0006BFF022306A94046ADF8183015F0BBF994
:1052B0002A4629463846CDF800B04FF4F073FDF782
:1052C00068FF2A464FF4F073294618EE900ACDF88D
:1052D00000B0FDF75EFF4FF07F41384684F8EAB03A
:1052E000C4F8EC1018EE901A13F004FA19230D22EA
:1052F00029463046009350234FF0090BFDF749FF34
:105300003046374912F09BFF314B06A930460693D1
:10531000ADF81CB012F0DFFF2946304613F010F94B
:105320004FF001022B465946304684F81F212922AE
:1053300013F009F93146384613F0DCF950460A22D9
:10534000BD21FDF719FF224B254A06A906930A2322
:10535000C4F8AC215046A4F8B051ADF81C3014F09C
:10536000CBFE5146384613F0C5F929464846EC2293
:10537000FDF702FF06AA05A94846ADF81450ADF89E
:10538000185014F0FAFE04F5F673201D18EE101AEA
:10539000C4F8E031039013F0ADF94146039813F0DF
:1053A000A9F93946039813F0A5F90398494613F073
:1053B000A1F9204609B0BDEC028BBDE8F08F00BF1B
:1053C00068ED02082024030860170308BC200308C6
:1053D00024E202082C22030850ED02086351000861
:1053E000EDED0EFF7047000030B5154D8DB02C78F7
:1053F000BFF35B8F14F001041ED1284625F0A4FEF4
:10540000D0B13F2301220F4907930F4B0F4806935A
:105410000F4B089403940094CDE904430423CDE991
:105420000944CDE901320A23FFF7D0F8284625F0D8
:1054300097FE084825F0D2FE04480DB030BD00BFED
:1054400094860120B4070790203C03089886012029
:10545000343C0308E55300087047000030B5154D93
:105460008DB02C78BFF35B8F14F001041FD1284658
:1054700025F06AFED8B13F2301220F4907930F4B55
:105480000F4806930F4B08940394CDE9044304237B
:10549000CDE90944CDE90132009321221423FFF71D
:1054A00095F8284625F05CFE074825F097FE04484D
:1054B0000DB030BDC0860120C4070790243C03080E
:1054C000C4860120383C0308595400087047000086
:1054D00030B5164D8DB02C78BFF35B8F14F00104FE
:1054E00020D1284625F030FEE0B13F2304221049A8
:1054F0000793104B10480693104B08940593012313
:10550000CDE9034302930523CDE90944CDE90032F7
:1055100019231222FFF75AF8284625F021FE0848E1
:1055200025F05CFE04480DB030BD00BFEC860120C4
:1055300094090790283C0308F08601203C3C0308AE
:10554000CD5400087047000030B5154D8DB02C7853
:10555000BFF35B8F14F001041ED1284625F0F4FD43
:10556000D0B13F2301220F4907930F4B0F480693F9
:105570000F4B089403940094CDE904430423CDE930
:105580000944CDE901322823FFF720F8284625F009
:10559000E7FD084825F022FE04480DB030BD00BFED
:1055A00018870120900A0790303C03081C870120CF
:1055B000403C030845550008002070470020704714
:1055C0000EB403B503AB002153F8042B019317F07D
:1055D000A7FB02B05DF804EB03B070470CB407B54D
:1055E00004AB53F8042B019317F09AFB03B05DF85A
:1055F00004EB02B070470000436C10B5044673B36F
:10560000038F2BB9184BC021184A194825F0C8FD43
:10561000C38E00EB43035B8C0BB318F08FFE238F1C
:10562000012B03D8134BC521134AEEE7E28E40F657
:105630003F10531C9BB2092B194688BFA3F10A01E6
:1056400004EB4101498C814209D10A2B04EB42024F
:1056500028BF0023508C04EB430358845184204618
:10566000BDE8104018F04EBD94ED02089DED020813
:1056700048EE020892EE0208A0EE020818F0FABC0A
:1056800010B586B002AC84E806001A460AAB214683
:1056900005930193099B0093089B16F057F806B0F9
:1056A00010BD000038B518BB124B13481B681349D6
:1056B000B3B11A689C681A441C4402605A681A44C0
:1056C0000A600F4B00221A8000F038F8054600F0FF
:1056D00033F80C4B1C600C4B1D600C4B188007E022
:1056E0000B4B03600B4B0B600B4B1C68002CE8D181
:1056F00038BD00BF44870120488701204C87012026
:1057000050870120CCB90220D4B90220D0B90220A0
:10571000E40A0790A00A0790940B0790044B1B68BB
:1057200053F82100034B1B6803EB4000704700BF98
:105730004C8701204887012011207047004870479E
:105740005487012010B5074CFFF788FE2060FFF753
:10575000FBFE6060FFF748FEA060FFF7B9FEE06067
:1057600010BD00BF54870120704710B504464FF4A8
:10577000AC7125F0E7FC204610BD10B50446D0F80A
:10578000540100F012F82046BDE8104016F03CBB72
:1057900010B50446FEF7D0F9014B2046236010BD3A
:1057A0007CEF02080022026070477047704704389F
:1057B0007047704710B50446102125F0C3FC204601
:1057C00010BDA0F10400F5E70022C1608260044A28
:1057D00010B502F1080420320460426010BD00BF21
:1057E000B8EF020870477047FDF7FBBC10B50446E0
:1057F0004FF4FE7125F0A6FC204610BD10B50446FE
:10580000FDF728FD014B2046236010BDE8EF02089C
:10581000704704387047704710B50446102125F0D2
:1058200091FC204610BDA0F10400F5E70022C16004
:105830008260044A10B502F108042032046042601C
:1058400010BD00BF14F0020870477047FDF739BE65
:1058500010B504464FF4FE7125F074FC204610BDCF
:1058600010B50446FDF766FE014B2046236010BDCF
:1058700044F00208704704387047704710B504467A
:10588000102125F05FFC204610BDA0F10400F5E7D3
:105890000022C1608260044A10B502F1080420327F
:1058A0000460426010BD00BF70F00208704770478E
:1058B000FEF7B7BE10B504464FF4B56125F042FCC3
:1058C000204610BD10B50446FEF75EFF014B204692
:1058D000236010BDA0F0020870470438704770477D
:1058E00010B50446102125F02DFC204610BDA0F176
:1058F0000400F5E70022C1608260044A10B502F19D
:10590000080420320460426010BD00BFCCF00208E1
:1059100070477047FFF789BA10B504464FF4FE711F
:1059200025F010FC204610BD10B50446FFF7B6FA6E
:10593000014B2046236010BDFCF00208704704387C
:105940007047704710B50446102125F0FBFB204638
:1059500010BDA0F10400F5E70022C1608260044A96
:1059600010B502F1080420320460426010BD00BF8F
:1059700028F1020870477047FFF7C7BB10B504460F
:105980004FF4FE7125F0DEFB204610BD10B5044635
:10599000FFF7F4FB014B2046236010BD58F10208CD
:1059A00000B54FF4807295B04FF0807103460C92B1
:1059B00005220F9101210692002201910B92139270
:1059C00000920B48CDE90312CDE90D22CDE9112259
:1059D000102206A902924FF4800205926A4601F055
:1059E000ABFD003818BF012015B05DF804FB00BF07
:1059F00048BE022000B54FF4807395B041F2883262
:105A000017480C93062306A906930023CDE90D330E
:105A10000F930B931393CDE9113301F04AFDE0B9D5
:105A2000022301224FF4800104900D48CDE9003398
:105A30001023CDE9023205236A46CDE905134FF064
:105A4000807306A90F9341F2883301F075FD003889
:105A500018BF012015B05DF804FB0120FAE700BF74
:105A600048BE022000B54FF4807391B04FF04072F1
:105A70000E480893EB2302A902934FF44063099365
:105A80004FF4005305930023CDE90A320A220F9305
:105A900007926A46CDE90D33CDE9003301F09CFD54
:105AA000003818BF012011B05DF804FB48BE022089
:105AB000454B012145489A6B42F00202F0B59A63CA
:105AC0008DB09A6B09240427002602F00202404D93
:105AD0000092009A9A6942F002029A619A6922F051
